S01400004653464B5F4B32304435304D2E73726563E4
S2140000000020002011040000350201003902010022
S21400001039020100390201003902010039020100EB
S214000020390201003902010039020100B131010034
S2140000303902010039020100333201009B3201000F
S2140000409B3201009B3201009B3201009B32010073
S2140000509B3201009B3201009B3201009B32010063
S2140000609B3201009B3201009B3201009B32010053
S2140000709B3201009B3201009B3201009B32010043
S2140000809B3201009B3201009B3201009B32010033
S2140000909B3201009B3201009B3201009B32010023
S2140000A09B3201009B3201009B3201009B32010013
S2140000B09B3201009B3201009B3201009B32010003
S2140000C09B3201009B3201009B3201009B320100F3
S2140000D09B3201009B3201009B3201009B320100E3
S2140000E09B3201009B3201009B3201009B320100D3
S20C0000F09B3201009B32010067
S214000400FFFFFFFFFFFFFFFFFFFFFFFF7EFFFFFF78
S2140004100F4A104810494FF008033BB140F8042B30
S21400042041F8042BA3F10103FFF7F7BFEFF30880B1
S21400043080F30988EFF3148040F0020080F31488FC
S214000440BFF36F8F0EF010FC80F30888704700BF74
S214000450FFFFFFFF80E100E080E200E081F0004166
S21400046002E000BF83F0004330B54FEA41044FEA94
S214000470430594EA050F08BF90EA020F1FBF54EA2F
S214000480000C55EA020C7FEA645C7FEA655C00F0CB
S214000490E2804FEA5454D4EB5555B8BF6D420CDD9C
S2140004A02C4480EA020281EA030382EA000083EA1F
S2140004B0010180EA020281EA0303362D88BF30BDBF
S2140004C011F0004F4FEA01314FF4801C4CEA113115
S2140004D002D0404261EB410113F0004F4FEA033374
S2140004E04CEA133302D0524263EB430394EA050FFF
S2140004F000F0A780A4F10104D5F1200E0DDB02FA6E
S2140005000EFC22FA05F2801841F1000103FA0EF201
S214000510801843FA05F359410EE0A5F120050EF1C7
S214000520200E012A03FA0EFC28BF4CF0020C43FAF8
S21400053005F3C01851EBE37101F0004507D54FF005
S214000540000EDCF1000C7EEB00006EEB0101B1F555
S214000550801F1BD3B1F5001F0CD349085FEA30009B
S2140005604FEA3C0C04F101044FEA445212F5800FA6
S21400057080F09A80BCF1004F08BF5FEA500C50F143
S214000580000041EB045141EA050130BD5FEA4C0C26
S214000590404141EB010111F4801FA4F10104E9D1AF
S2140005A091F0000F04BF01460020B1FA81F308BFA6
S2140005B02033A3F10B03B3F120020CDA0C3208DD72
S2140005C002F1140CC2F10C0201FA0CF021FA02F14D
S2140005D00CE002F11402D8BFC2F1200C01FA02F1BD
S2140005E020FA0CFCDCBF41EA0C019040E41AA2BFE2
S2140005F001EB0451294330BD6FEA04041F3C1CDAAA
S2140006000C340EDC04F11404C4F1200220FA04F0C9
S21400061001FA02F340EA030021FA04F345EA030173
S21400062030BDC4F10C04C4F1200220FA02F001FA35
S21400063004F340EA0300294630BD21FA04F02946B7
S21400064030BD94F0000F83F4801306BF81F4801150
S2140006500134013D4EE77FEA645C18BF7FEA655CC3
S21400066029D094EA050F08BF90EA020F05D054EA95
S214000670000C04BF1946104630BD91EA030F1EBF9A
S2140006800021002030BD5FEA545C05D1400049419E
S21400069028BF41F0004130BD14F580043CBF01F591
S2140006A0801130BD01F0004545F0FE4141F4700177
S2140006B04FF0000030BD7FEA645C1ABF1946104652
S2140006C07FEA655C1CBF0B46024650EA013406BF53
S2140006D052EA033591EA030F41F4002130BD00BF12
S2140006E090F0000F04BF0021704730B54FF48064CF
S2140006F004F132044FF000054FF0000150E700BF50
S21400070090F0000F04BF0021704730B54FF48064AE
S21400071004F1320410F0004548BF40424FF000019B
S2140007203EE700BF42004FEAE2014FEA31014FEADE
S21400073002701FBF12F07F4393F07F4F81F060512D
S214000740704792F0000F14BF93F07F4F704730B59C
S2140007504FF4607401F0004521F0004120E700BF2F
S21400076050EA010208BF704730B54FF000050AE0B6
S21400077050EA010208BF704730B511F0004502D5B7
S214000780404261EB41014FF4806404F132045FEAB9
S214000790915C3FF4DCAE4FF003025FEADC0C18BF5E
S2140007A003325FEADC0C18BF033202EBDC02C2F154
S2140007B0200300FA03FC20FA02F001FA03FE40EAE6
S2140007C00E0021FA02F11444C1E600BF70B54FF0E6
S2140007D0FF0C4CF4E06C1CEA11541DBF1CEA1355C8
S2140007E094EA0C0F95EA0C0F00F0DEF82C4481EA30
S2140007F0030621EA4C5123EA4C5350EA013518BF50
S21400080052EA033541F4801143F4801338D0A0FB3C
S21400081002CE4FF00005E1FB02E506F00042E0FBE9
S21400082003E54FF00006E1FB03569CF0000F18BFEF
S2140008304EF0010EA4F1FF04B6F5007F64F5407497
S21400084004D25FEA4E0E6D4146EB060642EAC6212A
S21400085041EA55514FEAC52040EA5E504FEACE2E97
S214000860B4F1FD0C88BFBCF5E06F1ED8BEF1004F9A
S21400087008BF5FEA500E50F1000041EB045170BD16
S21400088006F0004646EA010140EA020081EA03015A
S214000890B4EB5C04C2BFD4EB0C0541EA045170BD56
S2140008A041F480114FF0000E013C00F3AB8014F1D0
S2140008B0360FDEBF002001F0004170BDC4F1000419
S2140008C0203C35DA0C341BDC04F11404C4F120059A
S2140008D000FA05F320FA04F001FA05F240EA0200F5
S2140008E001F0004221F0004110EBD37021FA04F62B
S2140008F042EB06015EEA430E08BF20EAD37070BDE5
S214000900C4F10C04C4F1200500FA04F320FA05F043
S21400091001FA04F240EA020001F0004110EBD37045
S21400092041F100015EEA430E08BF20EAD37070BDB5
S214000930C4F1200500FA05F24EEA020E20FA04F38E
S21400094001FA05F243EA020321FA04F001F000413D
S21400095021FA04F220EA020000EBD3705EEA430EAE
S21400096008BF20EAD37070BD94F0000F0FD101F0DD
S2140009700046400041EB010111F4801F08BF013C16
S214000980F7D041EA060195F0000F18BF704703F054
S2140009900046520043EB030313F4801F08BF013DDB
S2140009A0F7D043EA0603704794EA0C0F0CEA135597
S2140009B018BF95EA0C0F0CD050EA410618BF52EA51
S2140009C04306D1D181EA030101F000414FF0000057
S2140009D070BD50EA410606BF1046194652EA430665
S2140009E019D094EA0C0F02D150EA013613D195EAD9
S2140009F00C0F05D152EA03361CBF104619460AD121
S214000A0081EA030101F0004141F0FE4141F470012A
S214000A104FF0000070BD41F0FE4141F4780170BD1A
S214000A2070B54FF0FF0C4CF4E06C1CEA11541DBF7F
S214000A301CEA135594EA0C0F95EA0C0F00F0A7F881
S214000A40A4EB050481EA030E52EA03354FEA0131AE
S214000A5000F088804FEA03334FF0805545EA1313C1
S214000A6043EA12634FEA022245EA111545EA106589
S214000A704FEA00260EF000419D4208BF964244F120
S214000A80FD0404F5407402D25B084FEA3202B61A3F
S214000A9065EB03055B084FEA32024FF480104FF413
S214000AA0002CB6EB020E75EB030E22BFB61A754687
S214000AB040EA0C005B084FEA3202B6EB020E75EB1A
S214000AC0030E22BFB61A754640EA5C005B084FEA82
S214000AD03202B6EB020E75EB030E22BFB61A75464F
S214000AE040EA9C005B084FEA3202B6EB020E75EB5A
S214000AF0030E22BFB61A754640EADC0055EA060E1B
S214000B0018D04FEA051545EA16754FEA06164FEA5D
S214000B10C30343EA52734FEAC2025FEA1C1CC0D109
S214000B2011F4801F0BD141EA00014FF000004FF096
S214000B30004CB6E711F4801F04BF01430020B4F157
S214000B40FD0C88BFBCF5E06F3FF6AFAEB5EB030C0F
S214000B5004BFB6EB020C5FEA500C50F1000041EB0C
S214000B60045170BD0EF0004E4EEA113114EB5C04D9
S214000B70C2BFD4EB0C0541EA045170BD41F48011AC
S214000B804FF0000E013C90E645EA060E8DE60CEAB4
S214000B90135594EA0C0F08BF95EA0C0F3FF43BAFD1
S214000BA094EA0C0F0AD150EA01347FF434AF95EA88
S214000BB00C0F7FF425AF104619462CE795EA0C0F6C
S214000BC006D152EA03353FF4FDAE1046194622E739
S214000BD050EA410618BF52EA43067FF4C5AE50EA13
S214000BE041047FF40DAF52EA43057FF4EBAE12E703
S214000BF04FF0FF3C06E000BF4FF0010C02E000BFE4
S214000C004FF0010C4DF804CD4FEA410C7FEA6C5CC6
S214000C104FEA430C18BF7FEA6C5C1BD001B050EA69
S214000C20410C0CBF52EA430C91EA030F02BF90EA54
S214000C30020F0020704710F1000F91EA030F58BF13
S214000C40994208BF90422CBFD8176FEAE37040F075
S214000C50010070474FEA410C7FEA6C5C02D150EA13
S214000C60013C07D14FEA430C7FEA6C5CD6D152EACE
S214000C70033CD3D05DF8040B704700BF8446104693
S214000C8062468C461946634600E000BF01B5FFF792
S214000C90B7FF002848BF10F1000F01BD4DF808ED62
S214000CA0FFF7F4FF0CBF012000205DF808FB00BF33
S214000CB04DF808EDFFF7EAFF34BF012000205DF88D
S214000CC008FB00BF4DF808EDFFF7E0FF94BF0120DA
S214000CD000205DF808FB00BF4DF808EDFFF7CEFFDB
S214000CE094BF012000205DF808FB00BF4DF808ED1A
S214000CF0FFF7C4FF34BF012000205DF808FB00BFEB
S214000D004FEA4102B2F1E04324BFB3F5001CDCF128
S214000D10FE5C0DD901F0004C4FEAC0024CEA507060
S214000D20B2F1004F40EB830008BF20F0010070478F
S214000D3011F0804F21D113F13872BCBF01F0004092
S214000D40704741F480114FEA5252C2F11802C2F1C4
S214000D50200C10FA0CF320FA02F018BF40F0010045
S214000D604FEAC1234FEAD32303FA0CFC40EA0C00F7
S214000D7023FA02F34FEA4303CCE77FEA625307D134
S214000D8050EA01331EBF4FF0FE4040F4400070476B
S214000D9001F0004040F0FE4040F40000704700BF05
S214000DA080F0004002E000BF81F0004142001FBF1B
S214000DB05FEA410392EA030F7FEA226C7FEA236C24
S214000DC06AD04FEA1262D2EB1363C1BFD218414019
S214000DD048404140B8BF5B42192B88BF704710F0AF
S214000DE0004F40F4000020F07F4018BF404211F052
S214000DF0004F41F4000121F07F4118BF494292EABA
S214000E00030F3FD0A2F1010241FA03FC10EB0C00E5
S214000E10C3F1200301FA03F100F0004302D5494272
S214000E2060EB4000B0F5000F13D3B0F1807F06D31F
S214000E3040084FEA310102F10102FE2A51D2B1F117
S214000E40004F40EBC25008BF20F0010040EA03000C
S214000E507047490040EB000010F4000FA2F10102B9
S214000E60EDD1B0FA80FCACF1080CB2EB0C0200FA43
S214000E700CF0AABF00EBC25052421843BCBFD04091
S214000E801843704792F0000F81F4000106BF80F40B
S214000E9000000132013BB5E74FEA41037FEA226CCE
S214000EA018BF7FEA236C21D092EA030F04D092F099
S214000EB0000F08BF0846704790EA010F1CBF0020CD
S214000EC0704712F07F4F04D1400028BF40F000402A
S214000ED0704712F100723CBF00F50000704700F04A
S214000EE0004343F0FE4040F4000070477FEA226271
S214000EF016BF08467FEA23630146420206BF5FEA42
S214000F00412390EA010F40F4800070474FF0000341
S214000F1004E000BF10F0004348BF40425FEA000C08
S214000F2008BF704743F0964301464FF000001CE0B0
S214000F3050EA010208BF70474FF000030AE000BF06
S214000F4050EA010208BF704711F0004302D5404244
S214000F5061EB41015FEA010C02BF844601460020B6
S214000F6043F0B64308BFA3F18053A3F50003BCFAD1
S214000F708CF2083AA3EBC25310DB01FA02FC63447E
S214000F8000FA02FCC2F12002BCF1004F20FA02F285
S214000F9043EB020008BF20F00100704702F1200278
S214000FA001FA02FCC2F1200250EA4C0021FA02F2D9
S214000FB043EB020008BF20EADC7070474FF0FF0CDE
S214000FC01CEAD0521EBF1CEAD15392EA0C0F93EAD9
S214000FD00C0F6FD01A4480EA010C400218BF5FEA7B
S214000FE041211ED04FF0006343EA501043EA5111EE
S214000FF0A0FB01310CF00040B1F5000F3EBF4900E8
S21400100041EAD3715B0040EA010062F17F02FD2AEB
S2140010101DD8B3F1004F40EBC25008BF20F00100CE
S214001020704790F0000F0CF0004C08BF49024CEAE5
S214001030502040EA51207F3AC2BFD2F1FF0340EA77
S214001040C250704740F400004FF00003013A5DDCE8
S21400105012F1190FDCBF00F000407047C2F1000229
S214001060410021FA02F1C2F1200200FA02FC5FEA16
S214001070310040F1000053EA4C0308BF20EADC7060
S214001080704792F0000F00F0004C02BF400010F4D2
S214001090000F013AF9D040EA0C0093F0000F01F07F
S2140010A0004C02BF490011F4000F013BF9D041EAA1
S2140010B00C018FE70CEAD15392EA0C0F18BF93EAA3
S2140010C00C0F0AD030F0004C18BF31F0004CD8D1CD
S2140010D080EA010000F00040704790F0000F17BF54
S2140010E090F0004F084691F0000F91F0004F14D09A
S2140010F092EA0C0F01D142020FD193EA0C0F03D1F2
S2140011004B0218BF084608D180EA010000F00040F4
S21400111040F0FE4040F40000704740F0FE4040F4CF
S214001120400070474FF0FF0C1CEAD0521EBF1CEA6E
S214001130D15392EA0C0F93EA0C0F69D0A2EB03028C
S21400114080EA010C49024FEA402037D04FF0805326
S21400115043EA111143EA10130CF000408B4238BFEB
S2140011605B0042F17D024FF4000C8B4224BF5B1AF9
S21400117040EA0C00B3EB510F24BFA3EB510340EA47
S2140011805C00B3EB910F24BFA3EB910340EA9C00F5
S214001190B3EBD10F24BFA3EBD10340EADC001B0165
S2140011A018BF5FEA1C1CE0D1FD2A3FF650AF8B4209
S2140011B040EBC25008BF20F0010070470CF0004C16
S2140011C04CEA50207F32C2BFD2F1FF0340EAC25041
S2140011D0704740F400004FF00003013A37E792F002
S2140011E0000F00F0004C02BF400010F4000F013A60
S2140011F0F9D040EA0C0093F0000F01F0004C02BF5B
S214001200490011F4000F013BF9D041EA0C0195E7C3
S2140012100CEAD15392EA0C0F08D142027FF47DAF5C
S21400122093EA0C0F7FF470AF084676E793EA0C0F4C
S21400123004D14B023FF44CAF08466EE730F0004C4A
S21400124018BF31F0004CCAD130F000427FF45CAFDA
S21400125031F000437FF43CAF5FE700BF4FF0FF3C48
S21400126006E000BF4FF0010C02E000BF4FF0010C9B
S2140012704DF804CD4FEA40024FEA41037FEA226C64
S21400128018BF7FEA236C11D001B052EA530C18BF86
S21400129090EA010F58BFB2EB030088BFC81738BFEB
S2140012A06FEAE17018BF40F0010070477FEA226CD9
S2140012B002D15FEA402C05D17FEA236CE4D15FEAD5
S2140012C0412CE1D05DF8040B704700BF8446084609
S2140012D06146FFE70FB5FFF7C9FF002848BF10F1CA
S2140012E0000F0FBD4DF808EDFFF7F4FF0CBF01200F
S2140012F000205DF808FB00BF4DF808EDFFF7EAFF99
S21400130034BF012000205DF808FB00BF4DF808ED53
S214001310FFF7E0FF94BF012000205DF808FB00BF48
S2140013204DF808EDFFF7D2FF94BF012000205DF8CE
S21400133008FB00BF4DF808EDFFF7C8FF34BF0120DB
S21400134000205DF808FB00BF4FEA4002B2F1FE4FF6
S2140013500FD34FF09E03B3EB12620DD94FEA002372
S21400136043F0004310F0004F23FA02F018BF40424B
S21400137070474FF00000704712F1610F01D1420232
S21400138005D110F0004008BF6FF0004070474FF0E6
S2140013900000704708B50448044B1B1A062B02D9F8
S2140013A0034B03B1984708BDBCE2FF1FBFE2FF1F17
S2140013B00000000006480749091A08B589100223EC
S2140013C091FBF3F111B1044B03B1984708BD00BF80
S2140013D0BCE2FF1FBCE2FF1F00000000074B1A78AC
S2140013E010B51C4642B9FFF7D5FF054B13B10548AB
S2140013F0AFF300800123237010BD00BFBCE2FF1FC7
S214001400000000006431010008B5084B1BB1084815
S2140014100849AFF300800848036813B1074B03B1CF
S2140014209847BDE80840FFF7C5BF00BF00000000B2
S21400143064310100C0E2FF1FBCE2FF1F0000000095
S214001440704700BF4EF2B043C1F6FF7310B41A6F78
S214001450B3F86C401846224401215DF8044B1A6725
S2140014600DF0F8BE704700BF4EF2B043C1F6FF73F2
S21400147093F8742042F0010283F87420704700BF8E
S2140014804EF2B043C1F6FF7393F8742042F00202A6
S21400149083F87420704700BF704700BF38B54EF21F
S2140014A0AC43C1F6FF7344F247121D785C78987817
S2140014B0D97804EB052300EB032301EB0323C5F2E5
S2140014C03612934200F0B08022DC42F62052C4F27C
S2140014D04242934200F0A1803BDC45F22D42C4F22A
S2140014E04C12934200F0848042F62032C4F242420C
S2140014F0934200F0B58045F22B42C4F24C12934260
S21400150061D14EF22C53C1F6FF730122DA705AE015
S21400151044F22D32C5F25022934200F09A8031DC1C
S21400152042F22002C5F23912934268D044F22B32BE
S214001530C5F25022934269D044F64152C5F23612A3
S214001540934240D14EF22C53C1F6FF7303221A7118
S21400155039E044F22072C5F2331293422DD044F69D
S2140015602052C5F23312934265D042F22002C5F2F1
S2140015703312934227D14EF22C53C1F6FF7300224A
S2140015801A7120E042F62032C5F24762934228D014
S21400159042F62052C5F24762934253D045F22042AB
S2140015A0C5F2532293420ED10CF092FE4EF2B04397
S2140015B0C1F6FF7300221A6705E04EF22C53C1F6FF
S2140015C0FF7302221A714EF24433C1F6FF734EF2D5
S2140015D0AC415869C1F6FF710422BDE838400FF0EF
S2140015E08DBC4EF22C53C1F6FF7301221A70EAE747
S2140015F04EF22C53C1F6FF730022DA70E3E74EF288
S2140016002C53C1F6FF7305221A71DCE74EF22C53F9
S214001610C1F6FF7301229A70D5E74EF22C53C1F63D
S214001620FF7300225A70CEE74EF22C53C1F6FF73BA
S21400163004221A71C7E74EF22C53C1F6FF7301223B
S2140016401A71C0E74EF22C53C1F6FF7300221A70CF
S214001650B9E74EF22C53C1F6FF7300229A70B2E738
S2140016604EF22C53C1F6FF7301225A70ABE700BF4F
S214001670F8B54FF07E510446FFF752FE18B1002031
S214001680C4F2B420F8BD00212046CBF68071FFF7E7
S2140016903DFE002840F09D8021462046FFF78EFC48
S2140016A001464FF07E50FFF77FFB0FF057FE0146D6
S2140016B02046FFF737FD00210446FFF71DFE0646CD
S2140016C0002840F0818020464FF07E51FFF732FE22
S2140016D0054630B121464FF07E50FFF723FD012529
S2140016E0044643F2A3012046C3F68961FFF722FEB3
S2140016F0002847D04CF63A512046C3F61371FFF740
S21400170053FB4CF63A510746C3F613712046FFF7D3
S21400171055FC4FF07E51FFF749FB01463846FFF770
S21400172001FD01460446FFF749FC4BF20E21C4F2C8
S214001730C8110746FFF742FC44F6EE11C4F2C12179
S214001740FFF734FB01462046FFF738FC4EF2DC710B
S2140017500446C3F6D7713846FFF728FB01462046F5
S214001760FFF7E0FC0021C4F2F011FFF71FFB2DB1DC
S21400177001460020C4F2B420FFF716FB46B300F182
S2140017800040F8BD21462046FFF718FC4BF20E211C
S214001790C4F2C8110746FFF711FC44F6EE11C4F276
S2140017A0C121FFF703FB01462046FFF707FC4EF278
S2140017B0DC710446C3F6D7713846FFF7F7FA0146E0
S2140017C02046FFF7AFFCD2E704F1004401267AE793
S2140017D0F8BD0020CCF2B420F8BD00BFF8B54FF03D
S2140017E07E510446FFF79CFD08B10020F8BD00219D
S2140017F02046CBF68071FFF789FD002840F08780F1
S21400180020460021FFF76EFD00287BD120460021F0
S214001810FFF790FD00287ED021462046FFF7CEFB3E
S21400182001464FF07E50FFF7BFFA0FF097FD2146B6
S214001830FFF778FC00210446FFF75EFD0646002809
S21400184040F02B8120464FF07E51FFF773FD054692
S21400185030B121464FF07E50FFF764FC0125044668
S21400186043F2A3012046C3F68961FFF763FD002813
S21400187000F0CB804CF63A512046C3F61371FFF7C2
S21400188093FA4CF63A510746C3F613712046FFF713
S21400189095FB4FF07E51FFF789FA01463846FFF771
S2140018A041FC01460446FFF789FB4BF20E21C4F2C9
S2140018B0C8110746FFF782FB44F6EE11C4F2C121B9
S2140018C0FFF774FA01462046FFF778FB4EF2DC710C
S2140018D00446C3F6D7713846FFF768FA0146204635
S2140018E0FFF720FC0021C4F2F011FFF75FFA2DB1DC
S2140018F001460020C4F2B420FFF756FA36B100F1D4
S2140019000040F8BD0020C4F2B420F8BDF8BD0020A9
S214001910C4F23430F8BD21462046FFF74FFB01469F
S2140019204FF07E50FFF740FA0FF018FD2146FFF704
S214001930F9FB00210446FFF7DFFC0646002840F0CE
S214001940A88020464FF07E51FFF7F4FC054630B1E4
S21400195021464FF07E50FFF7E5FB0125044643F293
S214001960A3012046C3F68961FFF7E4FC00286ED089
S2140019704CF63A512046C3F61371FFF715FA4CF6AB
S2140019803A510746C3F613712046FFF717FB4FF090
S2140019907E51FFF70BFA01463846FFF7C3FB0146B8
S2140019A00446FFF70BFB4BF20E21C4F2C8110746A4
S2140019B0FFF704FB44F6EE11C4F2C121FFF7F6F977
S2140019C001462046FFF7FAFA4EF2DC710446C3F6EB
S2140019D0D7713846FFF7EAF901462046FFF7A2FB23
S2140019E00021C4F2F011FFF7E1F92DB10146002005
S2140019F0C4F2B420FFF7D8F90EB100F10040002180
S214001A00C4F23431FFF7D2F9F8BD21462046FFF77D
S214001A10D5FA4BF20E21C4F2C8110746FFF7CEFAEC
S214001A2044F6EE11C4F2C121FFF7C0F90146204684
S214001A30FFF7C4FA4EF2DC710446C3F6D771384697
S214001A40FFF7B4F901462046FFF76CFB4FE7214647
S214001A502046FFF7B3FA4BF20E21C4F2C811074630
S214001A60FFF7ACFA44F6EE11C4F2C121FFF79EF977
S214001A7001462046FFF7A2FA4EF2DC710446C3F692
S214001A80D7713846FFF792F901462046FFF74AFB22
S214001A90ABE704F10044012653E704F100440126B5
S214001AA0D0E600BFF8B500210446FFF725FC054642
S214001AB0002840F0828020464FF07E51FFF73AFC27
S214001AC0064630B121464FF07E50FFF72BFB01262D
S214001AD0044643F2A3012046C3F68961FFF72AFCB9
S214001AE0002848D04CF63A512046C3F61371FFF74B
S214001AF05BF94CF63A510746C3F613712046FFF7DA
S214001B005DFA4FF07E51FFF751F901463846FFF770
S214001B1009FB01460446FFF751FA4BF20E21C4F2C8
S214001B20C8110746FFF74AFA44F6EE11C4F2C1217F
S214001B30FFF73CF901462046FFF740FA4EF2DC710B
S214001B400446C3F6D7713846FFF730F901462046FB
S214001B50FFF7E8FA0021C4F2F011FFF727F92EB1DB
S214001B6001460020C4F2B420FFF71EF915B100F1BB
S214001B700040F8BDF8BD21462046FFF71FFA4BF29D
S214001B800E21C4F2C8110746FFF718FA44F6EE1104
S214001B90C4F2C121FFF70AF901462046FFF70EFA04
S214001BA04EF2DC710446C3F6D7713846FFF7FEF8EE
S214001BB001462046FFF7B6FAD1E704F100440125B6
S214001BC079E700BFF8B50C46054600212046FFF72A
S214001BD089FB50B128460021FFF7ACFB002800F037
S214001BE0EF800020C4F2B420F8BD20460021FFF7A5
S214001BF0A1FB00286DD021462846FFF793FA002166
S214001C000446FFF779FB0646002840F0058120468B
S214001C104FF07E51FFF78EFB054630B121464FF060
S214001C207E50FFF77FFA0125044643F2A3012046C3
S214001C30C3F68961FFF77EFB002800F0CA804CF6E9
S214001C403A512046C3F61371FFF7AEF84CF63A51F8
S214001C500746C3F613712046FFF7B0F94FF07E51E2
S214001C60FFF7A4F801463846FFF75CFA014604463B
S214001C70FFF7A4F94BF20E21C4F2C8110746FFF78E
S214001C809DF944F6EE11C4F2C121FFF78FF8014624
S214001C902046FFF793F94EF2DC710446C3F6D7717F
S214001CA03846FFF783F801462046FFF73BFA002147
S214001CB0C4F2F011FFF77AF82DB101460020C4F205
S214001CC0B420FFF771F8002E00F0A58000F1004068
S214001CD0F8BD20460021FFF70FFB002840F0C28029
S214001CE021462846FFF71EFA00210446FFF704FBAC
S214001CF00646002840F0318120464FF07E51FFF71F
S214001D0019FB054630B121464FF07E50FFF70AFA20
S214001D100125044643F2A3012046C3F68961FFF776
S214001D2009FB00287CD04CF63A512046C3F61371C6
S214001D30FFF73AF84CF63A510746C3F613712046B9
S214001D40FFF73CF94FF07E51FFF730F80146384672
S214001D50FFF7E8F901460446FFF730F94BF20E218B
S214001D60C4F2C8110746FFF729F944F6EE11C4F28B
S214001D70C121FFF71BF801462046FFF71FF94EF278
S214001D80DC710446C3F6D7713846FFF70FF80146F4
S214001D902046FFF7C7F90021C4F2F011FFF706F856
S214001DA02DB101460020C4F2B420FEF7FDFF0EB1AF
S214001DB000F100400021C4F23431FEF7F5FFF8BD13
S214001DC028460021FFF798FA002840F0C28000203D
S214001DD0F8BD21462046FFF7F1F84BF20E21C4F27B
S214001DE0C8110746FFF7EAF844F6EE11C4F2C1211F
S214001DF0FEF7DCFF01462046FFF7E0F84EF2DC7106
S214001E000446C3F6D7713846FEF7D0FF0146204693
S214001E10FFF788F950E7F8BD04F100440126F6E61E
S214001E2021462046FFF7CAF84BF20E21C4F2C8112D
S214001E300746FFF7C3F844F6EE11C4F2C121FEF7D9
S214001E40B5FF01462046FFF7B9F84EF2DC710446AE
S214001E50C3F6D7713846FEF7A9FF01462046FFF7BE
S214001E6061F99DE728460021FFF764FA00283FF451
S214001E7037AF21462846FFF755F900210446FFF7FD
S214001E803BFA0646002840F08E8020464FF07E51F2
S214001E90FFF750FA054630B121464FF07E50FFF767
S214001EA041F90125044643F2A3012046C3F68961A1
S214001EB0FFF740FA002854D04CF63A512046C3F6B5
S214001EC01371FEF771FF4CF63A510746C3F61371CD
S214001ED02046FFF773F84FF07E51FEF767FF014686
S214001EE03846FFF71FF901460446FFF767F84BF23E
S214001EF00E21C4F2C8110746FFF760F844F6EE114B
S214001F00C4F2C121FEF752FF01462046FFF756F8FD
S214001F104EF2DC710446C3F6D7713846FEF746FF2C
S214001F2001462046FFF7FEF80021C4F2F011FEF746
S214001F303DFF2DB101460020C4F2B420FEF734FF69
S214001F400EB100F100400021C4F23431FEF72EFF3E
S214001F50F8BD0020CCF2B420F8BD04F10044012600
S214001F60CAE621462046FFF729F84BF20E21C4F2B6
S214001F70C8110746FFF722F844F6EE11C4F2C12155
S214001F80FEF714FF01462046FFF718F84EF2DC7104
S214001F900446C3F6D7713846FEF708FF01462046CA
S214001FA0FFF7C0F8C5E704F1004401266DE700BF5F
S214001FB02DE9F0414EF2B045C1F6FF7584B00E46ED
S214001FC06022002104464EF29C370EF0ABFC95F8DA
S214001FD07480C1F6FF7708F0FE084FF0260C4FF02D
S214001FE0000E394620460222012385F8748087F8C1
S214001FF000C087F801E00EF0CBFB03E095F87430E4
S214002000DA070CD4204602A90EF0C4FCBDF808304E
S214002010002BF3D0002040B204B0BDE8F08120468B
S21400202069460EF0C5FC9DF80030012BF7D195F8F7
S21400203074804EF29C3108F0FE084FF0260C4FF0EC
S214002040B90EC1F6FF712046022285F8748087F823
S21400205000C087F801E00EF09BFB95F87430DB07B4
S214002060FBD5204669460EF0A3FC9DF8000001282B
S214002070F7D14FF05E524FF06E5340B2326173614B
S21400208004B0BDE8F08100BF2DE9F0434EF2B04445
S214002090C1F6FF7483B08846174600211E22054607
S2140020A04EF29C360EF03EFC94F87490C1F6FF7625
S2140020B009F0FE094FF02A0C4FF0000E3146284674
S2140020C00222012384F8749086F800C086F801E0A6
S2140020D00EF05EFB94F87430D807FBD528460DF159
S2140020E007010EF065FC9DF80730012BF6D194F839
S2140020F074904EF29C3109F0FE094FF05B0C4FF0E5
S2140021001F0EC1F6FF712846022284F8749086F8E6
S21400211000C086F801E00EF03BFB94F87430D90757
S214002120FBD528460DF107010EF042FC9DF807305E
S214002130012BF6D194F874904EF29C3109F0FE090A
S2140021404FF05C0C4FF0200EC1F6FF7128460222BD
S21400215084F8749086F800C086F801E00EF018FB4C
S21400216094F87430DA07FBD528460DF107010EF017
S2140021701FFC9DF80730012BF6D194F874C07370DD
S2140021804EF29C310CF0FE0C4FF00E0EC1F6FF71B5
S2140021902846022284F874C086F800E00EF0F8FAAA
S2140021A094F87430DB07FBD528460DF107010EF0D6
S2140021B0FFFB9DF80730012BF6D194F874904FF092
S2140021C0020E4EF29C3109F0FE094FF02B0C7246BF
S2140021D0C1F6FF71284684F8749086F801E086F808
S2140021E000C00EF0D5FA94F87430D807FBD5284610
S2140021F00DF107010EF0DCFB9DF80730012BF6D140
S21400220094F874904EF29C3109F0FE094FF02A0CB7
S2140022104FF00D0EC1F6FF712846022284F8749026
S21400222086F800C086F801E00EF0B2FA94F8743032
S214002230D907FBD528460DF107010EF0B9FB9DF82E
S2140022400730012BF6D14CF6CD4200234FF06451F7
S214002250C3F6CC52C4F22013C8F82410FA633B64C9
S21400226003B0BDE8F08300BF2DE9F0414EF2B04464
S214002270C1F6FF74202282B00E46002105464EF2BB
S2140022809C370EF04FFB94F87480C1F6FF7708F089
S214002290FE084FF0130C4FF0000E39462846022277
S2140022A0012384F8748087F800C087F801E00EF0F8
S2140022B06FFA94F87430DA07FBD528460DF107015B
S2140022C00EF076FB9DF80730012BF6D194F874805B
S2140022D04EF29C3108F0FE084FF00D0C4FF0000E49
S2140022E0C1F6FF712846022284F8748087F800C081
S2140022F087F801E00EF04CFA94F87430DB07FBD553
S21400230028460DF107010EF053FB9DF80730012B10
S214002310F6D194F874804FF0020E4EF29C3108F01D
S214002320FE084FF0130C7246C1F6FF71284684F87B
S214002330748087F801E087F800C00EF029FA94F858
S2140023407430DF07FBD528460DF107010EF030FB91
S2140023509DF80730012BF6D14CF6CD43C3F64C530F
S214002360B36102B0BDE8F0812DE9F0414EF2B04510
S214002370C1F6FF75602282B08846002106464EF2FE
S2140023809C370EF0CFFA95F874E0C1F6FF7701247B
S2140023900EF0FE0E394622463046002385F874E0DD
S2140023A03C700EF0F5F995F874304EF2B044DB0749
S2140023B0C1F6FF74F7D594F874E04EF29C310EF037
S2140023C0FD0EC1F6FF7130460522012384F874E045
S2140023D00EF046FA95F874309C07FBD530466946F1
S2140023E00EF0E6FA9DF80030012BF7D13B787978AD
S2140023F0BA781B0643EA014343EA0223C8F80030D2
S214002400FA783B7943EA0223A8F81A3002B0BDE80E
S214002410F08100BF2DE9F04F4EF2B048C1F6FF78CC
S21400242085B00E46154600211E2281464EF29C348B
S2140024300EF078FA98F874E0C1F6FF7401270EF0F3
S214002440FE0E21463A464846002388F874E0277078
S2140024500EF09EF998F874304EF2B047D907C1F6E0
S214002460FF77F7D597F874E04EF29C310EF0FD0E2C
S214002470C1F6FF7148460C22012387F874E00EF07F
S214002480EFF998F874309A07FBD5484602A90EF083
S2140024908FFA9DF80830012BF7D1637AA079E1799D
S2140024A094F800B094F801A00093A37A94F80290F0
S2140024B0227A94F80380019341EA0021009894F868
S2140024C004C06779E47A4AEA0B2A40EA022348EA1B
S2140024D00928019AA6F82A800FFA8AF919F5004FFA
S2140024E044EA022447EA0C2708BF48F201020FFA22
S2140024F088F8B785A6F828A0A5F84410A5F84630B1
S214002500A5F8484008BF328518F5004F08BF48F2C6
S21400251001023FB208BF728517F5004F08BF48F2A8
S214002520010209B208BFB28511F5004F1BB204BF05
S21400253048F20102A5F8442013F5004F08BF03F146
S214002540011324B208BFA5F8463014F5004F04BFA7
S21400255048F20103A5F8483005B0BDE8F08F00BF8B
S2140025602DE9F0474EF2B045C1F6FF7582B08946B8
S21400257090460021202206464EF29C370EF0D2F9F5
S21400258095F874E0C1F6FF7701240EF0FE0E39468A
S21400259022463046002385F874E03C700EF0F8F8CA
S2140025A095F874304EF2B044DB07C1F6FF74F7D5E9
S2140025B094F874E04EF29C310EF0FD0EC1F6FF71F9
S2140025C030460622012384F874E00EF049F995F8A7
S2140025D074309807FBD5304669460EF0E9F99DF849
S2140025E00030012BF7D13C78797897F802A0FE7876
S2140025F097F804C07D794FEA480303EB080241EAE6
S214002600042109EB42020CB202F1180014F5004F47
S21400261046EA0A2645EA0C259183D683158404BF2C
S21400262048F20102828003EB080209EB420298445A
S214002630B2F91E101A3211F5004F09EB480904BF13
S21400264001F101119180B9F9203009F11C0913F547
S214002650004F04BF03F10113A9F8043002B0BDE82F
S214002660F08700BF42F67833C0F2010310B5044687
S21400267093E807004EF2AC33C1F6FF7303C323F8AA
S214002680022B1946120C01F80A2920460A220EF0DF
S2140026904FFC20460EF076FC0A28FAD14EF2443360
S2140026A0C1F6FF734EF2AC415869C1F6FF710422C1
S2140026B0BDE810400EF022BC4FF0E0232DE9F04FAD
S2140026C0D3F8102D4EF22C5622F00402C1F6FF76F7
S2140026D0C3F8102D4EF2AC34327AC1F6FF747E2168
S2140026E091B001238A4203902170637000F07281DA
S2140026F07D2A01BF5D23E370A27004231CBFA27075
S21400270003234EF2B047C1F6FF77511C97F87020AE
S21400271031727E2A00F03A827D2A07BF994DE25434
S214002720984DE25405BF5D22EA540133023397F810
S21400273071207E2A00F024827D2A03BF5D21E254A8
S214002740E954E2540CBF9A1C5A1C97F872307E2B40
S21400275000F010827D2B03BF5D21A354A954A3541F
S2140027600CBF931C531C97F873207E2A00F0388108
S2140027707D2A05BF5D20E254E254991C0CBFE85444
S214002780591C4EF25453C1F6FF7393F82E207E2A3E
S21400279000F034817D2A05BF5D20625462548A1C95
S2140027A014BF4A1C685493F82F107E2900F030811D
S2140027B07D2903BF5D20A154A854A1540CBF911CD1
S2140027C0511C93F830207E2A00F02C817D2A05BF0C
S2140027D05D20625462548A1C14BF4A1C685493F8E5
S2140027E031107E2900F028817D2903BF5D20A15489
S2140027F0A854A1540CBF911C511C93F832207E2A79
S21400280000F024817D2A93F8333005BF62545D20A2
S21400281062548A1C14BF4A1C68547E2B00F0218127
S2140028207D2B0CBFA354A35440F22443C2F20003F2
S21400283003BF5D20911CA854511C93F850207E2A9B
S21400284000F01D817D2A05BF5D20625462548A1CFB
S21400285014BF4A1C685493F851107E2900F0198161
S2140028607D2903BF5D20A154A854A1540CBF911C20
S214002870511C93F852207E2A00F015817D2A05BF50
S2140028805D20625462548A1C14BF4A1C685493F834
S21400289053107E2900F011817D2903BF5D20A154CD
S2140028A0A854A1540CBF911C511C93F854207E2AA6
S2140028B000F00D817D2A93F8553005BF62545D20E7
S2140028C062548A1C14BF4A1C68547E2B00F00A818E
S2140028D07D2B0CBFA354A3544FF20873C1F6FF73AD
S2140028E003BF5D20911CA854511C93F84C207E2AEF
S2140028F000F006817D2A05BF5D20625462548A1C62
S21400290014BF4A1C685493F84D107E2900F00281CB
S2140029107D2903BF5D20A154A854A1540CBF911C6F
S214002920511C93F84E207E2A00F0FE807D2A05BFBB
S2140029305D20625462548A1C14BF4A1C685493F883
S2140029404F107E2900F0FA807D2903BF5D20A15438
S214002950A854A1540CBF911C511C93F850207E2AF9
S21400296000F0F6807D2A93F8513005BF62545D2052
S21400297062548A1C14BF4A1C68547E2B00F0F380F5
S21400298002E000BFADE3FF1F7D2B05BF5D21A35412
S214002990A354A9540CBF02F1020802F101083279CF
S2140029A00023ADF83C30ADF83A30ADF83830ADF82D
S2140029B02830ADF82030ADF81830ADF83030052AA4
S2140029C001F26087DFE812F0F404E70577060707F0
S2140029D0A007EC005E237D21E370A170042390E63F
S2140029E07D215E22E154EA54991C4EF25453C1F6FE
S2140029F0FF7393F82E207E2A7FF4CCAE5E227D20D5
S214002A0060546A548A1C93F82F107E297FF4D0AE47
S214002A107D215E20A154A854911C93F830207E2A74
S214002A207FF4D4AE5E227D2060546A548A1C93F8EC
S214002A3031107E297FF4D8AE7D215E20A154A854A3
S214002A40911C93F832207E2A7FF4DCAE93F8333064
S214002A505E227D207E2B60546A5401F102027FF4D0
S214002A60DFAE7D215E23A154AB5440F22443C2F274
S214002A700003911C93F850207E2A7FF4E3AE5E227A
S214002A807D2060546A548A1C93F851107E297FF486
S214002A90E7AE7D215E20A154A854911C93F85220E5
S214002AA07E2A7FF4EBAE5E227D2060546A548A1C38
S214002AB093F853107E297FF4EFAE7D215E20A1545B
S214002AC0A854911C93F854207E2A7FF4F3AE93F812
S214002AD055305E227D207E2B60546A5401F102023E
S214002AE07FF4F6AE7D215E23A154AB544FF20873FB
S214002AF0C1F6FF73911C93F84C207E2A7FF4FAAE41
S214002B005E227D2060546A548A1C93F84D107E29FC
S214002B107FF4FEAE7D215E20A154A854911C93F84C
S214002B204E207E2A7FF402AF5E227D2060546A54D7
S214002B308A1C93F84F107E297FF406AF7D215E2015
S214002B40A154A854911C93F850207E2A7FF40AAF13
S214002B5093F851305E227D207E2B60546A5401F13A
S214002B6002027FF411AF7D215E23A15402F1020818
S214002B70AB5414E75E237D21A154AB54931CF2E5BD
S214002B805E227D21E154EA549A1CDEE5034D7D2148
S214002B905E22E154EA540233C9E500BFADE3FF1FED
S214002BA04FF25C7BC1F6FF7B0021DBF84420DBF8AC
S214002BB03830DBF854000293C4F2A011DBF83CA0D6
S214002BC0DBF840900092FEF7F9F9FEF7BDFB002116
S214002BD0C4F2A011ADF83800DBF85800FEF7EEF9A5
S214002BE0FEF7B2FB0021C4F2A011ADF83A00DBF804
S214002BF05C00FEF7E3F9FEF7A7FB0021C4F2201104
S214002C00ADF83C00DBF80000FEF7D8F9FEF79CFBB9
S214002C100021C4F22011ADF81800DBF80400FEF71E
S214002C20CDF9FEF791FB0021C4F22011ADF820008B
S214002C30DBF80C00FEF7C2F9FEF786FB0021C4F2B3
S214002C402011ADF82800DBF8B800FEF7B7F9FEF75C
S214002C507BFBDBF8603046F2676CC6F2666C8CFB7A
S214002C6003EC4FF4C0414FEAE37ECEEBEC0EC4F229
S214002C70EA611FFA80FB0298ADF830E0FEF79EF995
S214002C80FEF762FB4FF4C04183B2C4F2EA615046DD
S214002C900193FEF793F9FEF757FB4FF4C041C4F2D9
S214002CA0EA611FFA80FA4846FEF788F9FEF74CFB01
S214002CB0009A4FF4C041C4F2EA611FFA80F9104648
S214002CC0FEF77CF9FEF740FB019B182280B2D9B2D2
S214002CD07E29ADF8103000F000847D290CBF04F882
S214002CE0081004F808109DF8111009BF4FF05D0E8B
S214002CF008F1010308F1020305F808E07E2900F058
S214002D00F9837D2905BF4FF05D0EE154E15405F8C7
S214002D1003E00CBF991C591C5FFA8AF37E2BADF8B2
S214002D2010A000F0F5837D2B05BF4FF05D0E6354B9
S214002D3063548B1C14BF4B1C05F801E09DF8111062
S214002D407E2900F0F1837D2905BF4FF05D0EE1542A
S214002D50E15405F803E00CBF991C591C5FFA89F38F
S214002D607E2BADF8109000F0ED837D2B05BF4FF065
S214002D705D0E635463548B1C14BF4B1C05F801E0B6
S214002D809DF811107E2900F0E9837D2905BF4FF0DC
S214002D905D0EE154E15405F803E00CBF991C591C84
S214002DA0C3B27E2BADF8100000F0E5837D2B05BF87
S214002DB05D20635463548B1C14BF4B1C68549DF8F1
S214002DC011107E2900F0E1837D2903BF5D20E154C8
S214002DD0E854E1540CBF991C591C631896F80180FE
S214002DE062544FF0020E4FF07E0C4EF2AC324EF2B2
S214002DF02C5005F801E0C1F6FF7283F802C0C1F658
S214002E00FF70CB1CB8F1000F41F0258031784EF2F0
S214002E102C52C1F6FF72002940F02D87B1784EF291
S214002E202C52C1F6FF72002940F03586F1784EF23A
S214002E302C52C1F6FF7221B192F90910002941F017
S214002E409182317A7E2706204EF2AC32B942E754A0
S214002E50C1F6FF72E85403F1020000F010867D29E7
S214002E6001BFD71C4FF05D0E815403F807E016BF74
S214002E7081541A1DDA1C4EF22C67C1F6FF77013119
S214002E8097F8563B31727E2B00F0F2857D2B03BF00
S214002E905D21A354A954A3540CBF931C531C97F84C
S214002EA0572B7E2A00F0DC857D2A05BF5D21E25483
S214002EB0E254E9540CBF03F1020903F101094FF291
S214002EC0F028C1F6FF784CF63331D8F838A0C4F2B3
S214002ED04C515046FEF72EFA002840F0A5850021FA
S214002EE0C4F220115046FEF769F8FEF72DFA80B2BC
S214002EF0C3B27E2BADF8100000F09E857D2B02BF7E
S214002F005D2204F8093005F809209DF8112016BF47
S214002F1004F8093009F1020309F101037E2A00F0E2
S214002F2098857D2A05BF5D20E254E254E8540CBF24
S214002F30991C591CF3881FFA83FCACF10A0080B276
S214002F404AF6AB220FFA80F9C2F6AA2282FB09A241
S214002F504FEAE979C9EB620292B2A2EB820900EB72
S214002F6089000FFA83F9B9F1090F80B20FDD0FFA65
S214002F7080F909EB49094FEAC90909FA82F909F506
S214002F80D87957F82990B9F1FF3F01F00B835FFA23
S214002F9083FCBCF17E0FADF8103000F0DF87BCF18B
S214002FA07D0F05BF4FF05D0904F801C004F801C0AD
S214002FB005F8019014BF4B1C8B1C9DF811107E2940
S214002FC000F0C2877D2905BF4FF05D0CE154E15447
S214002FD005F803C00CBF03F1020903F10109B6F9B5
S214002FE00630092B01F20C81DFE813F0900139015D
S214002FF0E50071000A000A000A000A000A000A003A
S2140030000023ADF810309DF8113000227E2B04F816
S214003010092009F1010901F03C837D2B05BF5D20E5
S21400302004F8093004F8093005F809000CBF09F166
S214003030020109F101017E2B625401F1010101F048
S214003040DC837D2B05BF5D27635463546F540CBF30
S214003050881C481C7E2B225400F1010200F0A5803B
S2140030607D2B05BF5D20A354A354A8540CBF911C10
S214003070511CF28896F804C0013292B210B24EF299
S2140030802C53B0F5957FC1F6FF73ACF10408A8BFCA
S21400309000225FFA88F8DA807E274EF2AC334EF2D2
S2140030A02C50B8F1010FC1F6FF736754C1F6FF70DC
S2140030B001F1010240F25B874EF2AC31039892B206
S2140030C0C1F6FF7111B0BDE8F04F0DF031BF002121
S2140030D0C4F27A41D8F81000FDF770FFFEF734F915
S2140030E0C3B27E2BADF8100001F07D837D2B05BFAB
S2140030F05D2104F8093004F8093005F8091014BFFA
S21400310009F1010209F102029DF811307E2B01F04F
S21400311063837D2B05BF5D21A354A354A9540CBF24
S214003120971C571C0021C4F27A41D8F81400FDF70A
S21400313045FFFEF709F9C3B27E2BADF8100001F08B
S21400314044837D2B05BF5D21E355E355E95514BF48
S2140031507A1CBA1C9DF811307E2B01F02F837D2B34
S21400316005BF5D21A354A354A9540CBF971C571C3C
S214003170D8F820000021C4F27A41FDF71FFFFEF7C1
S214003180E3F8C3B27E2BADF8100001F004827D2B6D
S21400319005BF5D21E355E355E95514BF7A1CBA1CFB
S2140031A09DF811307E2B7FF45BAF7D215E23A1540A
S2140031B0911CAB545DE70021C4F27A41D8F80C00AC
S2140031C0FDF7FCFEFEF7C0F8C3B27E2BADF810008C
S2140031D001F0EA827D2B05BF5D2104F8093004F872
S2140031E0093005F8091014BF09F1010209F10202BD
S2140031F09DF811307E2B01F0D0827D2B05BF5D211E
S214003200A354A354A9540CBF971C571C0021C4F206
S2140032107A41D8F81C00FDF7D1FEFEF795F8C3B248
S2140032207E2BADF8100001F0B1827D2B05BF5D212D
S214003230E355E355E95514BF7A1CBA1C9DF81130C6
S2140032407E2B01F09C827D2B05BF5D21A354A354E9
S214003250A9540CBF971C571CD8F82C008AE70021ED
S214003260C4F22011D8F80000FDF7A8FEFEF76CF8AF
S214003270C3B27E2BADF8100001F077827D2B05BF20
S2140032805D2104F8093004F8093005F8091014BF68
S21400329009F1010209F102029DF811307E2B01F0BE
S2140032A05D827D2B05BF5D21A354A354A9540CBF9A
S2140032B0971C571C0021C4F22011D8F80400FDF713
S2140032C07DFEFEF741F8C3B27E2BADF8100001F08C
S2140032D03E827D2B05BF5D21E355E355E95514BFBE
S2140032E07A1CBA1C9DF811307E2B01F029827D2BAA
S2140032F005BF5D21A354A354A9540CBF971C571CAB
S2140033000021D8F80800C4F2201136E70023ADF8F3
S21400331010309DF8113000227E2B04F8092009F1A8
S214003320010901F003827D2B05BF5D2204F80930F8
S21400333004F8093005F809200CBF09F1020709F165
S21400334001070021C4F22011D8F83000FDF736FE40
S214003350FDF7FAFFC3B27E2BADF8100001F0DF8157
S2140033607D2B05BF5D21E355E355E95514BF7A1C57
S214003370BA1C9DF811307E2B01F0CA817D2B05BF4B
S2140033805D20A354A354A8540CBF911C511C5FFA93
S2140033908BF37E2BADF810B001F0B3817D2B07BF09
S2140033A05D20635463544A1C04BF8A1C6854F7E6C5
S2140033B04FF28419C1F6FF790021D9F84020D9F8D8
S2140033C03830D9F85400D9F83CA0D9F844B0C4F243
S2140033D0A0118DE80C00FDF7F1FDFDF7B5FF00210B
S2140033E0C4F2A011ADF83800D9F85800FDF7E6FD94
S2140033F0FDF7AAFF0021C4F2A011ADF83A00D9F8F3
S2140034005C00FDF7DBFDFDF79FFF0021C4F22011F5
S214003410ADF83C00D9F80000FDF7D0FDFDF794FFAD
S2140034200021C4F22011ADF81800D9F80400FDF709
S214003430C5FDFDF789FF0021C4F22011ADF820007C
S214003440D9F80C00FDF7BAFDFDF77EFFD9F860103D
S214003450ADF8280046F26760C6F26660019B80FB06
S21400346001E0C917C1EBE00E4FF4C0411846C4F2A4
S214003470EA61ADF830E0FDF7A1FDFDF765FF4FF41A
S214003480C04183B2C4F2EA6150460193FDF796FD4F
S214003490FDF75AFF009A4FF4C041C4F2EA611FFAE2
S2140034A080FA1046FDF78AFDFDF74EFF4FF4C04147
S2140034B0C4F2EA611FFA80F95846FDF77FFDFDF772
S2140034C043FF019BD9B27E294FF0000B80B24FF02C
S2140034D01102ADF810307FF400AC7D2104F808101E
S2140034E09DF811105E237E2905F8083008F10203C6
S2140034F07FF407AC7D214FF05E0EE15405F803E043
S214003500991C5FFA8AF37E2BADF810A07FF40BAC03
S2140035105E234FF07D0E04F801E06B548B1C9DF883
S21400352011107E297FF40FAC7D214FF05E0EE15422
S21400353005F803E0991C5FFA89F37E2BADF810902E
S2140035407FF413AC5E234FF07D0E04F801E06B545D
S2140035508B1C9DF811107E297FF417AC7D214FF04F
S2140035605E0EE15405F803E0991CC3B27E2BADF85D
S21400357010007FF41BAC5E237D2060546B548B1CC4
S2140035809DF811107E297FF41FAC7D215E20E1544A
S214003590991CE85421E44EF28859C1F6FF790021BF
S2140035A0D9F84020D9F83830D9F85400D9F83CA0DA
S2140035B0D9F844B0C4F2A0118DE80C00FDF7FEFC6B
S2140035C0FDF7C2FE0021C4F2A011ADF83800D9F80C
S2140035D05800FDF7F3FCFDF7B7FE0021C4F2A0117A
S2140035E0ADF83A00D9F85C00FDF7E8FCFDF7ACFE54
S2140035F00021C4F22011ADF83C00D9F80000FDF718
S214003600DDFCFDF7A1FE0021C4F22011ADF8180084
S214003610D9F80400FDF7D2FCFDF796FE0021C4F2AF
S2140036202011ADF82000D9F80C00FDF7C7FCFDF717
S2140036308BFED9F86010ADF8280046F26760C6F237
S2140036406660019B80FB01E0C917C1EBE00E4FF4FA
S214003650C0411846C4F2EA61ADF830E0FDF7AEFCB2
S214003660FDF772FE4FF4C04183B2C4F2EA615046E1
S2140036700193FDF7A3FCFDF767FE009A4FF4C041E7
S214003680C4F2EA611FFA80FA1046FDF797FCFDF7D0
S2140036905BFE4FF4C041C4F2EA611FFA80F9584657
S2140036A0FDF78CFCFDF750FE4FF0000B80B21622A3
S2140036B0019BFFF70CBB40F27C49C2F200090021D7
S2140036C0D9F84020D9F83830D9F85400D9F83CA0B9
S2140036D0D9F844B0C4F2A0118DE80C00FDF76EFCDA
S2140036E0FDF732FE0021C4F2A011ADF83800D9F87B
S2140036F05800FDF763FCFDF727FE0021C4F2A01179
S214003700ADF83A00D9F85C00FDF758FCFDF71CFE52
S2140037100021C4F22011ADF83C00D9F80000FDF7F6
S2140037204DFCFDF711FE0021C4F22011ADF8180083
S214003730D9F80400FDF742FCFDF706FE0021C4F2AE
S2140037402011ADF82000D9F80C00FDF737FCFDF786
S214003750FBFDD9F86010ADF8280046F26760C6F2A7
S2140037606660019B80FB01E0C917C1EBE00E4FF4D9
S214003770C0411846C4F2EA61ADF830E0FDF71EFC21
S214003780FDF7E2FD4FF4C04183B2C4F2EA61504651
S2140037900193FDF713FCFDF7D7FD009A4FF4C041E7
S2140037A0C4F2EA611FFA80FA1046FDF707FCFDF73F
S2140037B0CBFD4FF4C041C4F2EA611FFA80F95846C7
S2140037C0FDF7FCFBFDF7C0FD4FF0000B80B21322A7
S2140037D0019BFFF77CBA4FF2442BC1F6FF7B00211A
S2140037E0DBF84420DBF83830DBF854000293C4F2F0
S2140037F0A011DBF83CA0DBF840900092FDF7DEFB62
S214003800FDF7A2FD0021C4F2A011ADF83800DBF8E8
S2140038105800FDF7D3FBFDF797FD0021C4F2A01179
S214003820ADF83A00DBF85C00FDF7C8FBFDF78CFD51
S2140038300021C4F22011ADF83C00DBF80000FDF7D3
S214003840BDFBFDF781FD0021C4F22011ADF8180084
S214003850DBF80400FDF7B2FBFDF776FD0021C4F2AD
S2140038602011ADF82000DBF80C00FDF7A7FBFDF7F4
S2140038706BFD0021C4F22011ADF82800DBF89C0097
S214003880FDF79CFBFDF760FDDBF8603046F2676CE9
S214003890C6F2666C8CFB03EC4FF4C0414FEAE37E45
S2140038A0CEEBEC0EC4F2EA611FFA80FB0298ADF88C
S2140038B030E0FDF783FBFDF747FD4FF4C04183B2D0
S2140038C0C4F2EA6150460193FDF778FBFDF73CFD34
S2140038D04FF4C041C4F2EA611FFA80FA4846FDF789
S2140038E06DFBFDF731FD009A4FF4C041C4F2EA616A
S2140038F01FFA80F91046FDF761FBFDF725FD122241
S21400390080B2019BFFF7E3B94FF69479C1F6FF79D1
S2140039100021D9F84020D9F83830D9F85400D9F821
S2140039203CA0D9F844B0C4F2A0118DE80C00FDF715
S21400393045FBFDF709FD0021C4F2A011ADF83800E3
S214003940D9F85800FDF73AFBFDF7FEFC0021C4F25B
S214003950A011ADF83A00D9F85C00FDF72FFBFDF793
S214003960F3FC0021C4F22011ADF83C00D9F80000A9
S214003970FDF724FBFDF7E8FC0021C4F22011ADF8AA
S2140039801800D9F80400FDF719FBFDF7DDFC00214F
S214003990C4F22011ADF82000D9F80C00FDF70EFB9C
S2140039A0FDF7D2FCD9F86010ADF8280046F2676043
S2140039B0C6F26660019B80FB01E0C917C1EBE00E12
S2140039C04FF4C0411846C4F2EA61ADF830E0FDF7A6
S2140039D0F5FAFDF7B9FC4FF4C04183B2C4F2EA61D0
S2140039E050460193FDF7EAFAFDF7AEFC009A4FF455
S2140039F0C041C4F2EA611FFA80FA1046FDF7DEFA0B
S214003A00FDF7A2FC4FF4C041C4F2EA611FFA80F948
S214003A105846FDF7D3FAFDF797FC4FF0000B80B23F
S214003A201422019BFFF753B947F6FF70C3B27E2BF3
S214003A30ADF810007FF462AA7D2204F809209DF8F4
S214003A4011205E237E2A05F8093009F102037FF46F
S214003A5068AA7D215E22E154991CEA54FFF76ABAEF
S214003A607D215E22E15403F10209EA54FFF727BAEA
S214003A705E237D21A154AB54931CFFF710BAD71CCC
S214003A804FF07D0C4FF05E0E00F802C01A1D03F8D2
S214003A9007E0FFF7F0B9117A4FF07E0E04204EF2E1
S214003AA0AC32714504F803E0C1F6FF72E85403F146
S214003AB0020000F0A0807D2901BF02F1030E4FF046
S214003AC05D0C815403F80EC016BF81541A1DDA1C13
S214003AD097F8703001317E2B317200F09E807D2B7E
S214003AE005BF5D21A354A354931C14BF531CA954B3
S214003AF097F871207E2A00F09A807D2A05BF5D2106
S214003B00E254E2549A1C14BF5A1CE95497F87230D7
S214003B107E2B00F096807D2B05BF5D21A354A35419
S214003B20931C14BF531CA95497F873207E2A00F0E8
S214003B3092807D2A03BF5D21E254E954E2540CBF13
S214003B409A1C5A1C9DF818307E2B00F08E807D2B18
S214003B5005BF5D21A354A354A95414BF501C901C48
S214003B609DF819307E2B00F064857D2B05BF5D2205
S214003B70235423542A540CBF811C411C9DF820302A
S214003B807E2B00F04F857D2B05BF5D20635463546C
S214003B90685414BF4A1C8A1C9DF821307E2B00F006
S214003BA03A857D2B05BF5D20A354A354A8540CBFB3
S214003BB0911C511C9DF828307E2B00F025857D2B0E
S214003BC005BF5D2063546354685414BF4A1C8A1CA6
S214003BD09DF829307E2B00F010857D2B03BF5D21DC
S214003BE0A354A954A3540CBF931C531C7E22E25426
S214003BF00133FFF71BB902F1030E4FF07D084FF0BB
S214003C005E0C00F8028003F80EC01A1D97F870309C
S214003C1001317E2B31727FF462AF5E237D21A15489
S214003C20AB54931C97F871207E2A7FF466AF5E2211
S214003C307D21E154EA549A1C97F872307E2B7FF46B
S214003C406AAF5E237D21A154AB54931C97F8732072
S214003C507E2A7FF46EAF7D225E21E254E9549A1CE0
S214003C609DF818307E2B7FF472AF7D215E23A15421
S214003C70901CAB5474E7117A4FF07E0E03204EF280
S214003C80AC32714504F803E0C1F6FF72E85403F164
S214003C90020000F0A0807D2901BF02F1030E4FF064
S214003CA05D0C815403F80EC016BF81541A1DDA1C31
S214003CB097F8703001317E2B317200F09E807D2B9C
S214003CC005BF5D21A354A354931C14BF531CA954D1
S214003CD097F871207E2A00F09A807D2A05BF5D2124
S214003CE0E254E2549A1C14BF5A1CE95497F87230F6
S214003CF07E2B00F096807D2B05BF5D21A354A35438
S214003D00931C14BF531CA95497F873207E2A00F006
S214003D1092807D2A03BF5D21E254E954E2540CBF31
S214003D209A1C5A1C9DF838307E2B00F08E807D2B16
S214003D3005BF5D21A354A354A95414BF501C901C66
S214003D409DF839307E2B00F09D847D2B05BF5D22CB
S214003D50235423542A540CBF811C411C9DF83A302E
S214003D607E2B00F088847D2B05BF5D206354635452
S214003D70685414BF4A1C8A1C9DF83B307E2B00F00A
S214003D8073847D2B05BF5D20A354A354A8540CBF99
S214003D90911C511C9DF83C307E2B00F058847D2BE6
S214003DA005BF5D2063546354685414BF4A1C8A1CC4
S214003DB09DF83D307E2B00F043847D2B03BF5D21B4
S214003DC0A354A954A3540CBF931C531C7E22E25444
S214003DD00133FFF723B802F1030E4FF07D084FF0D2
S214003DE05E0C00F8028003F80EC01A1D97F87030BB
S214003DF001317E2B31727FF462AF5E237D21A154A8
S214003E00AB54931C97F871207E2A7FF466AF5E222F
S214003E107D21E154EA549A1C97F872307E2B7FF489
S214003E206AAF5E237D21A154AB54931C97F8732090
S214003E307E2A7FF46EAF7D225E21E254E9549A1CFE
S214003E409DF838307E2B7FF472AF7D215E23A1541F
S214003E50901CAB5474E7007A02F803C002F1040C1D
S214003E607E2801F1050301F80CE04CD07D2801BF47
S214003E7002F1060E4FF05D0C985401F80EC016BF06
S214003E809854CA1D8A1D4FF4D27101F0A403013064
S214003E907E2B3072ADF8101050D07D2B03BF5D2105
S214003EA0A354A954A3540CBF931C531C9DF8112073
S214003EB07E2A34D07D2A03BF5D21E254E954E254C1
S214003EC00CBF9A1C5A1C9DF830307E2B30D07D2BB0
S214003ED005BF5D20A354A354A85414BF511C911CC5
S214003EE09DF831307E2B00F0B9837D2B03BF5D2219
S214003EF063546A5463540CBF8B1C4B1C7E22E254E2
S214003F000133FEF783BF02F1060E4FF07D084FF037
S214003F105E0C03F80280CA1D01F80EC0B3E77D22CE
S214003F205E21E254E9549A1C9DF830307E2BCED1A7
S214003F307D215E23A154AB54911CD1E75E237D21E5
S214003F40A154AB54931CB1E74FF07D0C5E2104F8EE
S214003F5003C003F10209E954FFF741B85E234FF0AE
S214003F607D0C04F801C06B548B1CFFF726B8007A52
S214003F709F549A1C07277E288F5401F1030200F0F5
S214003F80EE807D2803BF03F104084FF05D09D0548E
S214003F90D05406BF01F808904F1D0F1D4FF69479B8
S214003FA061462B4601304FF25C7AC1F6FF794FF03E
S214003FB0000B0429254696F8048030721C46C1F68C
S214003FC0FF7A08BF0BEB090328D0052918BF00208D
S214003FD000F0C581ADF810009DF810307E2B35D06E
S214003FE07D2BEB5504BF5D23E3559DF8113014BFC0
S214003FF0791CB91C7E2B35D07D2B6B540BF1040B32
S21400400009BF5D234F1C8F1C6354BBF10C0F36D0C9
S2140040104146042908BF0BEB0903D6D10021C4F2A0
S2140040207A41186FFCF7CAFF4FF47E41C4F2FF6175
S2140040300290FDF77FF9002800F09B8047F6FF739B
S214004040ADF810309DF810307E2BC9D14FF07D01B1
S2140040504FF05E03E955E3559DF811307E2B07F1CE
S2140040600201C9D14FF07D030BF1040B6B54BBF179
S2140040700C0F4FF05E03635401F10207C8D12346CC
S2140040802C461D464FF694734FF25C7BC1F6FF73C9
S21400409096F804A00293C1F6FF7B4FF00008BAF131
S2140040A0040F00F05981BAF1050F18BF002000F088
S2140040B03181ADF810009DF810307E2B00F0228183
S2140040C07D2B08BF5D21E3550ABFE9557A1CBA1C53
S2140040D09DF811307E2B00F00D817D2BA35405BF7B
S2140040E05D23AB54571C971C08F10408B8F10C0F5D
S2140040F0D5D14FF25C7B4FF6947A96F80490C1F6D1
S214004100FF7BC1F6FF7A0026B9F1040F08BF06EB65
S2140041100A033DD0B9F1050F18BF002036D0ADF820
S21400412010009DF810307E2B49D0E3557D2B9DF86E
S214004130113009BF5D217A1CBA1CE9557E2B4AD086
S2140041407D2BA35405BF5D23AB54571C971C043628
S2140041500C2ED9D17E23E3557A1CFEF7ADBF03F1B2
S21400416004087D274FF05E09D7544F1D01F80890CC
S21400417014E702984FF04741FDF7BEF8002840F0DC
S21400418005820298FDF7E0F880B223E706EB0B0302
S2140041904FF48041C4F21C61D86FFCF70FFF4FF458
S2140041A07E41C4F2FF618046FDF7C4F8D8B147F6F9
S2140041B0FF71ADF810109DF810307E2BB5D14FF082
S2140041C07D03E3559DF811304FF05E017E2BE955D7
S2140041D007F10202B4D14FF07D014FF05E03A15407
S2140041E0971CAB54B3E740464FF04741FDF784F8C1
S2140041F0002840F0C6814046FDF7A6F880B28EE75C
S21400420000B2430012B2191802EBC10107EB4108D5
S21400421017F811107E2900F06A827D2905BF4FF03D
S2140042205D0A04F8091004F8091005F809A014BF7F
S21400423009F1010C09F1020C98F801107E2900F032
S2140042404C827D2905BF4FF05D0904F80C1004F878
S2140042500C1005F80C900CBF0CF102080CF10108CC
S214004260191802EBC10101F5907107EB410917F827
S21400427011107E2900F027827D2905BF4FF05D0AC8
S21400428004F8081004F8081005F808A014BF08F190
S214004290010C08F1020C99F801107E2900F0098241
S2140042A07D2903BF4FF05D0804F80C1005F80C805C
S2140042B004F80C100CBF0CF102010CF101010344D0
S2140042C002EBC30303F5107307EB430017F8133034
S2140042D07E2B00F0E8817D2B05BF5D276354635479
S2140042E06F5414BF4A1C8A1C43787E2B7EF4B8AEEB
S2140042F0FEF75BBF4FF07D014FF05E03A154971CA5
S214004300AB54F1E64FF07D034FF05E01E355BA1C67
S214004310E955DDE608EB0B030021C4F27A41586E3E
S214004320FCF74CFE4FF47E41C4F2FF618146FDF778
S21400433001F820B147F6FF71ADF81010BBE648460D
S2140043404FF04741FCF7D8FF002840F0158148465B
S214004350FCF7FAFF80B2ACE6029B4344DCE70BEBCB
S2140043600A035BE6117A4FF07E0E05204EF2AC3261
S214004370714504F803E0C1F6FF72E85403F1020049
S21400438000F0C3807D2901BF02F1030E4FF05D0CE3
S214004390815403F80EC016BF81541A1DDA1C97F814
S2140043A0703001317E2B317200F0C1807D2B05BF4D
S2140043B05D21A354A354931C14BF531CA95497F80F
S2140043C071207E2A00F0BD807D2A05BF5D21E25463
S2140043D0E2549A1C14BF5A1CE95497F872307E2B8C
S2140043E000F0B9807D2B05BF5D21A354A354931C18
S2140043F014BF531CA95497F873207E2A00F0B5808A
S2140044007D2A05BF5D21E254E254E9540CBF03F156
S214004410020803F101084EF23C57C1F6FF7700216F
S214004420C4F27A413868FCF7C9FDFCF78DFFC3B2C9
S2140044307E2B0D9000F0FE817D2B05BF5D2104F8DC
S214004440083004F8083005F8081014BF08F1010217
S21400445008F102029DF835307E2B00F0FA817D2BA4
S21400446005BF5D20A354A354A85414BF511C911C2F
S2140044709DF836307E2B00F0E6817D2B05BF5D2053
S21400448063546354685414BF4A1C8A1C9DF8373022
S2140044907E2B00F0C8817D2B05BF5D21A354A3545D
S2140044A0A9540CBF02F1020802F101080021C4F26F
S2140044B0C8217868FCF782FDFCF746FFC3B27E2B66
S2140044C0ADF8100000F0A6817D2B05BF5D2104F835
S2140044D0083004F8083005F8081014BF08F1010287
S2140044E008F102029DF811307E2B00F08D817D2BA5
S2140044F003BF5D21A354A954A3540CBF931C531CA3
S2140045007E22E2540133FEF79CBC02F1030E4FF00C
S2140045107D084FF05E0C00F8028003F80EC01A1DEE
S21400452097F8703001317E2B31727FF43FAF5E23F7
S2140045307D21A154AB54931C97F871207E2A7FF4FA
S21400454043AF5E227D21E154EA549A1C97F87230FC
S2140045507E2B7FF447AF5E237D21A154AB54931C82
S21400456097F873207E2A7FF44BAF7D215E22E154BC
S21400457003F10208EA544EE748F20003ADF81030A3
S21400458099E548F20003ADF81030CAE548F200019C
S214004590ADF8101020E57D225E23E255EB55BA1CDF
S2140045A0FEF7FEBDCCF1000C5FFA8CF37E2BADF867
S2140045B010C000F05E817D2B05BF4FF05D0963548F
S2140045C0635405F8019014BF01F1010C01F1020CCF
S2140045D09DF811307E2B00F042817D2B01BF5D21BE
S2140045E004F80C300CF1020905F80C101CBF04F896
S2140045F00C300CF10109FEF7F2BC7D235E21A354BA
S214004600931CA954FFF7F2BA7D225E2362546B54C2
S2140046108A1CFFF7DDBA7D215E23A154911CAB54A2
S214004620FFF7C8BA7D225E2362546B548A1CFFF7DC
S214004630B3BA7D225E232254811C2B54FFF79EBA08
S2140046407D235E21A354931CA954FFF7BFBB7D2294
S2140046505E2362546B548A1CFFF7AABB7D235E223E
S21400466063548B1C6A5449E47D215E23A154911C3B
S214004670AB54FFF78FBB7D225E2362546B548A1CBB
S214004680FFF77ABB7D225E232254811C2B54FFF752
S21400469065BB7D215E2004F8091009F1020105F8CA
S2140046A00900FEF7C8BC7D225E2362546B548A1C48
S2140046B01AE67D214FF05E0804F80C100CF102019A
S2140046C005F80C80FBE54FF07D0C5E2104F808C071
S2140046D005F8081008F1020CDDE54FF07D085E21B4
S2140046E004F80C800CF1020805F80C10B8E54FF041
S2140046F07D0C5E2104F809C005F8091009F1020CCA
S2140047009AE57D225E2362546B548A1CFEF748BDF0
S2140047107D215E23A154911CAB54FEF738BE7D224A
S2140047205E23E255EB55BA1CFEF723BE7D225E23C0
S21400473004F8092009F1020705F80930FEF701BE62
S2140047407D215E23A154971CAB54FEF7D9BD7D2274
S2140047505E23E255EB55BA1CFEF7C4BD7D215E23F1
S214004760A154971CAB54FEF7A5BD7D225E2304F82A
S214004770092005F8093009F10202FEF78DBD7D21FA
S2140047805E23A154971CAB54FEF766BD7D225E23C4
S214004790E255EB55BA1CFEF751BD7D215E23A154B0
S2140047A0971CAB54FEF732BD7D225E2304F8092029
S2140047B005F8093009F10202FEF71ABD7D215E23D5
S2140047C0A154971CAB54FEF7D3BC7D225E23E25562
S2140047D0EB55BA1CFEF7BEBC7D215E23A154971C88
S2140047E0AB54FEF79FBC7D225E2304F8092005F833
S2140047F0093009F10202FEF787BC7D205E2760546F
S214004800881C6F54FEF726BC7D235E21A354931CA0
S214004810A95475E67D225E2304F8082005F80830C2
S21400482008F102025EE67D215E23A15402F1020831
S214004830AB543BE67D225E2304F8082005F80830DA
S21400484008F1020206E67D225E2362546B548A1C3F
S2140048501CE67D215E23A154AB54911C08E67D2105
S2140048605E2304F80C100CF1020905F80C30FEF774
S214004870B6BB4FF07D0C5E2304F801C06B5401F10B
S214004880020CA5E60020814682468346102247F2A7
S2140048903053FEF71CBA00BF2DE9F0470446002649
S2140048A00846A4F88C649246FCF734FB01464FF0A9
S2140048B07E50FCF737FC8146C4F87C045046FCF773
S2140048C029FB01464846FCF779FB0146C4F88004FC
S2140048D0FCF774FB49F69A1800254FF07E534FF00C
S2140048E07A57C3F69968C4F87434C4F88404C4F8D4
S2140048F0888404F11400C4F87874C4F80C54C4F81E
S2140049001054C4F81454C4F81854C4F81C54C4F80A
S2140049102054C4F82854C4F82C54C4F83054C4F8AE
S2140049203454C4F83854C4F83C54C4F84054C4F85A
S2140049304454C4F84854C4F85054C4F85454C4F802
S2140049405854C4F85C54C4F86054C4F86454C4F8AA
S2140049506854C4F86C54C4F87054C4F84C34C4F8A2
S214004960243406F049FF04F1380009F077FC4BF2D6
S2140049700F51C3F69F1184F8646084F8656084F86C
S214004980666084F8676084F8686084F8696084F814
S2140049906A6084F86B6084F86C6084F86D6084F8F4
S2140049A06E6084F86F6084F8E46084F8E56084F8EC
S2140049B0E66084F8E76084F8E86084F8E96084F8E4
S2140049C0EA6084F8EB6084F8EC6084F8ED6084F8C4
S2140049D0EE6084F8EF6084F87C6084F87D6084F88C
S2140049E07E6084F87F6084F8806084F8816084F854
S2140049F0826084F8836084F8846084F88560D4F8E4
S214004A00840484F8866084F8876084F8706084F88C
S214004A10716084F8726084F8736084F8746084F857
S214004A20756084F8766084F8776084F8786084F837
S214004A30796084F87A6084F87B60FCF7BFFA4146B8
S214004A40FCF7BCFA4EF6D501C3F6D501FCF7AEF975
S214004A504EF22C53C1F6FF73C4F81401C4F8CC52BE
S214004A60C4F8D052C4F8D852C4F8DC52C4F8E052A5
S214004A70C4F8E452C4F8E852C4F8EC52C4F8F4524D
S214004A80C4F8F852C4F80053C4F80453C4F80853E2
S214004A90C4F80C53C4F81053C4F81453C4F81C5389
S214004AA0C4F82053C4F82853C4F82C53C4F8305321
S214004AB0C4F83853C4F83C53C4F84453C4F84853B5
S214004AC0C4F84C53C4F85053C4F85453C4F858535D
S214004AD0C4F86053C4F86453C4F86C53C4F87053F5
S214004AE0C4F87453C4F87853C4F87C53C4F880539D
S214004AF0C4F88853C4F88C53C4F89453C4F8985335
S214004B00C4F89C53C4F8A053C4F8A453C4F8A853DC
S214004B10C4F8AC53C4F8B053C4F8B453C4F8BC5388
S214004B20C4F8C053C4F8C453C4F8C853C4F8CC532C
S214004B30C4F8D053C4F8D453C4F8D853C4F8DC53DC
S214004B40C4F8E453C4F8E853C4F8EC53C4F8F0537C
S214004B50C4F8F453C4F8F8535879C4F8FC534BF22D
S214004B601772C3F6D1020328C4F8B823C4F8E023AA
S214004B70C4F8082498BF04224DF20A719CBF5A71EB
S214004B801A710023C3F6A34184F88E34C4F8005487
S214004B90C4F80454C4F84073C4F83453C4F8D45268
S214004BA0C4F86873C4F85C53C4F8FC52C4F8907335
S214004BB0C4F88453C4F82453C4F8C812C4F8F012D6
S214004BC0C4F81813BDE8F0872DE9F843044600261C
S214004BD01046A4F8346899468846FCF79BF90146C7
S214004BE04FF07E50FCF79EFA0746C4F82408484665
S214004BF0FCF790F901463846FCF7E0F90146C4F8A0
S214004C002808FCF7DBF949F69A1100230025CBF6B5
S214004C1080734FF07E52C3F699614FF07A57C4F80E
S214004C203018C4F82C08C4F81C7804F11400C4F832
S214004C302078C4F8B856C4F8BC56C4F8C056C4F8B1
S214004C40C456C4F8C856C4F8CC56C4F8D456C4F8EB
S214004C50D856C4F8DC56C4F8E056C4F8E456C4F88F
S214004C60E856C4F8EC56C4F8F056C4F8F456C4F83F
S214004C70F856C4F8FC56C4F80057C4F80857C4F8E9
S214004C800C57C4F81057C4F81457C4F81857C4F88B
S214004C901C57C4F82057C4F82457C4F82857C4F83B
S214004CA02C57C4F83057C4F83457C4F83C57C4F8E7
S214004CB04057C4F84457C4F84857C4F84C57C4F88B
S214004CC05057C4F85457C4F85857C4F85C57C4F83B
S214004CD06057C4F86457C4F86857C4F87057C4F8E7
S214004CE07457C4F87857C4F87C57C4F88057C4F88B
S214004CF08457C4F88857C4F88C57C4F89057C4F83B
S214004D009457C4F89857C4F89C57C4F8A457C4F8E6
S214004D10A857C4F8AC57C4F8B057C4F8B457C4F88A
S214004D20D437C4F8A037C4F86C37C4F83827C4F8AA
S214004D300427C4F8D026C4F8B857C4F8BC57C4F83B
S214004D40C057C4F8C457C4F8C857C4F8CC57C4F8FA
S214004D50D05706F051FD04F1380009F07FFA002321
S214004D6084F8646084F8656084F8666084F8676038
S214004D7084F8686084F8696084F86A6084F86B6018
S214004D8084F86C6084F86D6084F86E6084F86F60F8
S214004D9084F8946084F8956084F8966084F8976048
S214004DA084F8986084F8996084F89A6084F89B6028
S214004DB084F8A86084F8A76084F8A66084F8A560E4
S214004DC084F8A46084F8A36084F8A26084F8A160E4
S214004DD084F8A06084F89F6084F89E6084F89D60E4
S214004DE084F89C60C4F2482384F8A960C4F8B850DC
S214004DF084F87B6084F87A6084F8796084F8786058
S214004E0084F8776084F8766084F8756084F8746057
S214004E1084F8736084F8726084F8716084F8706057
S214004E2084F8876084F8866084F8856084F88460F7
S214004E3084F8836084F8826084F8816084F88060F7
S214004E4084F87F6084F87E6084F87D6084F87C60F7
S214004E5084F8AB6084F8AA60B8F1000F40F0758162
S214004E60C4F80851C4F80C51C4F804314BF20F5181
S214004E70D4F82C08C3F69F11FCF7A0F849F69A114F
S214004E80C3F699610546FCF799F84EF6D501C3F6C8
S214004E90D501FBF78BFF0021C4F24821C4F81001AE
S214004EA02846FCF78BF80021C4F24821FCF786F868
S214004EB049F69A11C3F69961FCF780F849F69A11FB
S214004EC0C3F61971FBF772FF4EF22C52C1F6FF7251
S214004ED04DF20A710023C3F6A341C4F87C34C4F82B
S214004EE08034C4F88834C4F88C34C4F89034C4F8D9
S214004EF09434C4F89834C4F89C34C4F8A034C4F885
S214004F00A434C4F8A834C4F8B034C4F8B434C4F82C
S214004F10BC34C4F8C034C4F8C434C4F8C834C4F8C4
S214004F20CC34C4F8D034C4F8D434C4F8D834C4F874
S214004F30DC34C4F8E434C4F8E834C4F81401C4F823
S214004F40F034C4F8F434C4F8F834C4F8FC34C4F8C4
S214004F500035C4F80435C4F80C35C4F81035C4F868
S214004F601835C4F81C35C4F82035C4F82435C4F800
S214004F702835C4F82C35C4F83035C4F83435C4F8B0
S214004F803835C4F84035C4F84435C4F84C35C4F850
S214004F905035C4F85435C4F85835C4F85C35C4F8F0
S214004FA06035C4F86435C4F86835C4F86C35C4F8A0
S214004FB07435C4F87835C4F88035C4F88435C4F838
S214004FC08835C4F88C35C4F89035C4F89435C4F8E0
S214004FD09835C4F89C35C4F8A035C4F8A435C4F890
S214004FE0A835C4F8AC35C4F8B435C4F8B835C4F838
S214004FF0BC35C4F8C035C4F8C435C4F8C835C4F8E0
S214005000CC35C4F8D035C4F8D435C4F8D835C4F88F
S214005010DC35C4F8E035C4F8E835C4F8EC35C4F837
S214005020F035C4F8F435C4F8F835C4F8FC35C4F8DF
S2140050300036C4F80436C4F80836C4F80C36C4F88B
S2140050401036C4F81436C4F81C36C4F82036C4F833
S2140050502436C4F82836C4F82C36C4F83036C4F8DB
S2140050603436C4F83836C4F83C36C4F84036C4F88B
S2140050704436C4F84836C4F85036C4F85436C4F833
S2140050805836C4F85C36C4F86036C4F86436C4F8DB
S2140050906836C4F86C36C4F87036C4F87436C4F88B
S2140050A07836C4F87C36C4F88436C4F88836C4F833
S2140050B08C36C4F89036C4F89436C4F89836C4F8DB
S2140050C09C36C4F8A036C4F8A436C4F8A836C4F88B
S2140050D0AC36C4F8B036C4F878145779C4F8083536
S2140050E0042FC4F88434C4F83C35C4F8B834C4F883
S2140050F07035C4F8EC3498BF05234BF2177549F6A3
S2140051009A109CBF5371137100234FF07A56C3F662
S214005110D105C3F6197084F83638C4F8AC14C4F850
S214005120E014C4F81465C4F84865C4F87C65C4F88F
S214005130B055C4F8E455C4F81856C4F84C06C4F87C
S2140051408006C4F8B406BDE8F883C4F80451C4F871
S2140051500C51C4F8083189E62DE9F04190F9145055
S21400516004460F4616466DB14DF20A73C3F6235336
S21400517047F20D4283600023C3F6DA420375C2602D
S214005180BDE8F08101F10800E2682146334608F0E8
S21400519097FE07F10C003346211DE268BDE8F0419A
S2140051A008F08EBEF0B5044690F9A00083B0154610
S2140051B000283AD104F164071831384604F188060D
S2140051C0002B43D0012B6ED007F0FEF9384631464F
S2140051D008F05EFA04F15407D4F89C20D4F898300E
S2140051E0019504F138053046294604F11406009767
S2140051F008F0D8FB2946304608F0E4FA284604F1C1
S214005200480108F06BFB04F10C0204F110038DE872
S2140052100C0030462146221D04F1080308F0A6F8CB
S2140052200023E360A36003B0F0BD4DF20A73C3F63B
S21400523023534CF6CC42C3F64C62C4F89830002395
S214005240C4F89C2084F8A03003B0F0BD07F09AF8AC
S2140052503846314608F01CFA04F15407D4F89C206E
S214005260D4F89830019504F138053046294604F103
S2140052701406009708F096FB2946304608F0A2FA76
S214005280284604F1480108F029FB04F10C0204F159
S21400529010038DE80C0030462146221D04F1080359
S2140052A007F078FFBCE707F0FDF83846314608F00F
S2140052B0EFF904F15407D4F89C20D4F898300195FF
S2140052C004F138053046294604F11406009708F024
S2140052D069FB2946304608F075FA284604F148016D
S2140052E008F0FCFA04F10C0204F110038DE80C003F
S2140052F030462146221D04F1080307F0C1FF8FE760
S214005300F0B5044690F9A00083B01546C8B14EF239
S2140053102C53C1F6FF734DF20A7048F688015A798D
S214005320C3F62350C3F68851C4F89800C4F89C10FE
S21400533012B901225A711A71002384F8A03003B002
S214005340F0BD04F164073031384604F188067BB3BB
S214005350012B5BD007F050FA3846314608F098F932
S21400536004F15407D4F89C20D4F89830019504F141
S21400537038053046294604F11406009708F012FB5B
S2140053802946304608F01EFA284604F1480108F07F
S214005390A5FA04F10C0204F110038DE80C00214676
S2140053A03046221D04F1080307F0E0FF03B0F0BD0D
S2140053B007F0B2F93846314608F06AF904F15407A6
S2140053C0D4F89C20D4F89830019504F1380530467E
S2140053D0294604F11406009708F0E4FA29463046F8
S2140053E008F0F0F9284604F1480108F077FA04F1CD
S2140053F00C0204F110038DE80C0021463046221DF5
S21400540004F1080307F0C6FE03B0F0BD07F0BCF9D0
S2140054103846314608F03CF904F15407D4F89C208D
S214005420D4F89830019504F138053046294604F141
S2140054301406009708F0B6FA2946304608F0C2F976
S214005440284604F1480108F049FA04F10C0204F178
S21400545010038DE80C0021463046221D04F1080397
S21400546007F00EFF6BE700BF2DE9F04F89B08B46C3
S21400547090F97C20BDF94810039306460291002A55
S21400548074D1DBF81430DBF80C00DBF81010F36591
S214005490029B7065002BC8BF9246B165C2BF5246DC
S2140054A006F1640706F1380840F3968002EB4202E4
S2140054B00BEB4209DBF81850746FB9F91C00FBF7C8
S2140054C029FD2946FBF77AFD2146FBF777FD059077
S2140054D0B9F91E00FBF71EFD2946FBF76FFD2146B6
S2140054E0FBF76CFD0690B9F92000FBF713FD0146AB
S2140054F02846FBF763FD01462046FBF75FFD4FF0AD
S2140055007E5205A90790384607F0FEFF394640460A
S21400551008F090FD0AF101035FFA83FA02994FFA48
S2140055208AF28A42C2DB404606F1140408F028FEDE
S2140055302046414608F046F9404606F1480108F084
S214005540CDF9039B9BB306F10C02012B06F1100369
S2140055508DE80C003146204606F1040206F10803E9
S21400556035D007F003FF09B0BDE8F08F4DF20A72A0
S2140055704DF20A73C3F6A332C3F62353426783671A
S214005580143006F039F906F1380008F067FE4EF2DE
S2140055902C53C1F6FF735A79012A9EBF02225A7114
S2140055A01A71002386F87C3009B0BDE8F08F06F14A
S2140055B00C0206F110038DE80C0031462046321D21
S2140055C006F1080307F0E6FD09B0BDE8F08F07F026
S2140055D057FE09B0BDE8F08F06F13808A3E700BF14
S2140055E02DE9F041044682B090F9A800BDF920608C
S2140055F017461D46E0B14EF22C53C1F6FF734DF22E
S2140056000A705A79022A98BF032248F68801C3F620
S2140056102350C3F688519CBF5A711A710023C4F8F0
S214005620A000C4F8A41084F8A83002B0BDE8F08149
S21400563004F16400002E43D0012E04F1980601F117
S214005640300207F118033146074604F188086FD088
S21400565007F016FC3846414608F01AF804F13807F9
S21400566004F1540ED4F8A420D4F8A030CDF800E00D
S2140056704046394604F11408019508F093F9394676
S214005680404608F09FF8384604F1480108F026F92D
S21400569004F10C0204F110038DE80C00404621468C
S2140056A0221D04F1080307F061FED4F8A42030465A
S2140056B02B4604F19C0102B0BDE8F04108F000BCA6
S2140056C004F1980601F1300207F1180304F1880886
S2140056D00746314607F0C8F83846414607F0D8FF77
S2140056E004F1380704F1540ED4F8A420D4F8A030FE
S2140056F0CDF800E04046394604F11408019508F05C
S21400570051F93946404608F05DF8384604F148013C
S21400571008F0E4F804F10C0204F110038DE80C0024
S21400572040462146221D04F1080307F033FDBCE77E
S21400573007F020FA3846414607F0AAFF04F138077A
S21400574004F1540ED4F8A420D4F8A030CDF800E02C
S2140057504046394604F11408019508F023F9394605
S214005760404608F02FF8384604F1480108F0B6F82D
S21400577004F10C0204F110038DE80C0040462146AB
S214005780221D04F1080307F07BFD8EE72DE9F04F9C
S2140057908846B3B090F98E14BDF9F070089383462E
S2140057A01646002940F0B686B0F98C34D3B9089C6A
S2140057B0002C00F0B986012C00F114040794204652
S2140057C008F10C0100F0BA8606F0FEFE0BF1380474
S2140057D021460798069407F05BFF0123ABF88C344C
S2140057E0069C05E000F11404079400F138040694C2
S2140057F0F068DBF86410FBF7D7FADBF86810CBF834
S21400580054003069FBF7D0FADBF86C10CBF8580080
S2140058107069FBF7C9FACBF85C0094E80F00002F1C
S2140058200BF1B804039484E80F0040F38B864FF026
S21400583000094B460BF1C804CDF808800A94C84608
S2140058409A46B14626460AEB4A0A09EB4A0AD9F8AE
S2140058501850BAF91C00DBF87C44FBF75BFB2946C2
S214005860FBF7ACFBDBF86410FBF79EFA2146FBF770
S214005870A5FB1190BAF91E00FBF74CFB2946FBF777
S2140058809DFBDBF86810FBF78FFA2146FBF796FBCB
S2140058901290BAF92000FBF73DFB01462846FBF7BD
S2140058A08DFBDBF86C10FBF77FFA01462046FBF712
S2140058B085FB11A913904FF07E52304607F024FE68
S2140058C00398314608F0B6FB08F1010C5FFA8CF835
S2140058D04FFA88FABA45B6DBDDF808800BF194007B
S2140058E0039907F06FFF089CD4F1010438BF002429
S2140058F00C94089C4FF6FD7323400C9C002C40F043
S214005900B885DBF89C40DBF8D80004F100444FF083
S2140059107C51CBF8FC40002B00F01986FBF74EFBC1
S214005920D8F80C10CBF80801FBF73EFA2146FBF737
S2140059303BFADBF8A840CBF8F00004F10044CBF8C3
S21400594000414FF07C51DBF8DC00FBF737FBD8F862
S2140059501010CBF80C01FBF727FA2146FBF724FAC8
S214005960DBF8B440CBF8F40004F100444FF07C516F
S214005970CBF80441DBF8E000FBF720FBD8F8141066
S214005980CBF81001FBF710FA2146FBF70DFACBF81F
S214005990F80020464FF63521C3F68E41FBF70EFB86
S2140059A04FF635210746CBF81004CBF68E41DBF8D0
S2140059B00001FBF703FB4FF635210646CBF814042F
S2140059C0C3F68E41DBF8FC00FBF7F8FADBF88054F0
S2140059D0CBF8380406F1004200F1004307F100411D
S2140059E005F10045CBF85424CBF858340446CBF8E0
S2140059F0301438462946FBF7E1FA29460746CBF825
S214005A001C043046FBF7DAFA29460646CBF8200493
S214005A102046FBF7D3FA06F100460BF5327407F181
S214005A20004700F1004335AACBF860640494CBF835
S214005A303C74CBF84404CBF8643426460DF1680970
S214005A4005920BF20C4ACDF808B0D046A9F10C0727
S214005A50002347F8043B002409E057F8040C2946C5
S214005A60FBF7A4F947F8040C0434242C29D0355944
S214005A7000212846FBF736FC00210028F4D158F810
S214005A8004B05846FBF72EFC4FF07E510028EBD1B1
S214005A905846FBF727FC0021CBF680710028DCD1A6
S214005AA05846FBF71FFC5946002800F08B8057F835
S214005AB0040C2946FBF778F90434242C47F8040C28
S214005AC0D5D1B94508F12408C2D1059C09F10C09C5
S214005AD0A14506F12406B8D1DDF808B00BF58164BF
S214005AE00B940B9BCDF834B00BF58C740022099404
S214005AF0059402929B46A14692464FFA8AF50BF110
S214005B00240817AB002403EB850549F8044B0C3535
S214005B105C460AE059F8040C3946FBF747F949F8A1
S214005B20040C444505F10C0528D054F8046F0021F8
S214005B303046FBF7D7FB00210028F2D155F80C7C45
S214005B403846FBF7CFFB4FF07E510028E9D13046B0
S214005B50FBF7C8FB0021CBF680710028DAD130466F
S214005B60FBF7C0FB394610B359F8040CFBF71CF9D9
S214005B70444549F8040C05F10C05D6D10AF1010A92
S214005B805FFA8AFA4FFA8AF5022DBADD029A531C9A
S214005B90DBB25DB20293059B032D03F12803059348
S214005BA01BD0A346DDF81490DDF808A0A5E7304624
S214005BB0FBF704FA014659F8040CFBF7F7F849F826
S214005BC0040CAEE72846FBF7F9F9014657F8040C33
