S01200004652444D5F4B4C34365A2E737265632F
S113000000600020397B0000B57B0000BD7B000050
S1130010BD7B0000BD7B0000BD7B0000BD7B0000FC
S1130020BD7B0000BD7B0000BD7B0000BD7B0000EC
S1130030BD7B0000BD7B0000BD7B0000BD7B0000DC
S1130040BD7B0000BD7B0000BD7B0000BD7B0000CC
S1130050BD7B0000BD7B0000BD7B0000BD7B0000BC
S1130060317E0000BD7B0000BD7B0000BD7B000035
S113007099860000BD7B0000BD7B0000BD7B0000B5
S1130080BD7B0000BD7B0000BD7B0000BD7B00008C
S1130090BD7B0000BD7B0000BD7B0000BD7B00007C
S11300A0BD7B0000BD7B0000BD7B0000BD7B00006C
S11300B0117E0000BD7B0000BD7B0000BD7B000005
S1130400FFFFFFFFFFFFFFFFFFFFFFFF7EFFFFFF79
S113041002B4714649084900095C49008E4402BC93
S11304207047C046002941D010B4041C4C40A44677
S113043001230022002900D54942002800D540426A
S113044088422CD301242407A14204D2814202D23F
S113045009011B01F8E7E400A14204D2814202D25F
S113046049005B00F8E7884201D3401A1A434C085C
S1130470A04202D3001B5C0822438C08A04202D392
S1130480001B9C082243CC08A04202D3001BDC08BA
S11304902243002803D01B0901D00909E3E7101CFB
S11304A06446002C00D5404210BC7047002806D09A
S11304B003DB0020C043400801E08020000607B4AD
S11304C0024802A14018029003BDC0461900000072
S11304D00029EBD003B5FFF7A7FF0EBC4243891AEE
S11304E01847C0467047C0468446101C62468C4676
S11304F0191C634600E0C0461FB50BF093FB0028AF
S113050001D40021C8421FBD10B50BF0E7FA4042E8
S1130510013010BD10B50BF085FB002801DB002075
S113052010BD012010BDC04610B50BF07BFB0028A8
S113053001DD002010BD012010BDC04610B50BF038
S11305400BFB002801DC002010BD012010BDC046BB
S113055010B50BF001FB002801DA002010BD0120CA
S113056010BDC0468446081C6146FFE71FB50AF06B
S11305700CFA002801D40021C8421FBD10B50AF0AE
S113058097F94042013010BD10B50AF0FEF9002879
S113059001DB002010BD012010BDC04610B50AF0DB
S11305A0F4F9002801DD002010BD012010BDC04673
S11305B010B50AF0A0F9002801DC002010BD0120CC
S11305C010BDC04610B50AF096F9002801DA0020E3
S11305D010BD012010BDC04603B471464908400057
S11305E04900095A49008E4403BC7047002934D09D
S11305F00123002210B488422CD301242407A142F1
S113060004D2814202D209011B01F8E7E400A142AD
S113061004D2814202D249005B00F8E7884201D348
S1130620401A1A434C08A04202D3001B5C08224320
S11306308C08A04202D3001B9C082243CC08A04291
S113064002D3001BDC082243002803D01B0901D07D
S11306500909E3E7101C10BC7047002801D00020F2
S1130660C04307B4024802A14018029003BDC0462B
S113067075FEFFFF0029F0D003B5FFF7B9FF0EBCEC
S11306804243891A1847C0461C2101231B0498427F
S113069001D3000C10391B0A984201D3000A08390F
S11306A01B09984201D30009043902A2105C4018C6
S11306B07047C0460403020201010101000000006A
S11306C00000000008B5054B054803331B1A062B30
S11306D003D9044B002B00D0984708BDA4E2FF1FA8
S11306E0A4E2FF1F000000000648074908B5091AE4
S11306F08910CB0F5918491003D0044B002B00D09C
S1130700984708BDA4E2FF1FA4E2FF1F00000000F9
S1130710084B10B51A781C1C002A09D1FFF7D2FF28
S1130720054B002B02D0054800E000BF01232370D5
S113073010BDC046A4E2FF1F000000005CC9000019
S113074008B5094B002B03D00848094900E000BF55
S113075008480368002B03D0074B002B00D09847B0
S1130760FFF7C2FF08BDC046000000005CC90000DE
S1130770A8E2FF1FA4E2FF1F000000007047C0466C
S1130780034B59691A8A52185A6101221A71704727
S113079070F5FF1F7047C046024B0122D9780A4307
S11307A0DA70704770F5FF1F024B0222D9780A43B2
S11307B0DA70704770F5FF1F7047C04638B5364C85
S11307C0237862781B029B18A2781B029B18E2789C
S11307D01B029B18314A934246D00DDC304A9342A7
S11307E028D017DC2F4A934228D02F4A93421AD19B
S11307F02E4B00225A7016E02D4A934238D029DD40
S11308002C4A934222D02C4A93420CD1274B0022EB
S11308101A7008E0294A934214D0294A934202D11B
S1130820224B03225A71274B211CD868042207F05B
S1130830C1FE38BD1D4B00225A71F4E71B4B012247
S11308405A70F0E7194B01225A71ECE7174B012259
S11308501A70E8E71C4A934206D01C4A9342E2D13C
S1130860124B00229A70DEE7104B01229A70DAE7ED
S11308700E4D0323164917486B7102F0B1FD16495A
S11308800123A0228B5415498B541549A8228B545B
S11308900023EB60C7E7C046E4E3FF1F2020395183
S11308A020203351202B4244202D424470F5FF1F59
S11308B020545352202B4756202D4756204D335158
S11308C0414D36511CE3FF1F2B4350522D435052D0
S11308D0B0E4FF1F58F1FF1F08F0FF1F0CE4FF1FD7
S11308E0ACF0FF1FF0B50378002B00D174E01A1CA4
S11308F0613AD2B2192A01D8203BDBB2303BDAB2DA
S11309002A2A5DD85A00541C4E4B0125995C4E4A44
S11309101C5D11704D4A11782940214311704278B1
S1130920002A00D187E0111C6139C9B2192901D804
S1130930203AD2B2303AD1B22A2944D85200541CB7
S1130940995C434A01251170424A1C5D1178294083
S1130950214311708278002A00D16EE0111C6139A4
S1130960C9B2192901D8203AD2B2303AD1B22A29CF
S11309702CD85200541C995C374A01251170374A0F
S11309801C5D1178294021431170C278002A56D089
S1130990111C6139C9B2192901D8203AD2B2303AAE
S11309A0D1B22A2915D85200501C995C2C4A012432
S11309B011702C4A1B5C117821400B431370F0BD5D
S11309C01D241C22A0E71D241C22B9E71D241C227F
S11309D0D1E71D201C22E8E70022234B51005D5C77
S11309E02248591800242C544D7801212D182F78B1
S11309F0561C0F402F70042EE1D076009F5D9E1987
S1130A0076783C5436183778951C0F403770042D8F
S1130A10D5D06D005E5D5B195B7834541B18187873
S1130A2008401870002ACAD10D4B1A700D4B1A7861
S1130A3011401970C3E70122CFE70222CDE7032258
S1130A40CBE7C046BCC4000045300540313005400A
S1130A5027300540283005405530054046300540D4
S1130A602A3005402B300540B0C40000203005403A
S1130A70FE21F8B58905041CFFF7A4FD002801D068
S1130A804748F8BD201C4749FFF788FD00286AD174
S1130A90211C201C09F0BEFF011CFE2080050AF069
S1130AA0A7F808F085F8011C201C09F013FE0021AA
S1130AB0041CFFF769FD002600284DD1FE21201CEF
S1130AC08905FFF775FD00284BD0FE20211C800509
S1130AD009F000FE0125041C201C3349FFF768FDC2
S1130AE0002842D0201C31490AF082F82F49071C03
S1130AF0201C09F08FFFFE21890509F087FC011CE9
S1130B00381C09F0E7FD041C211C09F083FF284967
S1130B10071C09F07FFF274909F078FC011C201C01
S1130B2009F078FF2449041C381C09F06FFC011CEF
S1130B30201C09F0CFFD214909F068FC011C002D9F
S1130B4003D017480AF054F8011C002E02D0802369
S1130B501B06C918081C94E780231B06E418012609
S1130B60ACE70025B8E716488BE7211C201C09F0E8
S1130B7051FF0F49071C09F04DFF0E4909F046FCCF
S1130B80011C201C09F046FF0B49041C381C09F009
S1130B903DFC011C201C09F09DFD011CCFE7C04653
S1130BA00000B442000080BFA330893E3ACD133F19
S1130BB00EB2C841EE49C142DCE7D73F0000F04124
S1130BC00000B4C2FE21F8B58905041CFFF7FAFC45
S1130BD0002801D00020F8BD201C9149FFF7DEFC5D
S1130BE0002873D1201C0021FFF7C8FC00286BD11A
S1130BF0201C0021FFF7DCFC002869D0211C201CEC
S1130C0009F008FF011CFE20800509F0F1FF07F040
S1130C10CFFF211C09F05EFD0021041CFFF7B4FC8A
S1130C200026002800D0F4E0FE21201C8905FFF7EF
S1130C30BFFC002800D1F1E0FE20211C800509F052
S1130C4049FD0125041C201C7649FFF7B1FC00284E
S1130C5000D1A3E0201C744909F0CAFF7249071CA3
S1130C60201C09F0D7FEFE21890509F0CFFB011CE9
S1130C70381C09F02FFD041C211C09F0CBFE6B4924
S1130C80071C09F0C7FE6A4909F0C0FB011C201CBF
S1130C9009F0C0FE6749041C381C09F0B7FB011CAD
S1130CA0201C09F017FD644909F0B0FB011C002D5C
S1130CB003D0624809F09CFF011C002E02D080235F
S1130CC01B06C918081C86E75C4884E75C4882E771
S1130CD0211C201C09F09EFE011CFE20800509F049
S1130CE087FF07F065FF211C09F0F4FC0021041CB8
S1130CF0FFF74AFC002600286AD1FE21201C890542
S1130D00FFF756FC002868D0FE20211C800509F05E
S1130D10E1FC0125041C201C4249FFF749FC002882
S1130D205DD0201C404909F063FF3F49071C201C8B
S1130D3009F070FEFE21890509F068FB011C381CCE
S1130D4009F0C8FC041C211C09F064FE3749071C87
S1130D5009F060FE364909F059FB011C201C09F01A
S1130D6059FE3449041C381C09F050FB011C201C9A
S1130D7009F0B0FC304909F049FB011C002D03D0F7
S1130D802E4809F035FF011C002E02D080231B06DB
S1130D90C918081C2A4909F039FB1CE7211C201C2E
S1130DA009F038FE2149071C09F034FE204909F0F6
S1130DB02DFB011C201C09F02DFE1E49041C381CAF
S1130DC009F024FB011C201C09F084FC011C6EE7C3
S1130DD080231B06E41801268FE700259BE7211CCE
S1130DE0201C09F017FE1149071C09F013FE1049D5
S1130DF009F00CFB011C201C09F00CFE0D49041C1D
S1130E00381C09F003FB011C201C09F063FC011CC5
S1130E10B4E780231B06E418012605E7002512E742
S1130E20000080BFA330893E3ACD133F0EB2C841C3
S1130E30EE49C142DCE7D73F0000F0410000B44274
S1130E4000003443F8B50021041CFFF79DFB002586
S1130E50002868D1FE21201C8905FFF7A9FB002882
S1130E6000D16CE0FE20211C800509F033FC012632
S1130E70041C201C3349FFF79BFB002839D0201C9D
S1130E80314909F0B5FE3049071C201C09F0C2FDA8
S1130E90FE21890509F0BAFA011C381C09F01AFC74
S1130EA0041C211C09F0B6FD2849071C09F0B2FDF9
S1130EB0274909F0ABFA011C201C09F0ABFD2549B8
S1130EC0041C381C09F0A2FA011C201C09F002FCC5
S1130ED0214909F09BFA011C002E03D01F4809F098
S1130EE087FE011C002D02D080231B06C918081C94
S1130EF0F8BD211C201C09F08DFD1449071C09F0C4
S1130F0089FD134909F082FA011C201C09F082FDB5
S1130F101049041C381C09F079FA011C201C09F042
S1130F20D9FB011CD8E780231B06E418FE21201CF2
S1130F3089050125FFF73CFB002800D092E7002635
S1130F4097E7C046A330893E3ACD133F0EB2C8415D
S1130F50EE49C142DCE7D73F0000F0410000B44253
S1130F60F8B5051C0C1C081C0021FFF707FB002822
S1130F7008D0281C0021FFF71BFB002800D1B4E097
S1130F80CC48F8BD201C0021FFF712FB002847D0F5
S1130F90211C281C09F09EFB0021041CFFF7F4FA15
S1130FA00026002800D0D9E0FE21201C8905FFF787
S1130FB0FFFA002800D1CFE0FE20211C800509F0B3
S1130FC089FB0125041C201CBB49FFF7F1FA00280A
S1130FD000D093E0211C201C09F01CFDB749071C1C
S1130FE009F018FDB64909F011FA011C201C09F09A
S1130FF011FDB449041C381C09F008FA011C201C1A
S113100009F068FB011C002D03D0AA4809F0F0FD8B
S1131010011C002E02D080231B06C918081CB0E74F
S1131020201C0021FFF7B0FA002800D0B5E0211CF5
S1131030281C09F04FFB0021041CFFF7A5FA002629
S1131040002800D010E1FE21201C8905FFF7B0FA2A
S1131050002800D106E1FE20211C800509F03AFB9E
S11310600125041C201C9449FFF7A2FA00287AD019
S1131070201C954909F0BCFD9349071C201C09F06C
S1131080C9FCFE21890509F0C1F9011C381C09F0CD
S113109021FB041C211C09F0BDFC8849071C09F034
S11310A0B9FC874909F0B2F9011C201C09F0B2FC13
S11310B08449041C381C09F0A9F9011C201C09F0FE
S11310C009FB824909F0A2F9011C002D03D07948DB
S11310D009F08EFD011C002E02D080231B06C918C6
S11310E0081C7B4909F084FD4BE7281C0021FFF70D
S11310F04BFA002800D0B3E0002042E7201C7249DC
S113110009F076FD7049071C201C09F083FCFE21C0
S1131110890509F07BF9011C381C09F0DBFA041C71
S1131120211C09F077FC6549071C09F073FC64492C
S113113009F06CF9011C201C09F06CFC6149041CC9
S1131140381C09F063F9011C201C09F0C3FA5F493B
S113115009F05CF9011C56E7002534E780231B06DF
S1131160E418012620E7211C201C09F053FC5349F4
S1131170071C09F04FFC524909F048F9011C201CD6
S113118009F048FC4F49041C381C09F03FF9011CC4
S1131190201C09F09FFA011C97E7281C0021FFF787
S11311A007FA002800D142E7211C281C09F092FA12
S11311B00021041CFFF7E8F90026002873D1FE2162
S11311C0201C8905FFF7F4F9002871D0FE20211CAA
S11311D0800509F07FFA0125041C201C3649FFF71D
S11311E0E7F9002845D0201C374909F001FD3649AC
S11311F0071C201C09F00EFCFE21890509F006F9E4
S1131200011C381C09F066FA041C211C09F002FCBC
S11312102A49071C09F0FEFB294909F0F7F8011CCB
S1131220201C09F0F7FB2749041C381C09F0EEF8D0
S1131230011C201C09F04EFA244909F0E7F8011CAE
S1131240002D03D01B4809F0D3FC011C002E02D052
S113125080231B06C918081C1D4909F0D7F890E61D
S11312601C488EE60025FDE680231B06E4180126B3
S1131270E9E6211C201C09F0CDFB1049071C09F0EC
S1131280C9FB0F4909F0C2F8011C201C09F0C2FB7C
S11312900C49041C381C09F0B9F8011C201C09F085
S11312A019FA011CCCE780231B06E418012686E703
S11312B0002592E70000B442A330893E0EB2C84133
S11312C0EE49C142DCE7D73F3ACD133F0000F0417D
S11312D0000034430000B4C2F0B5474680B4002196
S11312E084B00E22041C06F097FF304F10233B708D
S11312F02F4D00237B70EB7801229343EB70022285
S1131300201C391C012306F0A5FE012202AE9046E2
S113131003E0EB7842461A4208D1201C311C06F047
S1131320B3FF3388002BF4D000203AE0201C694638
S113133006F0D4FF6A461378012BF7D111223A70D4
S113134090227A70EA78201C9A43EA70391C0222AF
S1131350012306F07FFE0122EB781A42FCD0201C08
S1131360694606F0BBFF6A461378012BF7D11022B9
S11313703A7009227A70EA78201C9A43EA70391C80
S11313800222012306F066FE0122EB781A42FCD009
S1131390201C694606F0A2FF6A461378012BF7D198
S11313A0012040B204B004BC9046F0BD54E3FF1FDA
S11313B070F5FF1FF0B5474680B4002184B01D22AC
S11313C0041C06F029FF304F2A233B702F4D0023C5
S11313D07B70EB7801229343EB700222201C391CB2
S11313E0012306F037FE012202AE904603E0EB78BB
S11313F042461A4208D1201C311C06F045FF3388AE
S1131400002BF4D0002039E0201C694606F066FF6A
S11314106A461378012BF7D10E227B703A70EA7872
S1131420201C9A43EA70391C0222012306F012FEA2
S11314300122EB781A42FCD0201C694606F04EFFCC
S11314406A461378012BF7D12A223A7021227A7046
S1131450EA78201C9A43EA70391C0222012306F020
S1131460F9FD0122EB781A42FCD0201C694606F0F3
S113147035FF6A461378012BF7D1012040B204B03E
S113148004BC9046F0BDC04654E3FF1F70F5FF1F37
S1131490F0B50E2283B00F1C0021051C06F0BCFE23
S11314A0284E0123284C3370E278281C9A43E270BA
S11314B0311C0122002306F0CDFD0122E3781A42FB
S11314C0FCD0E37802229343E3700622281C311CEB
S11314D0012306F02FFE0222E3781A42FCD06C4668
S11314E00734281C211C06F0F9FE2378012BF8D1BF
S11314F031787378090219433980B278F37812028B
S11315001A437A80337970791B0203430F4809B276
S1131510BB80814212D00D4912B28A420BD00B4AD1
S11315201BB2934201D10A4BBB800A4B7B620A4B2C
S1131530BB6203B0F0BD064A7A80F0E70449398003
S1131540E9E7C04654E3FF1F70F5FF1F0080FFFF6B
S11315500180FFFFCDCCCC3D00002041F0B51D2221
S113156083B00F1C0021051C06F056FE274E0123F4
S1131570274C3370E278281C9A43E270311C012214
S1131580002306F067FD0122E3781A42FCD0E378D9
S113159002229343E3700622281C311C012306F027
S11315A0C9FD0222E3781A42FCD06C460734281C99
S11315B0211C06F093FE2378012BF8D1317873783F
S11315C0090219433980B278F37812021A437A80F7
S11315D0337970791B0203430E4809B2BB80814200
S11315E011D00C4912B28A420AD00A4A1BB2934261
S11315F001D1094BBB80E4239B057B6103B0F0BDA3
S1131600054A7A80F1E704493980EAE754E3FF1F89
S113161070F5FF1F0080FFFF0180FFFFF0B55F46FC
S11316204D4656464446F0B4E64F7E23E64D3B70A5
S113163001237B702B7A91B002907E2B00D133E290
S1131640BB7003227D2B00D11DE3297D01332B7256
S11316507E2900D133E27D2900D12AE3531CB954F9
S1131660697D7E2900D134E27D2900D11BE35A1C17
S1131670F954A97D7E2900D135E27D2900D10CE3FE
S1131680531CB954EA7D7E2A00D136E27D2A00D16A
S1131690FDE2591CFA54CD4B1A787E2A00D137E268
S11316A07D2A01D100F09AFF481C7A5459787E298A
S11316B000D137E27D2901D100F09EFF421C39544C
S11316C098787E2800D137E27D2801D100F08DFF83
S11316D0511CB854D8787E2800D137E27D2801D136
S11316E001F005F84A1C785418797E2800D137E2B5
S11316F07D2801D100F0F4FF511CB8545B797E2B96
S113170000D137E27D2B01D100F0E3FF4A1C7B546A
S1131710AF4B98797E2800D137E27D2801D100F0C3
S1131720D1FF511CB854D8797E2800D137E27D28E6
S113173001D100F0C0FF4A1C7854187A7E2800D1E9
S113174037E27D2801D100F0AFFF511CB854587A1C
S11317507E2800D137E27D2801D100F09EFF4A1C8B
S11317607854987A7E2800D137E27D2801D100F0A0
S11317708DFF511CB854DB7A7E2B00D137E27D2BD0
S113178001D100F0F0FF4A1C7B540023684600217D
S113179003827E2900D137E27D2901D100F0DBFFED
S11317A0531CBA1811706A46517C7E2900D136E266
S11317B07D2901D100F0C8FF5A1CF9546B46197CED
S11317C07E2900D136E27D2901D100F0B6FF531CF9
S11317D0B9546E46717C7E2900D136E27D2901D14F
S11317E000F0A4FF5A1CF9546846017C7E2900D1FC
S11317F036E27D2901D100F092FF531CB9546946A9
S11318004A7C7E2A00D136E27D2A01D100F07FFF96
S1131810581C8046FA54002369460EACA3806380AA
S113182023800B850B840B830B866B79012B01D1F1
S113183000F06CFE002B01D100F000FE032B00D160
S113184044E2102163480091002600220021B146A1
S11318509246834601915B466A461382DBB27E2B35
S113186000D1A8E242467D2B01D100F047FF41465A
S113187001327B546B46597C7E2900D1AAE27D2932
S113188001D100F0D5FE531CB95450466A46C1B28A
S113189010827E2900D1AAE27D2901D100F0C1FE87
S11318A05A1CF9546B46597C7E2900D1AAE27D2941
S11318B001D100F0AFFE531CB95448466A46C1B288
S11318C010827E2900D1AAE27D2901D100F09BFE7D
S11318D05A1CF9546B46597C7E2900D1AAE27D2911
S11318E001D100F0BAFE531CB9546A46F0B2168214
S11318F07E2800D1AAE27D2801D100F0A7FE5A1C5F
S1131900F8546E46737C7E2B00D1AAE27D2B01D164
S113191000F095FE511CBB5400987A1810707B1C83
S1131920082058547E2090706A78CB1C002A01D07D
S113193000F092FC2A78002A00D0BBE3AA78002A9F
S113194000D0DAE27E22FA5406217A1CD154297A94
S1131950981C7E2900D1B6E27D2900D1C7E2DA1CA9
S113196039541D4C1D4B01312972E15C7E2900D193
S1131970A2E27D2900D1B4E2531CB954184AA25CF6
S11319807E2A00D190E27D2A00D1A3E2591C894627
S1131990FA54144A1449966B9046301CFEF708FE1C
S11319A0002800D064E2301C104909F033F809F033
S11319B089FA6E4680B23082C0B27E2800D15EE2DF
S11319C016E0C04664E3FF1F70F5FF1FF4E3FF1F3A
S11319D088F5FF1F30750000B0E4FF1F560B0000B0
S11319E0570B000058F1FF1F33CB4C45000020413A
S11319F07D2801D100F040FE4B464946013378541E
S1131A0069464A7C7E2A00D146E27D2A01D100F053
S1131A102BFE581C8146FA54EE88B1B20B1C0A3BCB
S1131A209BB218B28B460C219A46FEF7FBFC0C21A4
S1131A3080B249424143514489B233B28A46092BA8
S1131A400EDD0BB25A009446634401B2DB005B180E
S1131A50B133FF339B00E358013301D101F036F871
S1131A6069460E82F6B27E2E01D100F0DAFC4B46B6
S1131A707D2E01D101F00EF84A460133BE546E4664
S1131A80727C7E2A01D100F054FC7D2A01D100F041
S1131A90FAFF5E1CFA54EB88092B01D900F054FCC0
S1131AA0874A9B00D3589F467D22297DBA70013313
S1131AB05E22FA702B7204227E2900D0CBE57D23AE
S1131AC0791C5E20BB548854697D931C7E2900D008
S1131AD0CAE57D22791C5E20FA54C854A97D9A1C5B
S1131AE07E2900D0C9E57D23791C5E20BB5488542F
S1131AF0931CEA7D7E2A00D0C8E57D22FA545E203C
S1131B007A1CD054991C6F4B1A787E2A00D0C7E5F2
S1131B107D227A545E247A1C5454881C59787E2978
S1131B2000D0C7E57D22791C5E243A540C54821CF3
S1131B3098787E2800D0C7E57D21781C5E24B954AE
S1131B408454D878911C7E2800D0C7E57D22781C67
S1131B505E247A54445418798A1C7E2800D0C7E540
S1131B607D21781C5E24B95484545B79911C7E2BAE
S1131B7000D0C7E57D237B545E207B1C5854524B18
S1131B808A1C98797E2800D0C7E57D21781C5E24C4
S1131B90B9548454D879911C7E2800D0C7E57D229D
S1131BA0781C5E247A544454187A8A1C7E2800D007
S1131BB0C7E57D21781C5E24B9548454587A911C5D
S1131BC07E2800D0C7E57D22781C5E247A544454D4
S1131BD0987A8A1C7E2800D0C7E57D21781C5E2473
S1131BE0B9548454DB7A911C7E2B00D0C7E57D2345
S1131BF07B545E207B1C58548A1C002368460021B9
S1131C0003827E2900D0C7E57D23791C5E20BB5466
S1131C108854931C6A46517C7E2900D0C8E57D22F5
S1131C20791C5E20FA54C8549A1C6B46197C7E2990
S1131C3000D0C8E57D23791C5E20BB546E468854D1
S1131C40717C931C7E2900D0C8E57D22791C5E201E
S1131C50FA54C8546846017C9A1C7E2900D0C8E511
S1131C607D23791C5E20BB5488546946931C4A7CAE
S1131C707E2A00D0C8E57D22FA549A1C90465E2143
S1131C807A1CD154C7E55D22FA700422DDE4FA54CB
S1131C905D207A1C991CD054FDE4B9545D20791C54
S1131CA0931C8854EEE4F9545D20791C9A1CC854A2
S1131CB0DFE4B9545D20791C931C8854D0E4C046F9
S1131CC020C50000F4E3FF1F88F5FF1FE5498A469D
S1131CD00B1C8A6BCE6B086C496C81460391586D62
S1131CE0E149934608F096FE09F0ECF85246DE49C5
S1131CF02080906D08F08EFE09F0E4F85346DA492E
S1131D006080D86D08F086FE09F0DCF85146A080AA
S1131D100868D64908F07EFE09F0D4F853466A46AE
S1131D201083D249586808F075FE09F0CBF8524682
S1131D3069460884D068CD4908F06CFE09F0C2F801
S1131D406B46188551469C23C858C84908F062FE62
S1131D5009F0B8F8524680B201901421106EFEF7D3
S1131D6061FB6B461886C249584608F053FE09F0D9
S1131D70A9F880B2BE498346301C08F04BFE09F036
S1131D80A1F880B2BA498246484608F043FE09F0F9
S1131D9099F880B2B6498146039808F03BFE09F0F1
S1131DA091F85B4686B26A46122000901382DBB239
S1131DB07E2B00D056E57D2341467B547B1C181CAA
S1131DC05E21404401706B46597C424602327E29B2
S1131DD000D054E57D23781C5E21BB5481545046C9
S1131DE0931CC1B26A4610827E2900D054E57D223C
S1131DF05E21781CFA54C1549A1C6B46597C7E2986
S1131E0000D054E57D23781C5E21BB5481544846A0
S1131E10931CC1B26A4610827E2900D054E57D220B
S1131E205E21781CFA54C1549A1C6B46597C7E2955
S1131E3000D054E57D23781C5E21BB548154931C4F
S1131E40F0B26A4616827E2800D054E57D22791CC1
S1131E505E20FA546E46C8549A1C737C7E2B00D0C4
S1131E6054E57D23BB545E207B1C911C985453E5A0
S1131E7080486E463082C0B27E2800D0B8E57D230B
S1131E8048467A1C5E213B54115469464A7C4B46B1
S1131E9002337E2A00D0B8E57D22FA549A1C91467A
S1131EA05E217A1CD154B7E57D22FA549E1C7A1C1B
S1131EB05E21B146D1546CE57D23791C5E20BB5470
S1131EC0931C88545AE57D223A545E24F81C1A1D4A
S1131ED0C45446E5FA54981C7A1C5D218146D154B9
S1131EE057E5B9545D20791C931C885446E5395450
S1131EF05D24F81C1A1DC45433E57E22FA540421CF
S1131F007A1CD154297A981C7E2973D07D2900D15A
S1131F10B8E0DA1C395401312972297D7E2974D044
S1131F207D2900D1A8E0531CB954697D7E2975D060
S1131F307D2900D1B2E05A1CF954A97D7E2976D0BE
S1131F407D2900D1A4E0531CB954EA7D7E2A77D0C0
S1131F507D2A00D1A8E0591CFA546E46337E7E2BAC
S1131F6078D07D2B01D100F080FD4A1C7B546B4658
S1131F7019331B787E2B01D100F0DBFD7D2B01D1C1
S1131F8000F033FE511CBB5408A803787E2B01D10A
S1131F9000F0C7FD7D2B01D100F020FE4A1C7B54CC
S1131FA06B4621331B787E2B01D100F0B2FD7D2BD3
S1131FB001D100F028FE511CBB540AAA13787E2BD1
S1131FC001D100F09EFD7D2B01D100F015FE4A1CCD
S1131FD07B546B4629331B787E2B01D100F0B1FD75
S1131FE07D2B01D100F016FE511CBB547E224B1CEC
S1131FF07A54A7E47D223A545E24F81CC454013177
S11320002972297D1A1D7E298AD17D23791C5E209F
S1132010BB548854697D931C7E2989D17D22791C07
S11320205E20FA54C854A97D9A1C7E2988D17D2348
S1132030791C5E20BB548854931CEA7D7E2A87D188
S11320407D22FA545E207A1CD0546E46991C337E4D
S11320507E2B86D17D237B545E207B1C8A1C5854A6
S113206085E7C046ACF0FF1F0000A04100002041FE
S11320700060EA46FF7F0000B9545D20791C931C80
S1132080885452E739545D24F81C1A1DC45442E79D
S1132090B9545D20791C931C885456E7F9545D208B
S11320A0791C9A1CC85448E7FA545D207A1C991C80
S11320B0D05452E77E22FA5403217A1CD154297A4F
S11320C0981C7E2974D07D2900D1ADE0DA1C3954E6
S11320D001312972297D7E2975D07D2900D19DE0A9
S11320E0531CB954697D7E2976D07D2900D1A7E09F
S11320F05A1CF954A97D7E2977D07D2900D199E015
S1132100531CB954EA7D7E2A78D07D2A00D19DE003
S1132110591CFA5423787E2B79D07D2B01D100F001
S11321209DFC4A1C7B546B4639331B787E2B01D1B2
S113213000F037FD7D2B01D100F03BFD511CBB5459
S11321406B463A331B787E2B01D100F022FD7D2BA8
S113215001D100F03CFD4A1C7B546B463B331B7899
S11321607E2B01D100F00DFD7D2B01D100F028FD67
S1132170511CBB540FAB1B787E2B01D100F0F9FC32
S11321807D2B01D100F05BFD4A1C7B546B463D3333
S11321901B787E2B01D100F0E4FC7D2B01D100F0F3
S11321A047FD511CBB547E224B1C7A54FFF7C6FBDF
S11321B07D223A545E26F81CC65401312972297DC9
S11321C01A1D7E2989D17D23791C5E20BB54885435
S11321D0697D931C7E2988D17D22791C5E20FA5466
S11321E0C854A97D9A1C7E2987D17D23791C5E2041
S11321F0BB548854931CEA7D7E2A86D17D22FA54EE
S11322005E207A1CD054991C23787E2B85D17D23A3
S11322107B545E207B1C8A1C585484E7B9545D208F
S1132220791C931C88545DE739545D26F81C1A1DEB
S1132230C6544DE7B9545D20791C931C885461E75A
S1132240F9545D20791C9A1CC85453E7FA545D2054
S11322507A1C991CD0545DE7F85402223B1D5A5451
S11322602B7A481D7E2B33D07D2B56D08A1D3B54B0
S113227001332B72D2235B006E46D9B233827E299E
S11322803ED07D2943D0531CB9546846427C7E2AF3
S113229025D07D2A47D0591CFA540CAA13787E2BDA
S11322A027D07D2B00D1E7E34A1C7B546B463133A6
S11322B01B787E2B01D100F04CFC7D2B01D100F06A
S11322C0B0FC511CBB547E224B1C7A54FFF732FBEA
S11322D07D223A54BE1D5E20CA1D7054C8E77D227B
S11322E0FA545E207A1CD0540CAA991C13787E2BC5
S11322F0D7D17D237B545E207B1C8A1C5854D5E7A0
S11323007D23791C5E20BB54931C8854BDE7B954CB
S11323105D20791C931C8854B7E73B54BE1D5D2097
S1132320CA1D7054A4E7FA545D207A1C991CD05439
S1132330B3E77D22FA54791C5E22CA549E1CEB88B2
S1132340092B01D8FFF7ACFB534619B24A0000929F
S1132350521800B2D2001218520012191378914682
S11323607E2B01D100F0AAFC7D2B01D100F0C5FD2C
S1132370721C9046BB554E4672787E2A01D100F0FD
S113238090FC7D2A01D100F0ACFD0123994646461C
S1132390C144BA55009B5A18D20012182132FF3298
S11323A052001219904612787E2A01D100F06BFC7B
S11323B07D2A01D100F08CFD0126B2464B46CA4469
S11323C0FA54464672787E2A01D100F050FC7D2AE8
S11323D001D100F073FD0126B4465346D444FA54A7
S11323E0009E7318DB001B18902080001B185B00F4
S11323F0E41823787E2B01D100F02FFC7D2B01D132
S113240000F053FD614662460131BB5463787E2B74
S113241000D008E27D237B545E207B1C8A1C585428
S113242006E27E1CB4467D234A466146BB545E26C2
S11324304B46494402330E70FFF721FBCD498A46CF
S11324400B1C8A6BCE6B086C496C81460191586DEC
S1132450C949934608F0DEFA08F034FD5246C649ED
S11324602080906D08F0D6FA08F02CFD5346C2493E
S11324706080D86D08F0CEFA08F024FD5146A080A3
S11324800868BE4908F0C6FA08F01CFD53466A46BF
S11324901083BA49586808F0BDFA08F013FD524693
S11324A069460884D068B54908F0B4FA08F00AFD12
S11324B06B4651461885086E1421FDF7B3FF6A4632
S11324C01086AF49584608F0A5FA08F0FBFC80B224
S11324D0AB498346301C08F09DFA08F0F3FC80B247
S11324E0A7498246484608F095FA08F0EBFC80B20A
S11324F0A3498146019808F08DFA08F0E3FC112302
S113250086B2002000930190FFF7A5F99D498A4601
S11325100B1C8A6BCE6B086C496C81460191586D1B
S11325209549934608F076FA08F0CCFC5246924955
S11325302080906D08F06EFA08F0C4FC53468E4972
S11325406080D86D08F066FA08F0BCFC5146A080A3
S113255008688A4908F05EFA08F0B4FC53466A46F3
S113256010838649586808F055FA08F0ABFC5246C7
S113257069460884D068814908F04CFA08F0A2FC46
S11325806B4651461885086E1421FDF74BFF6A46C9
S113259010867B49584608F03DFA08F093FC80B257
S11325A077498346301C08F035FA08F08BFC80B27A
S11325B073498246484608F02DFA08F083FC80B23D
S11325C06F498146019808F025FA08F07BFC162330
S11325D086B2002000930190FFF73DF97A545D2400
S11325E07A1C881C5454FFF761F8B8545D24781C95
S11325F0911C8454FFF76EF839545D24791C821CB5
S11326000C54FFF75DF8F954781C5D219A1CC154F1
S1132610FFF760F9B954781C5D21931C8154FFF7CE
S11326204CF9F954781C5D219A1CC154FFF73AF90E
S1132630B954781C5D21931C8154FFF726F9BB54CF
S11326405D207B1C911C9854FFF766F9F854791CA3
S11326505D209A1CC854FFF754F9B954781C5D21C5
S1132660931C8154FFF741F9FA549E1C7A1C5D2196
S1132670B146D154FFF7D0F94A46B8544B467A1CB8
S11326805D214E4602339155FFF7BAF9B8545D24E3
S1132690781C911C8454FFF76EF878545D24781CE0
S11326A08A1C4454FFF75DF8B8545D24781C911CCF
S11326B08454FFF74CF878545D24781C8A1C4454E5
S11326C0FFF73BF8B8545D24781C911C8454FFF741
S11326D02AF87B545D207B1C8A1C5854FFF718F899
S11326E0B8545D24781C911C8454FFF707F878547F
S11326F05D24781C8A1C4454FEF7F6FFBB547B1CF3
S1132700181C5D21404402320170FFF7B3F8FA54FB
S11327109E1C7A1C5D21B046D154FFF77CF8B95455
S11327205D20791C931C8854FFF769F8F9545D20E7
S1132730791C9A1CC854FFF757F8B9545D20791CCA
S1132740931C8854FFF745F8F9545D20791C9A1CB2
S1132750C854FFF733F8BB1819705D20791C931C1B
S11327608854FFF720F87B545D207B1C8A1C585446
S1132770FFF70BF808F0FF1F0000A0410000204104
S11327800060EA460CE4FF1F41460869CD4908F0A1
S113279041F908F097FB6A46C3B210827E2B00D140
S11327A054E27D2B00D125E3721CBB556E46737C2D
S11327B07E2B00D117E37D2B00D127E3541CBB549F
S11327C041464869BF4908F025F908F07BFB6A4691
S11327D0C3B210827E2B00D1FEE27D2B00D10FE329
S11327E0621C3B556E46737C7E2B00D1EDE27D2B43
S11327F000D123E3541CBB544146086AB14908F094
S113280009F908F05FFB6A46C3B210827E2B00D13F
S11328104AE17D2B00D14EE1611C3B556E46737C31
S11328207E2B00D1F6E57D2B00D1D7E04A1C7B54EA
S1132830EB882A2101339BB218B2FF31884200DDB4
S11328400023EB807E23BB54013292B20298391CE0
S113285005F0E2FE11B03CBC90469946A246AB4658
S1132860F0BD4146C868974908F0D4F808F02AFB3F
S11328706A46C3B210827E2B00D19FE27D2B00D129
S1132880D6E2721CBB556E46737C7E2B00D18EE261
S11328907D2B00D1C6E2541CBB544146C86989490A
S11328A008F0B8F808F00EFB6A46C3B210827E2B1B
S11328B000D175E27D2B00D1AEE2621C3B556E4621
S11328C0737C7E2B00D164E27D2B00D1E7E2541CA3
S11328D0BB544146C86A91E7414608687A4908F002
S11328E099F808F0EFFA6A46C3B210827E2B00D141
S11328F048E27D2B00D1CCE2721CBB556E46737C42
S11329007E2B00D137E27D2B00D1BCE2541CBB549A
S1132910414648686C4908F07DF808F0D3FA6A46E5
S1132920C3B210827E2B00D11EE27D2B00D1A4E223
S1132930621C3B556E46737C7E2B00D10DE27D2BD1
S113294000D194E2541CBB54414688685E4956E762
S11329500023684603827E2B00D1F7E17D2B00D152
S11329607EE2721CBE19337069464B7C7E2B00D10B
S1132970E5E17D2B00D16DE2541CBB544246106B43
S1132980514908F047F808F09DFA6B461882C3B223
S11329907E2B00D1CCE17D2B00D155E2611C3B554F
S11329A06E46737C7E2B00D1BBE17D2B00D1D1E23E
S11329B04A1C7B54019E6846F3B206827E2B00D1EA
S11329C0A8E17D2B00D1BFE2511CBB546846437C77
S11329D07E2B00D11EE57D2B00D027E77B545D20A4
S11329E07B1C8A1C585423E70023684603827E2BF1
S11329F000D188E17D2B00D19FE2711CBE19337098
S1132A006A46537C7E2B00D176E17D2B00D18EE289
S1132A104A1C7B546E46337C7E2B00D165E17D2BB2
S1132A2000D17EE2511CBB546846437C7E2B00D10E
S1132A3054E17D2B00D16EE24A1C7B5469460B7C29
S1132A407E2B00D143E17D2B00D15EE2511CBB54AF
S1132A506A46537C7E2B00D0E5E6DBE47B545D20A4
S1132A607B1C8A1C5854FFF75EFB7B545D207B1C47
S1132A708A1C5854FFF77BFA7B545D207B1C8A1C0C
S1132A805854FFF713FCFA54791C5D229E1CCA5457
S1132A90FFF701F8FE547E1CB44661465D264944A6
S1132AA002330E70FEF7EBFF7D233B555E227B1C49
S1132AB0A11C1A55B2E63B555D227B1CA11C1A557C
S1132AC0ACE6C04600007A44000020415E467342F2
S1132AD069460B82DBB27E2B00D149E27D2B00D10B
S1132AE051E249464A460131BB546E46737C7E2B03
S1132AF000D135E27D2B00D14FE24E1C7B54FEF712
S1132B00CAFF7D237B545E207B1C8A1C5854FFF72C
S1132B1060FA7D23BB545E207B1C911C9854FFF704
S1132B204CFA7D237B545E207B1C8A1C5854FFF78F
S1132B3037FA7D23BB545E207B1C911C9854FFF70D
S1132B4023FA7D23BB545E207B1C911C9854FFF711
S1132B504DFA7D23BB545E207B1C911C9854FFF7D7
S1132B60B2FB7D23BB545E207B1C911C9854FFF761
S1132B701AFB7D237B545E207B1C8A1C5854FFF770
S1132B8005FB7D23BB545E207B1C911C9854FFF7EE
S1132B90F1FA7D237B545E207B1C8A1C5854FFF77A
S1132BA0DCFA7D23BB545E207B1C911C9854FFF7F8
S1132BB0C7FABB545D207B1C911C9854FFF7C0FAE4
S1132BC0BB545D207B1C911C9854FFF7D3FA7B54B3
S1132BD05D207B1C8A1C5854FFF7BFFA7B545D2090
S1132BE07B1C8A1C5854FFF7DBF9BB545D207B1C0B
S1132BF0911C9854FFF7C8F97B545D207B1C8A1CF8
S1132C005854FFF7E6F9BB545D207B1C911C985483
S1132C10FFF7D3F9BB545D207B1C911C9854FFF73C
S1132C20E5F9BB545D207B1C911C9854FFF74BFBCA
S1132C30BB545D207B1C911C9854FFF7B4FA7B5461
S1132C405D207B1C8A1C5854FFF7A0FA7D23BB55DA
S1132C505E217B1CB21C9955A8E57D2360463B543C
S1132C6061467B1C5E2202311A54FFF7CFFB7D22A2
S1132C7053460226FA54B4467A1C5E235646D4447C
S1132C809355FFF7ADFB7D224E46BA55022292467C
S1132C907B1CCA449B465E265A464A441670FFF77C
S1132CA090FB7D224346FA547A1C0226131CB1463B
S1132CB043445E26C1441E70FFF76CFB7D22B31CA7
S1132CC0BA5598467A1C5E239355FFF754FB7D232F
S1132CD0BB545E207B1C911C9854B9E67D237B5425
S1132CE05E207B1C8A1C5854A8E67D23BB545E20BE
S1132CF07B1C911C985497E67D237B545E207B1C9F
S1132D008A1C585486E67D23BB555E227B1CB11C6D
S1132D109A5575E67D23BB545E207B1C911C985408
S1132D2054E67D237B545E207B1C8A1C585441E668
S1132D307D233B555E227B1CA11C1A5530E67D2366
S1132D40BB545E217B1C941C995417E67D23BB5510
S1132D505E217B1CB21C995506E67D23BB545E2183
S1132D607B1C941C9954EFE57D233B555E217B1C11
S1132D70A21C1955DEE57D23BB545E217B1C941CEB
S1132D809954C5E57D23BB555E217B1CB21C995526
S1132D90B4E57D23BB545E217B1C941C995498E5B7
S1132DA07D233B555E217B1CA21C195587E57D23A1
S1132DB0BB545E217B1C941C99546EE57D23BB554A
S1132DC05E217B1CB21C99555DE57D23BB545E21BD
S1132DD07B1C941C99540FE57D233B555E217B1C81
S1132DE0A21C1955FEE47D23BB545E217B1C941C5C
S1132DF09954E5E4BB555D217B1CB21C9955D5E47F
S1132E003B555D217B1CA21C1955EBE4BB545D2191
S1132E107B1C941C9954D3E43B555D217B1CA21C60
S1132E2019554CE5BB545D217B1C941C995434E525
S1132E30BB555D217B1CB21C995524E5BB545D2117
S1132E407B1C941C9954D7E43B555D227B1CA11C2C
S1132E501A55A5E5BB545D217B1C941C99548DE542
S1132E60BA1913705D217B1CB21C99557CE5BB54C7
S1132E705D217B1C941C995466E53B555D217B1CAC
S1132E80A21C195556E5BB545D217B1C941C995416
S1132E903EE5BB555D217B1CB21C99552EE5BB5408
S1132EA05D217B1C941C995413E56646BB55614611
S1132EB07B1C5D2202319A55FFF7A8FA5646BA5593
S1132EC0022294465D237A1CD4449355FFF788FA72
S1132ED04E46BA55022292467B1CCA449B465D2646
S1132EE0DAE64646BA557B1C022291461A1C5D2638
S1132EF04244C1441670FFF74DFAB21CBB559046CC
S1132F007B1C5D229A55FFF736FABB545D207B1C6F
S1132F10911C98549CE57B545D207B1C8A1C58545E
S1132F208CE5BB545D207B1C911C98547CE57B5440
S1132F305D207B1C8A1C58546CE5BA1913707B1CE9
S1132F405D22B11C9A555BE5BB545D207B1C911C32
S1132F5098543BE57B545D207B1C8A1C585429E51E
S1132F607D237B547A1C5E238E1C5354FEF793FD01
S1132F707D234E467A1CBB55131C49465E264B44A2
S1132F8002311E70B1E54E467A1CBB55131C4946EE
S1132F905D264B4402311E70A7E57B547A1C5D23E9
S1132FA08E1C5354FEF777FDF0B5041CA020255663
S1132FB083B0161C002D35D1251C64350831281C1E
S1132FC0002B38D0012B63D0271C883703F018F866
S1132FD0281C391C03F098FF9C23211CE2582C3D2B
S1132FE0543101969823261CE3580091381C291C5F
S1132FF0143604F015F9301C291C04F025F8211CA2
S11330004831281C04F0B0F8211C0C31231C009119
S113301004310191221D0833301C211C03F0B6FE3B
S113302003B0F0BD314A9823E250314A9C23E25068
S113303000232354F4E7271C883702F0B1FE281C30
S1133040391C03F061FF9C23211CE2582C3D01969E
S11330505431261C9823E3580091381C291C14363B
S113306004F0DEF8301C291C03F0EEFF211C281CA0
S1133070483104F079F8211C0C31231C00910431EF
S11330800191221D0833301C211C03F093FDC7E776
S1133090271C883702F01AFF281C391C03F034FF60
S11330A09C23211CE2582C3D01965431261C982364
S11330B0E3580091381C291C143604F0B1F8301C74
S11330C0291C03F0C1FF211C281C483104F04CF8D2
S11330D0211C0C31231C009104310191221D083361
S11330E0301C211C03F0DCFD9AE7C0460AD7233DBF
S11330F0CCCC4C3EF0B5041CA020255683B0161C45
S1133100002D35D1251C64351831281C002B38D0EE
S1133110012B63D0271C883703F096F8281C391C30
S113312003F0F2FE9C23211CE2582C3D54310196FD
S11331309823261CE3580091381C291C143604F0EB
S11331406FF8301C291C03F07FFF211C4831281C18
S113315004F00AF8211C0C31231C00910431019164
S1133160221D0833301C211C03F010FE03B0F0BDF7
S1133170314A9823E250314A9C23E25000232354DD
S1133180F4E7271C883702F0F3FF281C391C03F0EE
S1133190BBFE9C23211CE2582C3D01965431261C75
S11331A09823E3580091381C291C143604F038F88D
S11331B0301C291C03F048FF211C281C483103F053
S11331C0D3FF211C0C31231C009104310191221DD9
S11331D00833301C211C03F0EDFCC7E7271C88379B
S11331E002F0FCFF281C391C03F08EFE9C23211CDA
S11331F0E2582C3D01965431261C9823E358009143
S1133200381C291C143604F00BF8301C291C03F05C
S11332101BFF211C281C483103F0A6FF211C0C3184
S1133220231C009104310191221D0833301C211C00
S113323003F036FD9AE7C0460AD7233DCCCC4C3E7A
S1133240F0B5474680B482B0041C08A81D1C0023B6
S1133250C65EA8202756002F46D1002E4DD0012E41
S113326000D181E01831261C271C8C466437131CBE
S1133270983662460833381C311C03F013FB381CA3
S11332802437391C03F040FEA423211CE258381CC7
S11332905431503FA023E35800910195391C03F0A9
S11332A0BFFF14231B19181C391C984603F0CCFECD
S11332B0211C381C483103F057FF231C0C330093A6
S11332C004330193221D4046211C083B03F05EFD9C
S11332D0A423211CE2589C31301C2B1C04F016FA48
S11332E002B004BC9046F0BD3B4AA023E2503B4AE6
S11332F0A423E25000232354F2E7261C1831271C90
S11333008C4664379836131C08336246381C311CCB
S113331002F0D0FF381C2437391C03F0F5FDA42338
S1133320211CE258381C5431503FA023E35800912B
S11333300195391C03F074FF14231B19181C391C44
S1133340984603F081FE211C381C483103F00CFF21
S1133350231C0C33009304330193221D4046211C8B
S1133360083B03F027FCB3E7261C1831271C8C46C6
S113337064379836131C08336246381C311C03F03A
S113338015F9381C2437391C03F0BEFDA423211C75
S1133390E258381C5431503FA023E3580091019562
S11333A0391C03F03DFF14231B19181C391C9846C3
S11333B003F04AFE211C381C483103F0D5FE231CBF
S11333C00C33009304330193221D4046211C083B17
S11333D003F066FC7CE7C0460AD7233D8888883D15
S11333E0F8B5041C0C300F1C01F0E8FF0023A360A7
S11333F063602360224B234A2363234B902563633A
S1133400224BED00A3630023A354214AA354214A71
S11334100024BB52D823DB00FE1801213019494295
S11334206022603409F03AF8AC42F6D11A4AB42367
S11334301B01FA52194BAD225242FA52184B642224
S11334405242FA52174B39225242FA52164B1A225E
S11334505242FA52154B0022FA52154B1A22FA52D2
S1133460144B3922FA52B52364221B01FA52124B2F
S1133470AD22FA52114B7622FF32FA52F8BDC04601
S1133480000048421504000000401C4600007A4435
S113349014040000560B00008BFEFFFF420B0000DB
S11334A0440B0000460B0000480B00004A0B0000D0
S11334B04C0B00004E0B0000520B0000540B00009C
S11334C0F0B55F4656464D464446F0B40F1C098895
S11334D089B0041C161C1D1C002900D1DDE008B2B3
S11334E080460221785E6422414650439146FCF7AF
S11334F099FF80B282460421785E4A465043414691
S1133500FCF790FFB422120183B2A15E504602B2CE
S1133510914200DDB1E1A448205E904200DDB0E1BB
S1133520A248205E904200DDB5E1A148205E9042B1
S113353000DDAEE19F48205E904200DD9BE19E48A5
S1133540205E904200DDACE19C48205E904200DDAC
S1133550AFE19B48205E904200DDACE1B520000164
S1133560205E904200DD9EE19648205E904200DDA0
S1133570A9E19548205E904200DDA2E10B221BB236
S1133580994200DD7FE18849615E994200DD76E180
S11335908649615E994200DD77E18549615E994221
S11335A000DD74E18349615E994200DD75E1824981
S11335B0615E994200DD72E18049615E994200DDFD
S11335C07BE17F49615E994200DD6EE1B52109012D
S11335D0615E994200DD6AE17A49615E994200DDEB
S11335E06DE17949605ED917C70F834279410A3189
S11335F04046002800DA87E0744FE35B03931BB274
S1133600F02B00D166E0EF2B47DC53009A18D20070
S113361049B251188800D8222018D20083580133A7
S113362042D033884900049377881BB298468B466E
S113363063189021890006973FB2BC468A465F5EB4
S11336406146C91BCF17C91979405F468946395F5E
S11336504746791ACF17C919794049440191B1886D
S11336609027059109B20791FF00DF5F0799C91BF5
S1133670CF17C91979408946019989444F46312F9A
S113368000DD7AE0049F59460F53748851465C521A
S1133690B4889026F6009C53855009B03CBC9046F3
S11336A09946A246AB46F0BD338849000B5309192D
S11336B0902389469B00718898464B464344198061
S11336C0B6889023DB004946CE52039B85500133D4
S11336D0E353E2E753009A18D20049B251188A0022
S11336E0D823A218DB00D758308849000853013783
S11336F00DD070886418902189006052B0889021A0
S1133700C9006052D550C8E70C31C9B274E7778854
S11337109020611880000F52B6889020C0000E528D
S1133720D820C00000198446E046D5500020002669
S11337300027A446424600231168A94204DA4C1C1F
S113374002D01E1C071C0D1C0133DBB20432182BE3
S1133750F2D101306021C0B288440C28EAD17FB292
S11337607B00DB1976B2DB009B19B133FF330122F6
S113377064469B0052421A518FE79020002600278E
S11337800023C000029601979B46079F8146664628
S11337900795584659464500C9B25D448C460023F6
S11337A00022ED00009632E0420B0000440B0000C2
S11337B0460B0000480B00004A0B00004C0B0000B5
S11337C04E0B0000520B0000540B0000560B00007F
S11337D05100085F62184146081AC61780197040E4
S11337E05646915F009E0133711ACE1789197140B4
S11337F04E464118905FDBB2381AC2178018504009
S11338000918312900DC48E75AB2182A0FD0D82009
S1133810AA1840001118890009590131D8D15A1C3D
S11338200293D3B2624601925AB2182AEFD101230D
S11338309B445846009E0C28ABD10199029B4AB286
S113384059B253009B18DB005B18049E5A00902168
S1133850069F16538900A218575205989021B13338
S1133860079DC900FF3350529B00039A1D51174B0B
S11338700132E25211E7042281E600227FE60121AF
S1133880B6E601227BE60021B2E60221B0E603217E
S1133890AEE6032273E6022271E60421A8E60521BE
S11338A0A6E605226BE6082269E60721A0E60821C0
S11338B09EE6062263E6072261E6062198E60921D0
S11338C096E60A225BE6092259E6C046560B00003A
S11338D0F0B55F4656464D464446F0B40C1C8BB0DA
S11338E0051C0968C06807F083F961688046286987
S11338F007F07EF9A168071C686907F079F9AB6ADB
S1133900061CE1684046994607F084F8216982461E
S1133910381C07F07FF801900199504606F076FDB7
S113392061698346301C07F075F802900299584685
S113393006F06CFD494607F06DF807F0C3FAA1697B
S1133940E880404607F066F8E1690390381C07F008
S113395061F804900499039806F058FD216A83469F
S1133960301C07F057F805900599584606F04EFDAF
S1133970494607F04FF807F0A5FA2881616A4046E6
S113398007F048F8A16A8346381C07F043F8011C85
S1133990584606F03BFDE16A8346301C07F03AF8CE
S11339A0011C584606F032FD494607F033F807F08B
S11339B089FA01996881504606F028FD029906F0BB
S11339C025FD0499A861039806F020FD059906F0E9
S11339D01DFD616AE861404607F01CF8A16A804653
S11339E0381C07F017F8011C404606F00FFDE16A89
S11339F0071C301C07F00EF8011C381C06F006FDED
S1133A0028620BB03CBC90469946A246AB46F0BD3A
S1133A10F0B556464D4644465F46F0B49BB0041C90
S1133A200E91506AA0490F9206F054FE0690201C95
S1133A30483001F0C3FC9D49002665180021B00000
S1133A40F3B2801929605AB2400082182E329200D3
S1133A500133A218DBB251605AB2032AF5DD0136F4
S1133A600435042EEBD1522600236E4415AA33806C
S1133A70002613800B960A96E4210E9EBA22C900F2
S1133A8012017118B2180C960026099605960026A4
S1133A9008910D920796089B0C9A984660235B4206
S1133AA098449246C146E4E05146099E0020085ECF
S1133AB033B2C01A07F026FA902189000B1C534434
S1133AC00B9E071C0022985E33B2C01A07F01AFA44
S1133AD09021C9000B1C53440A99061C0022985ECD
S1133AE00BB2C01A07F00EFA051C391C069806F032
S1133AF091FFF722071C9200A050391C06F08AFFA0
S1133B00FA239B00E050311C0290069806F082FFD5
S1133B10F821061C89006050311C06F07BFFFB2253
S1133B209200A050291C0390069806F073FFF92315
S1133B309B00051CE050291C06F06CFFFC21890049
S1133B40605004900399029806F060FC049906F012
S1133B505DFC8046414606F05DFF011C079806F0B7
S1133B6055FC391C0790404606F054FF4F4A011C8F
S1133B70A05806F04BFC4D4B311CE050404606F07B
S1133B8049FF8122D200011CA05806F03FFC48499D
S1133B908123DB00E0508B464046291C06F03AFFA7
S1133BA05A46011CA05806F031FC5B46E0508223C3
S1133BB0DB00E05841469B4606F028FCBC225946EF
S1133BC06050A0580299904606F020FC4146C0225D
S1133BD06050311C381C904606F01CFF4346011C03
S1133BE0E05806F013FC4146C4226050381C291CDE
S1133BF0904606F00FFF4346011CE05806F006FC11
S1133C004146C8226050A058391C904606F0FEFB7D
S1133C1041466050E827E059039906F0F7FB291C58
S1133C20E051301C06F0F6FEEC27011CE05906F0CA
S1133C30EDFBE051F027E059311C06F0E7FB8A2642
S1133C407600E051A059049906F0E0FBA0518C26BF
S1133C507600A059291C06F0D9FB059BA05101331D
S1133C609BB205930422089E022391449A44B145D1
S1133C7020D0494609680131F4D0059E002E00D0B9
S1133C8012E79022D200131C53441B889026B600DE
S1133C900A93331C534451461B88098800250B930F
S1133CA009912E1C2F1C20E7000048420404000048
S1133CB00C0400004E46603608960C9E0D99303672
S1133CC00C96089E8E4200D0E5E6099914AE318028
S1133CD052220B9E6A4416800A9E15A90E80059EE8
S1133CE0002730B207F00EF9A0235B00E0500599DD
S1133CF0FC4B0E9EBC25F15293239B009846BE00BC
S1133D00F619F9B276004BB2B1469E004A46B44663
S1133D109818634480005B002018DB1942599B000B
S1133D200131E3184646C9B25A519A514BB28251F5
S1133D30032BEADD0137042FE1D1932189009D2271
S1133D4063189200A7261693B600A318B1211793FF
S1133D508900A319189363181993009716A811A939
S1133D6012AA13AB01F0DCFE8123DB00E358DE4A28
S1133D708221C900A2589946615893239B00101CC4
S1133D808B46E158904606F045FE002106F03EFBC6
S1133D9094239B00E158051C484606F03BFE011C99
S1133DA0281C06F033FBD14E9523A6599B00E158FD
S1133DB0051C301C06F02EFE011C281C06F026FBF8
S1133DC096239B00E158051C584606F023FE011C6F
S1133DD0281C06F01BFBF7239B00E0509D239B004F
S1133DE0071CE158404606F015FE002106F00EFBC4
S1133DF09E239B00E158051C484606F00BFE011C5F
S1133E00281C06F003FB9F239B00E158051C301C73
S1133E1006F000FE011C281C06F0F8FAA0239B0003
S1133E20E158051C584606F0F5FD011C281C06F057
S1133E30EDFAF8239B00E050A7239B00E158B2461B
S1133E40061C404606F0E6FD002106F0DFFAA82332
S1133E509B00E158051C484606F0DCFD011C281CAB
S1133E6006F0D4FAA9239B00E158051C504606F03D
S1133E70D1FD011C281C06F0C9FAAA239B00E158B5
S1133E80051C584606F0C6FD011C281C06F0BEFAA7
S1133E90F9239B00E050B1239B00051CE1584046E8
S1133EA006F0B8FD002106F0B1FAB2239B00E158F8
S1133EB00290484606F0AEFD011C029806F0A6FAF0
S1133EC0B3239B00E1580290504606F0A3FD011C69
S1133ED0029806F09BFAB4239B00E15802905846DE
S1133EE006F098FD011C029806F090FAFA239B0054
S1133EF0E05002904146381C06F08CFD002106F08B
S1133F0085FA49468046301C06F084FD414606F099
S1133F107DFA51468046281C06F07CFD414606F099
S1133F2075FA59468046029806F074FD011C404615
S1133F3006F06CFA011C06F069FA011C079806F0F9
S1133F4057FEBC23E1580390381C06F063FD0021A2
S1133F5006F05CFAC023E1588046301C06F05AFD96
S1133F60011C404606F052FAC423E1588046281C3E
S1133F7006F050FD011C404606F048FAC823E158FB
S1133F808046029806F046FD011C404606F03EFAC3
S1133F90554AE423A0508146E158381C06F03AFD06
S1133FA0002106F033FAE823E1588046301C06F07D
S1133FB031FD011C404606F029FAEC23E158804605
S1133FC0281C06F027FD011C404606F01FFAF023CA
S1133FD0E1588046029806F01DFD011C404606F09B
S1133FE015FA8123DB00E05086235B00E15882460A
S1133FF0381C06F00FFD002106F008FA88235B0048
S1134000E1588046301C06F005FD011C404606F0D0
S1134010FDF98A235B00E1588046281C06F0FAFC6F
S1134020011C404606F0F2F98C235B00E1588046FF
S1134030029806F0EFFC011C404606F0E7F92B4914
S11340409A235B0060508346E158381C06F0E2FC7A
S1134050002106F0DBF99C235B00E1588046301C0C
S113406006F0D8FC011C404606F0D0F99E235B0004
S1134070E1588046281C06F0CDFC011C404606F0A1
S1134080C5F9A0235B00E1588046029806F0C2FC03
S1134090011C404606F0BAF98222D200A0508046A4
S11340A0391C484606F0B6FC011C039806F0AEF92C
S11340B0311C8146504606F0ADFC494606F0A6F98F
S11340C0291C8146584606F0A5FC494606F09EF98F
S11340D002998146404606F09DFC494606F096F951
S11340E006E0C046560B0000040400000C04000067
S11340F0FC2180468905381C06F08CFCFC21071C39
S1134100E0638905301C06F085FCFC21061C206454
S11341108905281C06F07EFC391C051C6064381CCB
S113412006F078FC029906F071F9311C071C301C6A
S113413006F070FC011C381C06F068F9291C061CEA
S1134140281C06F067FC011C301C06F05FF904F023
S11341502FFD314B0E9EE066F05E06F0D3FE011C8F
S1134160404606F0B7FA04F023FD2C4906F052FC51
S1134170E76E051C391C381C06F048F9011C381C74
S113418006F048FC011C281C06F0A4FA2449206708
S1134190E06B06F03FFC0F9E14A9756A061C002014
S11341A0085E06F0AFFE291C06F034FC011C301C2E
S11341B006F02CF91A49E063206C06F02BFC52221D
S11341C06A44061C0020105E06F09CFE291C06F0C2
S11341D021FC011C301C06F019F911492064606CA3
S11341E006F018FC15AB061C0020185E06F08AFECB
S11341F0291C06F00FFC011C301C06F007F90849C5
S11342006064381C06F006FCE0661BB03CBC9046BB
S11342109946A246AB46F0BD560B00000000C842CA
S113422000004842F0B55F464D4656464446F0B459
S113423093B083460C91506A6E490E9206F04AFA86
S1134240422100236944069010AA11A803800B8020
S11342501380002100205D468C00CBB264185AB252
S11342606400A2182E3292000133AA18DBB2506007
S11342705AB2062AF5DD01310729EDD110AB1B88AE
S1134280422409936C442488AB460B9411AD2D88C9
S11342900C9C0A95E425ED0065190795BA252D01B6
S11342A065190F95F7250D94AD00002405942C1C79
S11342B05C4408945E46079C0D9D603C0395049401
S11342C0049D2D68013500D1B6E0059C039D002CAA
S11342D000D171E2099C0020285E23B2C01A06F0C6
S11342E011FE039D071C902080002B180B9C0021BD
S11342F0585E23B2C01A06F005FE039C051C9020EC
S1134300C00023180A9C0021585E23B2C01A06F08C
S1134310F9FD041C391C069806F07CFB071CFA20E6
S113432080003750391C381C06F074FBF7218900D3
S113433082467050291C069806F06CFBFB22920002
S1134340051CB050291C06F065FBF8239B00F050B7
S11343508146211C069806F05DFB041CFC208000AD
S11343603450211C201C06F055FBF921D42289006D
S113437080467050B058514606F048F8D423F050A7
S1134380FC217058494606F041F8FC229223B050B3
S11343905B00F0584146994606F038F84B46F05019
S11343A0A6235B00F058391C984606F02FF8BA276C
S11343B0414670507F00F059291C06F027F8CE259D
S11343C0F0516D007059211C06F020F8089A002362
S11343D0705193469A46BC275A4612685146554630
S11343E0CCB29146111CAA005244520063B29046CA
S11343F007E0C046000048421A1CF6329200B21888
S1134400516843449B004846F51806F003FB011C21
S1134410E85905F0FBFF0134E4B263B2E851052B1F
S1134420EADD0124A24404255046AB440628D3D136
S1134430059B01339BB20593039D049C02350395B0
S1134440079D04340494AC4200D039E760340794E7
S11344500D9C079D30340D940F9CA54200D02AE793
S1134460099C10AD2C800B9C42256D442C800A9C29
S113447011AD2C80059DB34628B206F043FDE2231E
S11344805B00F050059D0C9CDB4BBC20E5529A254B
S1134490AE2486266D00640001228446E42776005B
S11344A0A946A24653B299005C4660186546C918ED
S11344B04559C9005944BC246550012B00D197E1EA
S11344C0C459C0256C50022B00D191E18459C425F4
S11344D06C50032B00D18BE14D464559C8246550DF
S11344E0042B00D184E155464059C8314860062B5D
S11344F000D07DE1CC204000031CDE215B44490058
S11345005A680B1C5B445A6093239B001A1C584640
S1134510BC3008995A44072301F0C2F8F7239B00E2
S11345205C46E558F8239B00E458291C201CFCF742
S11345302BF8061C731E9E41002800D12C1CF92365
S11345409B005846C558211C281CFCF71DF802275F
S1134550002800D1371C281C211CFFB2FCF714F8DA
S1134560002800D1251CFA239B005946CC58291C4D
S1134570201CFCF709F80326002800D13E1C201C4F
S1134580291CF6B2FCF700F8002800D12C1CFB23F0
S11345909B005A46D558211C281CFBF7F5FF04271D
S11345A0002800D1371C281C211CFFB2FBF7ECFFAC
S11345B0002800D1251CFC239B005C46E658291CDE
S11345C0301CFBF7E1FF331C002800D12B1C181C06
S11345D0FD239B005A46D158FBF7EAFF0624002826
S11345E008D1301C291CFBF7CFFF0524002800D17B
S11345F03C1C64B25E467436301C002100F0ECFEB4
S1134600A40093235C449B00E7585B465F67B12397
S11346109B00BF21E058090606F0FCF9391C06F09E
S113462059F85D469D23E8639B00E558584684236A
S1134630C550291C381C06F0EDF9BB239B00BF2193
S113464080460906E05806F0E5F9291C06F042F810
S11346505946A72308649B00E7589423CF50381C7D
S1134660414606F0D7F9C5239B00BF21051C090666
S1134670E05806F0CFF9391C06F02CF85A4650647D
S11346800021281CFBF780FF002800D0A4E0CF23E2
S11346909B00E7585A46D26B5B46596F101C9046F4
S11346A006F0B8F9011C404606F0B4F9391C06F0CE
S11346B09FFA80465846076C84235A46D158381CC2
S11346C006F0A8F9011C381C06F0A4F9011C4046A8
S11346D005F09CFE5B465F6C5A469423D158804695
S11346E0381C06F097F9011C381C06F093F9414672
S11346F005F08CFEF7239B000C99E4583E4B071CF5
S1134700C85E06F0FFFB64006408011C201C05F071
S1134710E1FF7C0004F04CFA6408384906F07AF9A9
S1134720211C05F0D7FF5A4610673549281C04F0B0
S1134730A3F8011C301C00F059FE201C04F038FAC8
S11347403049071C281C04F097F82C49041C381C19
S113475006F060F9211C06F05DF95B46D866584600
S1134760483000F02BFE351C5E463C360024296898
S11347704800400804F01CFA2B1C2C3B18601F490D
S1134780306806F047F910AA071C105F06F0BAFB60
S11347900E9B0234596A06F03DF9011C381C05F0E1
S11347A035FE103501C6062CE1D113B03CBC904651
S11347B09946A246AB46F0BD9020C0002B181B883A
S11347C0902189002C880A936B181B880994002473
S11347D00B93251C271C9DE5301C00F037FECF23CE
S11347E09B00E058802109064718E7506D1851E7EF
S11347F00132D2B256E6C046560B000000004842D1
S1134800ABAAAABEABAA2ABEF0B55F464D46564631
S11348104446F0B499B083461291506A8A4914927E
S113482005F058FF5A21002369440A9016AA17A8D4
S113483003800B801380002100205D468C00CBB2E6
S113484064185AB26400A2182E3292000133AA18D6
S1134850DBB250605AB2092AF5DD01310A29EDD1E3
S113486016AB1B885A240F936C442488AB461194CE
S113487017AD2D88129C1095E425ED0065190D9552
S1134880BA252D0165191595F7251394AD0000245B
S113489009942C1C5C440E940D9C139D603C07945D
S11348A00695079D5C462D68013500D1EEE0099D13
S11348B0002D01D100F05EFC069D0020285E0F9DB6
S11348C02BB2C01A06F01EFB069D071C9020800028
S11348D02B18119D0021585E2BB2C01A06F012FB52
S11348E09021051C0698C900431810990022985E6F
S11348F00BB2C01A06F006FB061C391C0A9806F017
S113490089F8FD218900804660500A99281C06F028
S113491081F8FE229200051CA050311C0A9806F072
S113492079F8FF239B008346E0504146404606F059
S113493071F8F7218900605008904146404605F01F
S113494065FD291C061C06F065F8F8229200A050AB
S113495081465946301C06F05DF8F9239B00E0506F
S1134960291C0B90281C06F055F8071CFA2080001F
S11349702750291C281C05F049FD594606F04AF821
S1134980FB218900061C60505946584606F042F83F
S1134990FC23E0229B00A158E0500C90089892461A
S11349A005F034FD514684235B006050E1584846CD
S11349B09A4605F02BFD52469823A0505B00E1581F
S11349C00B98994605F022FD4B46E050AC235B0062
S11349D0E158381C994605F019FDC0274946605036
S11349E07F00E159301C05F011FDD426E05176001A
S11349F0A1590C9805F00AFDA051E8267600A059AB
S1134A00414605F003FDA051FC267600291CA0595F
S1134A1005F0FCFC8825AD00A0515946605905F00D
S1134A20F5FC0E9A0023605193469A46BC275246E1
S1134A305146D5B25B468A001B68524452009946DF
S1134A40181C90466BB206E0000048421A1CF6326D
S1134A509200A218506843449B004946E61805F0AA
S1134A60D9FF011CF05905F0D1FC0135EDB26BB250
S1134A70F051082BEADD0125AA4404205146834461
S1134A800929D4D1099B01339BB20993079D0D9841
S1134A9004350795069D02350695079D854200D08D
S1134AA001E7A346139C603530341394159C0D958F
S1134AB0A54200D0F0E60F9C16AD2C80119C5A251F
S1134AC06D442C80109C17AD2C80099DBC2728B206
S1134AD006F018FA92239B005946C850099DA04B32
S1134AE0129C0120E552AE235B009846C2235B0072
S1134AF09946D6235B00E4269A4643B29A005C4664
S1134B00A118D218D200CC595A44BC25AC50012B60
S1134B1000D141E38C59C025AC50022B00D13BE3BA
S1134B2086256D004D59C424A550032B00D133E3D1
S1134B309A256D004D59C824A550042B00D12BE3B0
S1134B4045464D59CC24A550052B00D124E34D46B0
S1134B504D59D024A550062B00D11DE355464D597F
S1134B60D424A550072B00D116E3EA256D0049593A
S1134B70D4325160092B00D00EE387208000031C3F
S1134B8090215C4693255B448900BC34AD005A688F
S1134B900A940B1C2C1C5C445B445A600A98221C2B
S1134BA00E990A23069400F07BFDF7239B005D46D3
S1134BB0EC58F8239B00ED58201C291CFBF7F8FC4B
S1134BC0061C731E9E41002800D1251CF9239B005E
S1134BD05846C458291C201CFBF7D6FC0227002881
S1134BE000D1371C201C291CFFB2FBF7CDFC002888
S1134BF000D12C1CFA239B005946CD58211C281C9B
S1134C00FBF7C2FC0326002800D13E1C281C211CF3
S1134C10F6B2FBF7B9FC002800D1251CFB239B004E
S1134C205A46D458291C201CFBF7AEFC0427002844
S1134C3000D1371C201C291CFFB2FBF7A5FC00285F
S1134C4000D12C1CFC239B005846C558211C281C51
S1134C50FBF79AFC0526002800D13E1C281C211CC9
S1134C60F6B2FBF791FC002800D1251CFD239B0024
S1134C705946CC58291C201CFBF786FC0627002823
S1134C8000D1371C201C291CFFB2FBF77DFC002837
S1134C9000D12C1CFE239B005A46D558211C281CED
S1134CA0FBF772FC0726002800D13E1C281C211C9F
S1134CB0F6B2FBF769FC002800D1251CFF239B00FA
S1134CC05C46E758291C381CFBF75EFC3B1C00289B
S1134CD000D12B1C181C8023DB005A46D158FBF74B
S1134CE067FC0924002808D1381C291CFBF74CFC5C
S1134CF00824002800D1341C64B2A40093235C442B
S1134D009B00E3585D466B679D239B00E35880221C
S1134D10AB50AB67A7239B00E3588C22AB50EB67E7
S1134D20B1239B00E2588423EA50BB239B00E35841
S1134D309022AB508822AB50C5239B007420E258CC
S1134D4082469423DA44EA50504600F059FC00218C
S1134D50051CFBF719FC002800D020E202E0C04645
S1134D60560B000058469830514600F08DFBCF2377
S1134D709B00E3585A469946D9239B00E35848467A
S1134D800993E3239B00E35807939823D15805F034
S1134D9041FE002105F03AFB9C235A46D158061CDB
S1134DA0099805F037FE011C301C05F02FFBA023E9
S1134DB05A46D158061C079805F02CFE011C301CDD
S1134DC005F024FBBF21090605F024FE5B465A4684
S1134DD0D863A423D1588046484605F01BFE002121
S1134DE005F014FBA8235A46D158061C099805F06F
S1134DF011FE011C301C05F009FBAC235A46D158A6
S1134E00061C079805F006FE011C301C05F0FEFA8E
S1134E10BF21090605F0FEFD5B465A461864B0231F
S1134E20071CD158484605F0F5FD002105F0EEFABF
S1134E30B4235A46D158061C099805F0EBFD011C11
S1134E40301C05F0E3FA5A46B823D158061C0798DB
S1134E5005F0E0FD011C301C05F0D8FABF2109065D
S1134E6005F0D8FD5B465864061C596F404605F0B2
S1134E70D1FD011C404605F0CDFD81465846816FA9
S1134E80081C05F0C3FA011C404605F0C3FD391C9B
S1134E9005F0C0FD011C484605F0B8FA5A46D16F2A
S1134EA08146081C05F0B2FA011C404605F0B2FD2B
S1134EB0011C301C05F0AEFD011C484605F0A6FAA5
S1134EC084225B4699588046381C05F0A3FD011CDA
S1134ED0381C05F09FFD011C404605F097FA882315
S1134EE099468046584648440168081C05F08EFAE5
S1134EF0011C381C05F08EFD011C301C05F08AFDD8
S1134F00011C404605F082FA942188465A464244E0
S1134F101168071C301C05F07DFD011C301C05F0D8
S1134F2079FD011C381C05F071FAED239B00E15852
S1134F3005F05EFE4000400803F03AFE5B46D8668A
S1134F40F7239B001299E458A24B6400C85E05F055
S1134F50D9FF6408011C201C05F0BCFB03F028FEEB
S1134F605A469D49D46E05F055FD211C061C201C93
S1134F7005F050FD011C301C05F0ACFB5B461867C6
S1134F8014989549466AD86B05F044FD16A9071C88
S1134F900020085E05F0B6FF311C05F03BFD011C46
S1134FA0381C05F033FA5A46D0638B49106C05F06F
S1134FB031FD5A236B44071C0020185E05F0A2FF44
S1134FC0311C05F027FD011C381C05F01FFA594659
S1134FD00864486C804905F01DFD17AA071C0020D1
S1134FE0105E05F08FFF311C05F014FD011C381C08
S1134FF005F00CFA5B4658647749201C05F00AFD5D
S11350005C46E0667549281C03F036FC011C5046DA
S113501000F0ECF9281C7249E46E03F02DFC011C2D
S1135020201C05F0F7FC5D46E866686FA96FBC2399
S1135030E850EA6FC023E950C423EA508023EA58B9
S1135040E423EA508423EA585C46E8234C44EA50BB
S11350502268EC23EA508C23EA5886235B00EA504A
S11350609023EA5888235B00EA5045442A688A233F
S11350705B005846C2500E990A98069A032300F022
S11350800FFB069C0025C8214900631818680135E8
S11350904000400803F08CFD03F08AFD061C311C1F
S11350A0206805F0B7FC311C2060A06A05F0B2FC52
S11350B0311CA062206D05F0ADFCEDB22065043416
S11350C0032DE0D1069E0024756833680795B56802
S11350D09A460695A946181C079D6300E7B21B195A
S11350E0A8460A937DB211E0AB005B19DB00922065
S11350F05B44800093211A18890050685A1852683A
S11351009046942292009B185B689946514605F09C
S113511081FC002105F07AF907990990404605F0D1
S113512079FC011C099805F071F9069980464846F6
S113513005F070FC011C404605F068F90A995A46CE
S11351404B1912339B0098506B005B191B190137E4
S11351501233FFB29B007DB29850022DC4DD01349E
S11351602836032CB0D119B03CBC90469946A246CF
S1135170AB46F0BD069D9020C0002B181B889021E3
S1135180890010936B181B882D8800260F951193A6
S1135190351C371CFFF7B1FB0130C0B2ADE45046FB
S11351A000F054F9CF239B00E158802000060A1830
S11351B0E250D9239B00E1582D180A18E250E3234A
S11351C09B00E1580A18E250ED239B00E1580A18AD
S11351D0E250C7E5560B000000004842ABAAAABE45
S11351E0ABAA2ABEF0B556464D4644465F46F0B4D7
S11351F083B002F071FD002003F0D2F8002003F028
S113520099F85E4B05221A605D495E4A5E4D5A600C
S113521088468868291C02F0E9FD5C4C032363710D
S11352200023237143460026186925825849012525
S11352306661267225706570A570E680FCF7BAF881
S1135240414608695349FCF747F8534A5349101C2F
S11352509246FEF7C5F8524AA023D554514A002776
S1135260D554514B424699464946A823CD54D0685B
S11352704E49102203F09EF9002003F099F8E660ED
S11352802379002BFCD053469D6B81212771281C68
S1135290C905FBF783F9002841D00936B6B2182EA8
S11352A047D802F0E1FA4946C86805F00BFE20230E
S11352B06A4680B283461370177100B26421FBF70B
S11352C0B1F8642385B25B426B435B449BB29B465B
S11352D098B22023002D02D02B1C3033DBB2694658
S11352E04B7000B20A21FBF79DF80A2280B25242A9
S11352F042435A4492B205432023002D02D0031C9A
S11353003033DBB269468B70131C30336846CB7084
S1135310FBF7E8FA4246D068FCF780F9B0E7281CAE
S11353202349FBF73BF9002808D00736B6B2182EFC
S1135330B7D9002003F004F80026B2E78221281C24
S1135340C905FBF72BF9002802D00536B6B2A6E74B
S1135350281C1849FBF722F9002802D00336B6B2FC
S11353609DE7281C1449FBF719F9002802D10136DE
S1135370B6B294E70236B6B291E7C04610E000E058
S11353801CE3FF1FFFFFFF008813000070F5FF1FE1
S1135390F4E3FF1F88F5FF1F58F1FF1FB0E4FF1F60
S11353A008F0FF1F0CE4FF1FACF0FF1FE4E3FF1F36
S11353B00000D0400000304100007041FE22002374
S11353C09205436083600260C3604361026183614C
S11353D0C36102627047C046016041608160C16080
S11353E0016141618161C1610162704738B5041C8A
S11353F000680D1C05F00EFB291C2060606805F098
S113540009FB291C6060A06805F004FB291CA0604E
S1135410E06805F0FFFA291CE060206905F0FAFA5B
S1135420291C2061606905F0F5FA291C6061A069F6
S113543005F0F0FA291CA061E06905F0EBFA291CDB
S1135440E061206A05F0E6FA206238BD0168802236
S113545012068B18416803608B18816843608B18AF
S1135460C16883608B180169C3608B18416903614B
S11354708B18816943618B18C16983618B18016A38
S1135480C3618B1803627047F0B55F4656464D46BC
S11354904446F0B40B6983B099460B6A4E690D1CFF
S11354A0041C191C48469A4605F0B4FA311C071C22
S11354B0301C05F0AFFA011C381C05F099FBAF68ED
S11354C06B68391C8346301C984605F0A3FA4146A4
S11354D00190504605F09EFA011C019805F088FBE6
S11354E041468246301C05F095FA391C061C484694
S11354F005F090FA011C301C05F07AFB29688146FE
S1135500584605F087FA5146061C404605F082FAD3
S1135510011C301C04F07AFF4946061C381C05F0B7
S113552079FA011C301C04F071FF0026311C071CA1
S1135530FBF724F8002811D0FE239B056660A660C3
S11355402360E66066612361A661E661236203B0BD
S11355503CBC90469946A246AB46F0BDFE20391CA1
S1135560800505F0B7F8061C311C584605F052FAC0
S1135570311C2060504605F04DFA311C6060E0603B
S1135580484605F047FAA060A0612F68AB68296A15
S1135590381C984605F03EFA41468146404605F0DF
S11355A039FA011C484605F023FB311C05F032FA98
S11355B020616968404605F02DFA69698046381C07
S11355C005F028FA011C404605F012FB311C05F0D9
S11355D021FA6061E0616B682969381C984605F01E
S11355E019FA4146051C404605F014FA011C281C12
S11355F005F0FEFA311C05F00DFA2062A7E7C0465B
S1135600F8B5036A5F4656464D4644469946436993
S1135610F0B406699A46C369041C8569C76849469B
S1135620301C984605F0F6F941468346504605F08D
S1135630F1F9011C584605F0DBFA216805F0EAF996
S1135640291C8346504605F0E5F9391C8246484634
S113565005F0E0F9011C504605F0CAFA616805F04E
S1135660D9F9011C584604F0D1FE391C8146404644
S113567005F0D0F9291C071C301C05F0CBF9011CDE
S1135680381C05F0B5FAA16805F0C4F9011C4846B8
S113569004F0BCFE3CBC90469946A246AB46F8BD1D
S11356A0F0B55F4656464D464446F0B495B0059075
S11356B00B910D920493002B00DC28E2181C013896
S11356C0C3B2151C01332C225A430E1C0499FE2725
S11356D089001190914688460024BF05281C424643
S11356E0002106F0DBFE0D9A059B17511B592C3443
S11356F008C628354C45F1D111981021C3B29A003F
S1135700D3185B0010931391059B11990022002676
S1135710049D1292371C101C994688467AB2424561
S113572017DA0137FFB27BB29D42F7DD9600B61857
S1135730F6004E443C1C9B00995901344900490829
S1135740E4B204F063FE63B29D42F4DC7AB24245F3
S1135750E7DB00211290FAF72BFF0022002800D18A
S1135760BBE1119853B2834200DBB6E10132D2B2FD
S1135770D0B241B2099004980A91884200DCA6E1B3
S113578099008B4605985B440B99DB00C318019381
S11357900B1C5B440793531E023AD2B291008A1841
S11357A052000E920D9A09980A9928325BB206901B
S11357B003910F920C935F46039B019998000E1876
S11357C0346802906000400800210893FAF7F0FE64
S11357D0002800D171E10B9A9246029A9244079AEA
S11357E053461168186805F003FAFC21890505F091
S11357F011F9211C04F06EFF8146494605F00AF9AF
S1135800FE21890504F002FE03F0D2F94B468046DE
S11358105800400806F066FD041C40460D1C06F0C6
S113582061FD021C0B1C201C291C05F0B5FB021C8D
S11358300B1CBA49B84805F0A1FE06F0A3FD0021EF
S113584080464846FAF7A0FE002800D059E14146B8
S1135850404605F0DFF8FE21890504F0D7FD03F08A
S1135860A7F9011CFE20800504F034FF051C291C47
S1135870404605F0CFF8FE21041C8905281C04F0DD
S1135880C5FD011C201C04F025FF3168051C4046A1
S113589005F0C0F8079980460868414605F0A8F964
S11358A0079A534610601868414604F0AFFD049B04
S11358B05146002208603260002B3ADD0D99029AAD
S11358C003988E1810990F9A43189B00D2188300DE
S11358D05B42B94693469A46A846271C5346F51898
S11358E048462C584046211C05F094F8316804F0D1
S11358F08DFD391C05F08EF8011C201C05F078F98B
S11359004946685035684146281C05F083F8011C57
S1135910201C05F06DF9391C05F07CF8011C281CCD
S113592004F074FD306028365E45D7D13C1C4546F2
S11359304F460C9800283CDD05980299039A4618B6
S11359400E9803991318059A9B002832D2188B00DD
S11359505B42B94693469A46A846271C5246B51858
S11359604B46EC584046211C05F054F8316804F0CD
S11359704DFD391C05F04EF8011C201C05F038F9CA
S11359804946685035684146281C05F043F8011C17
S1135990201C05F02DF9391C05F03CF8011C281CCD
S11359A004F034FD306028365E45D7D13C1C4546B2
S11359B04F460A9A039B9A423ADA09982A1C43B240
S11359C0051C0398A046BB468246914601999E0059
S11359D0059A8F19F6183C68029BF6009619F6187A
S11359E0211C484605F016F8316804F00FFD4146C5
S11359F005F010F8011C201C05F0FAF8386037682F
S1135A004946381C05F006F8011C201C05F0F0F886
S1135A10414604F0FFFF011C381C04F0F7FC01357B
S1135A20EDB26BB230605345D0DB44464D465F4621
S1135A30069B0133DBB25AB20693049B0392934252
S1135A4045DD02980899161C4318059ADB00D21804
S1135A50069B934699462B1CA0464D46BA4699464A
S1135A600198B60087193C685E44211C484604F03E
S1135A70D1FF316804F0CAFC414604F0CBFF011C9D
S1135A80201C05F0B5F8386037684946381C04F026
S1135A90C1FF011C201C05F0ABF8414604F0BAFF1D
S1135AA0011C381C04F0B2FC0135EDB204993060DD
S1135AB06EB2B142D4DC57467EE6069B0133DBB2BC
S1135AC05AB20693049B0392934200DD74E6099A4A
S1135AD0119853B2834200DA48E612980021FAF78B
S1135AE067FD002806D0139B013BDBB21393002B08
S1135AF000D009E615B03CBC90469946A246AB4698
S1135B00F0BD80200006031C434498469FE6013BF9
S1135B101193F1E5C046C046000000000000F03FCC
S1135B20F0B55F4656464D464446F0B48DB09A46AD
S1135B3016AB1B7804905BB2089109929B46002B2C
S1135B4000DC10E15E461A1C013E5046002106F0BE
S1135B50A5FCF3B25A1C9B0000270696920000266F
S1135B600433079702970A9203960B9357460499B6
S1135B7000220023894692469846514656467B5653
S1135B80F6B20196012B3ED0002413E04A46126877
S1135B90A3009E58414676007608301CFAF712FDA1
S1135BA0002803D0019B03950293B046013463B2ED
S1135BB09B4528DD3B5DE5B2002BE7D05BB2012BB2
S1135BC0F4DDFE26049FB605002500235846002474
S1135BD0B446B8469E0041468F5900233A1C01330F
S1135BE0DBB259B210C28142F9DB0135EDB2624633
S1135BF06BB2BA518342EDDB0DB03CBC9046994682
S1135C00A246AB46F0BD0126B2445246042153B22B
S1135C1089449B45B1DC039E76B2BB191A7805967C
S1135C20029E01321A7073B2059EB34200D195E010
S1135C30049E9B009959059E049AB6009419226803
S1135C400A9D01960023C858D658CE50D05004332C
S1135C50AB42F8D10799029A099E7254089E039A9E
S1135C6072542368019E9846351C45442C680021D3
S1135C70201CFAF783FC002878D1FE20211C800523
S1135C8004F028FDFE230B999B052B600D1C061CBC
S1135C90444645442068311C04F0BCFE01C4AC42B7
S1135CA0F8D1049A0A9E00230097914647469A46E3
S1135CB0B046059E9E4217D04B461D68019E0021AA
S1135CC0AB191E681960331C00244646984639599E
S1135CD0404604F09FFE011C285904F089FF285116
S1135CE00434A642F3D1B04653460133DBB29A469C
S1135CF004215BB289449B45DBD1079E009F01369A
S1135D0073B207969B4500DD31E7069FFEB2F7B2FA
S1135D107BB2002B00DA6FE7049AB60004329619BE
S1135D20BC46099FFD56089FFC56A5420ED0594615
S1135D3000290BDD049BAD00A40004CB51191219FA
S1135D40086817680F601060B342F6D16746013FD8
S1135D50FFB27BB2BC46002BE3DA4DE70499B600F0
S1135D6001968C1976E7013B0693CEE7FE27BF0523
S1135D700025002358460024BC4604999E008F59F0
S1135D8000233A1C0133DBB259B210C28142F9DB61
S1135D900135EDB262466BB2BA518342EDDB2BE7BB
S1135DA0F0B5454657464E46E0B40D1C4968041C00
S1135DB0081C04F02FFEAE68071C311C301C04F0D4
S1135DC029FE011C381C04F021FB2968071C081C4F
S1135DD004F020FE391C04F019FB0026311C804617
S1135DE0FAF7CCFB002867D1381C311CFAF7C6FB44
S1135DF0002810D0FE27201C311CBF05FFF7ECFA49
S1135E0027612868311CFAF7DDFB002858D02E4B97
S1135E10A760A3614BE0381C02F0CAFE82464046EC
S1135E2002F0C6FE071CFE20391C800504F052FC5B
S1135E3051468046381C04F04DFC4146071C286836
S1135E4004F0E8FDA0606868414604F0E3FD606189
S1135E5081464146A86804F0DDFD4146051C2062E8
S1135E60504604F0D7FDA3682060984680231B06A3
S1135E7098444946404604F0CDFD391C04F0CAFD5F
S1135E80291CE060404604F0C5FD391C04F0C2FD45
S1135E90291CA0616660381C04F0BCFD80231B062D
S1135EA02061181C4844391C04F0B4FDE0611CBC9A
S1135EB090469946A246F0BD201CFFF77FFAF6E70C
S1135EC0014BA761A360F2E7000080BFF0B545462F
S1135ED057464E46E0B40D1C4968041C081C04F0E7
S1135EE099FDAE68071C311C301C04F093FD011CA5
S1135EF0381C04F08BFA2968071C081C04F08AFD7E
S1135F00011C381C04F082FA0026311C8046FAF782
S1135F1035FB002869D1381C311CFAF72FFB002807
S1135F2010D0FE27201C311CBF05FFF755FA27614E
S1135F302868311CFAF746FB00285AD02F4BA7607B
S1135F40A3614DE0381C02F033FE8246404602F065
S1135F502FFE071CFE20391C800504F0BBFB5146B4
S1135F608046381C04F0B6FB2968071C404604F040
S1135F7051FDA0606968404604F04CFD6061A96869
S1135F808146404604F046FD4146051C20625046C9
S1135F9004F040FDA3682060984680231B069844C3
S1135FA04946404604F036FD011C381C04F032FD1D
S1135FB0291CE060404604F02DFD011C381C04F04F
S1135FC029FD291CA0616660381C04F023FD802390
S1135FD01B06191C20614944381C04F01BFDE061B8
S1135FE01CBC90469946A246F0BD201CFFF7E6F97A
S1135FF0F6E7024BA761A360F2E7C046000080BF4A
S1136000F8B55F4656464D464446F0B40D1C096843
S1136010041C081C04F0FEFCAE68071C311C301C78
S113602004F0F8FC011C381C04F0F0F96968061C43
