S00600004844521B
S2240000000000032011040000A5F5000011120000111200001112000011120000111200005A
S224000020111200001112000011120000B120010011120000111200004B2101003D2201006D
S2240000403D2201003D2201003D2201003D2201003D2201003D2201003D2201003D2201009B
S2240000603D2201003D2201003D2201003D2201003D2201003D2201003D2201003D2201007B
S2240000803D2201003D2201003D2201003D2201003D2201003D2201003D2201003D2201005B
S2240000A03D2201003D2201003D2201003D2201003D2201003D2201003D2201003D2201003B
S2240000C03D2201003D2201003D2201003D2201003D2201003D2201003D2201003D2201001B
S2240000E03D2201003D2201003D2201003D2201003D2201003D2201003D2201003D220100FB
S2240001003D2201003D2201003D2201003D2201003D2201003D2201003D2201003D220100DA
S2240001203D2201003D2201003D2201003D2201003D2201003D2201003D2201003D220100BA
S2240001403D2201003D2201003D2201003D2201003D2201003D2201003D2201003D2201009A
S2240001603D2201003D2201003D2201003D2201003D2201003D2201003D2201003D2201007A
S2240001803D2201003D2201003D2201003D2201003D2201003D22010000000000000000001A
S2240001A000000000000000000000000000000000000000000000000000000000000000003A
S2240001C000000000000000000000000000000000000000000000000000000000000000001A
S2240001E00000000000000000000000000000000000000000000000000000000000000000FA
S2240002000000000000000000000000000000000000000000000000000000000000000000D9
S2240002200000000000000000000000000000000000000000000000000000000000000000B9
S224000240000000000000000000000000000000000000000000000000000000000000000099
S224000260000000000000000000000000000000000000000000000000000000000000000079
S224000280000000000000000000000000000000000000000000000000000000000000000059
S2240002A0000000000000000000000000000000000000000000000000000000000000000039
S2240002C0000000000000000000000000000000000000000000000000000000000000000019
S2240002E00000000000000000000000000000000000000000000000000000000000000000F9
S2240003000000000000000000000000000000000000000000000000000000000000000000D8
S2240003200000000000000000000000000000000000000000000000000000000000000000B8
S224000340000000000000000000000000000000000000000000000000000000000000000098
S224000360000000000000000000000000000000000000000000000000000000000000000078
S224000380000000000000000000000000000000000000000000000000000000000000000058
S2240003A0000000000000000000000000000000000000000000000000000000000000000038
S2240003C0000000000000000000000000000000000000000000000000000000000000000018
S2240003E00000000000000000000000000000000000000000000000000000000000000000F8
S224000400FFFFFFFFFFFFFFFFFFFFFFFF7FFFFFFF144A154815494FF008033BB140F8042BB1
S22400042041F8042BA3F10103FFF7F7BFEFF3088080F30988EFF3148040F0020080F31488E6
S224000440BFF36F8FDFF82800016841F47001016008484FF0000101600CF09EFF80F30888EB
S224000460704700BFFFFFFFFF80E100E080E200E088ED00E034EF00E081F0004102E000BFD7
S22400048083F0004330B54FEA41044FEA430594EA050F08BF90EA020F1FBF54EA000C55EA72
S2240004A0020C7FEA645C7FEA655C00F0E2804FEA5454D4EB5555B8BF6D420CDD2C4480EA51
S2240004C0020281EA030382EA000083EA010180EA020281EA0303362D88BF30BD11F0004F01
S2240004E04FEA01314FF4801C4CEA113102D0404261EB410113F0004F4FEA03334CEA133316
S22400050002D0524263EB430394EA050F00F0A780A4F10104D5F1200E0DDB02FA0EFC22FA9B
S22400052005F2801841F1000103FA0EF2801843FA05F359410EE0A5F120050EF1200E012A8F
S22400054003FA0EFC28BF4CF0020C43FA05F3C01851EBE37101F0004507D54FF0000EDCF195
S224000560000C7EEB00006EEB0101B1F5801F1BD3B1F5001F0CD349085FEA30004FEA3C0C84
S22400058004F101044FEA445212F5800F80F09A80BCF1004F08BF5FEA500C50F1000041EB98
S2240005A0045141EA050130BD5FEA4C0C404141EB010111F4801FA4F10104E9D191F0000FEB
S2240005C004BF01460020B1FA81F308BF2033A3F10B03B3F120020CDA0C3208DD02F1140C2F
S2240005E0C2F10C0201FA0CF021FA02F10CE002F11402D8BFC2F1200C01FA02F120FA0CFCB5
S224000600DCBF41EA0C019040E41AA2BF01EB0451294330BD6FEA04041F3C1CDA0C340EDC5D
S22400062004F11404C4F1200220FA04F001FA02F340EA030021FA04F345EA030130BDC4F1BF
S2240006400C04C4F1200220FA02F001FA04F340EA0300294630BD21FA04F0294630BD94F038
S224000660000F83F4801306BF81F480110134013D4EE77FEA645C18BF7FEA655C29D094EA48
S224000680050F08BF90EA020F05D054EA000C04BF1946104630BD91EA030F1EBF00210020C0
S2240006A030BD5FEA545C05D14000494128BF41F0004130BD14F580043CBF01F5801130BD6D
S2240006C001F0004545F0FE4141F470014FF0000030BD7FEA645C1ABF194610467FEA655CB8
S2240006E01CBF0B46024650EA013406BF52EA033591EA030F41F4002130BD00BF90F0000FBB
S22400070004BF0021704730B54FF4806404F132044FF000054FF0000150E700BF90F0000FF9
S22400072004BF0021704730B54FF4806404F1320410F0004548BF40424FF000013EE700BFF0
S22400074042004FEAE2014FEA31014FEA02701FBF12F07F4393F07F4F81F06051704792F0D2
S224000760000F14BF93F07F4F704730B54FF4607401F0004521F0004120E700BF50EA010203
S22400078008BF704730B54FF000050AE050EA010208BF704730B511F0004502D5404261EB38
S2240007A041014FF4806404F132045FEA915C3FF4DCAE4FF003025FEADC0C18BF03325FEAE3
S2240007C0DC0C18BF033202EBDC02C2F1200300FA03FC20FA02F001FA03FE40EA0E0021FA2B
S2240007E002F11444C1E600BF70B54FF0FF0C4CF4E06C1CEA11541DBF1CEA135594EA0C0FFA
S22400080095EA0C0F00F0DEF82C4481EA030621EA4C5123EA4C5350EA013518BF52EA033580
S22400082041F4801143F4801338D0A0FB02CE4FF00005E1FB02E506F00042E0FB03E54FF06F
S2240008400006E1FB03569CF0000F18BF4EF0010EA4F1FF04B6F5007F64F5407404D25FEAAB
S2240008604E0E6D4146EB060642EAC62141EA55514FEAC52040EA5E504FEACE2EB4F1FD0C6F
S22400088088BFBCF5E06F1ED8BEF1004F08BF5FEA500E50F1000041EB045170BD06F000467F
S2240008A046EA010140EA020081EA0301B4EB5C04C2BFD4EB0C0541EA045170BD41F48011A3
S2240008C04FF0000E013C00F3AB8014F1360FDEBF002001F0004170BDC4F10004203C35DAE1
S2240008E00C341BDC04F11404C4F1200500FA05F320FA04F001FA05F240EA020001F0004284
S22400090021F0004110EBD37021FA04F642EB06015EEA430E08BF20EAD37070BDC4F10C045A
S224000920C4F1200500FA04F320FA05F001FA04F240EA020001F0004110EBD37041F1000118
S2240009405EEA430E08BF20EAD37070BDC4F1200500FA05F24EEA020E20FA04F301FA05F2A2
S22400096043EA020321FA04F001F0004121FA04F220EA020000EBD3705EEA430E08BF20EA4A
S224000980D37070BD94F0000F0FD101F00046400041EB010111F4801F08BF013CF7D041EA30
S2240009A0060195F0000F18BF704703F00046520043EB030313F4801F08BF013DF7D043EAAB
S2240009C00603704794EA0C0F0CEA135518BF95EA0C0F0CD050EA410618BF52EA4306D1D18F
S2240009E081EA030101F000414FF0000070BD50EA410606BF1046194652EA430619D094EAFE
S224000A000C0F02D150EA013613D195EA0C0F05D152EA03361CBF104619460AD181EA0301CF
S224000A2001F0004141F0FE4141F470014FF0000070BD41F0FE4141F4780170BD70B54FF04E
S224000A40FF0C4CF4E06C1CEA11541DBF1CEA135594EA0C0F95EA0C0F00F0A7F8A4EB0504EB
S224000A6081EA030E52EA03354FEA013100F088804FEA03334FF0805545EA131343EA1263A4
S224000A804FEA022245EA111545EA10654FEA00260EF000419D4208BF964244F1FD0404F5B0
S224000AA0407402D25B084FEA3202B61A65EB03055B084FEA32024FF480104FF4002CB6EBFE
S224000AC0020E75EB030E22BFB61A754640EA0C005B084FEA3202B6EB020E75EB030E22BF1B
S224000AE0B61A754640EA5C005B084FEA3202B6EB020E75EB030E22BFB61A754640EA9C00BC
S224000B005B084FEA3202B6EB020E75EB030E22BFB61A754640EADC0055EA060E18D04FEAF8
S224000B20051545EA16754FEA06164FEAC30343EA52734FEAC2025FEA1C1CC0D111F4801FE3
S224000B400BD141EA00014FF000004FF0004CB6E711F4801F04BF01430020B4F1FD0C88BF61
S224000B60BCF5E06F3FF6AFAEB5EB030C04BFB6EB020C5FEA500C50F1000041EB045170BD29
S224000B800EF0004E4EEA113114EB5C04C2BFD4EB0C0541EA045170BD41F480114FF0000E1A
S224000BA0013C90E645EA060E8DE60CEA135594EA0C0F08BF95EA0C0F3FF43BAF94EA0C0FB9
S224000BC00AD150EA01347FF434AF95EA0C0F7FF425AF104619462CE795EA0C0F06D152EA1A
S224000BE003353FF4FDAE1046194622E750EA410618BF52EA43067FF4C5AE50EA41047FF467
S224000C000DAF52EA43057FF4EBAE12E74FF0FF3C06E000BF4FF0010C02E000BF4FF0010C32
S224000C204DF804CD4FEA410C7FEA6C5C4FEA430C18BF7FEA6C5C1BD001B050EA410C0CBF64
S224000C4052EA430C91EA030F02BF90EA020F0020704710F1000F91EA030F58BF994208BFFE
S224000C6090422CBFD8176FEAE37040F0010070474FEA410C7FEA6C5C02D150EA013C07D156
S224000C804FEA430C7FEA6C5CD6D152EA033CD3D05DF8040B704700BF8446104662468C465D
S224000CA01946634600E000BF01B5FFF7B7FF002848BF10F1000F01BD4DF808EDFFF7F4FF06
S224000CC00CBF012000205DF808FB00BF4DF808EDFFF7EAFF34BF012000205DF808FB00BF88
S224000CE04DF808EDFFF7E0FF94BF012000205DF808FB00BF4DF808EDFFF7CEFF94BF0120C4
S224000D0000205DF808FB00BF4DF808EDFFF7C4FF34BF012000205DF808FB00BF4FEA4102DD
S224000D20B2F1E04324BFB3F5001CDCF1FE5C0DD901F0004C4FEAC0024CEA5070B2F1004F14
S224000D4040EB830008BF20F00100704711F0804F21D113F13872BCBF01F00040704741F449
S224000D6080114FEA5252C2F11802C2F1200C10FA0CF320FA02F018BF40F001004FEAC1231A
S224000D804FEAD32303FA0CFC40EA0C0023FA02F34FEA4303CCE77FEA625307D150EA01333C
S224000DA01EBF4FF0FE4040F44000704701F0004040F0FE4040F40000704700BF08B5044857
S224000DC0044B1B1A062B02D9034B03B1984708BDBC020020BF02002000000000064807497B
S224000DE0091A08B58910022391FBF3F111B1044B03B1984708BD00BFBC020020BC020020FC
S224000E0000000000074B1A7810B51C4642B9FFF7D5FF054B13B10548AFF3008001232370C3
S224000E2010BD00BFBC020020000000006420010008B5084B1BB108480849AFF300800848CF
S224000E40036813B1074B03B19847BDE80840FFF7C5BF00BF0000000064200100C0020020EC
S224000E60BC020020000000004FF400532DE9F00FC4F2050340F200014FF0E02648F2200252
S224000E80C4F20402C0F200014DF628144CF220554FF4E970C6F8081DDD81DC811880D169A0
S224000EA04FF4504341F00051C4F20303D1611A69D4050BD41A6922F470521A611A6942F41D
S224000EC080721A611A6922F400721A6148F24002C4F2040248F22003C4F204034FF0A27176
S224000EE0516099694FF41042C4F2040241F400719961916C4FF4804321F0807121F4E061EE
S224000F00C4F2060391641A7A12F00E0F06D05A78D00744D41A7A02F0F1021A724FF48043C3
S224000F20C4F206031A7802F0C002402A00F03581802A00F02581002A00F0FD80002241F667
S224000F40BC164FF4A0494FF4804341F63C2AC0F20106C4F20609C4F20603C0F2010A02F0FF
S224000F600F0206EB0212D289072A00F0F18002F00F005AF820100C784D7891F8028091F809
S224000F8003C00F798979072832D8DFE810F09E009E00BF007D007D002400160116011A7826
S224000FA012F0010F5A7802F0FE025A7000F0FC8099794FF48042C907C4F20602F8D4137A22
S224000FC003F0F1031372537843F0010353709379DF07FCD5A2E71C70587825F0400500F0E9
S224000FE0400005435D7089F800104FF000011973072A09D8DFE802F0043333042828283E4B
S224001000997911F00C0FFBD1072AA8D148F24003C4F204034FF4E042C4F204024FF08A7192
S224001020596011684FF4004321F44021C4F2040341F4002111605A6822F4403242F48032C7
S2240010405A60BDE8F00F7047997901F00C010829DAD0997901F00C010829F5D1D4E79979B7
S22400106001F00C010429CFD0997901F00C010429F5D1C9E74FF48042C4F20602937903F02C
S2240010800C030C2BFAD1C1E7587825F0400500F0400005435D7089F800104FF000011973C6
S2240010A01C7098794FF48041C006C4F20601F8D4C87828F01F0800F01F0048EA000881F8FA
S2240010C0038081F804C04F7192E71C709C794FF48040E406C4F20600F8D5447825F04005E5
S2240010E004F0400425434570C47828F01F0804F01F0448EA040880F8038089F800104FF0FB
S2240011000001017380F804C0477171E71C709C794FF48040E706C4F20600F8D5447825F01E
S224001120400504F040042543457089F800109979CC07FCD55CE75A79560648BF07223FF5F3
S224001140FEAE1B7813F0040F14BF00220322F6E6212580212B2489F800104FF000011973AC
S2240011601C70597801F040010D434FF013015D7019714FF05801597199794906FCD537E72F
S2240011805A79550648BF06223FF5D9AE5B7813F0020F14BF05220422D1E65B7813F0020F8D
S2240011A014BF02220122CAE61A7A02F0F1021A725A7842F001025A70B0E605F0BF05CAE78A
S2240011C041F62C4008B5C0F201000DF03FFA00B1FEE748F22002C4F204024FF41043916983
S2240011E0C4F2040341F40071916119694FF4604221F08071C4F2070221F4E06141F4E061A1
S224001200196110700EF0AAF9F02383F3118808BD684620F007018D4601B4FFBE5DF8040BD8
S22400122085467047704700BF40F2B043C2F2000310B41A6FB3F86C401846224401215DF8F6
S224001240044B1A670CF024BD704700BF40F2B043C2F2000393F8742042F0010283F8742027
S224001260704700BF40F2B043C2F2000393F8742042F0020283F87420704700BF704700BFC7
S22400128038B540F2AC43C2F2000344F247121D785C789878D97804EB052300EB032301EB17
S2240012A00323C5F23612934200F0B08022DC42F62052C4F24242934200F0A1803BDC45F2F9
S2240012C02D42C4F24C12934200F0848042F62032C4F24242934200F0B58045F22B42C4F2A5
S2240012E04C12934261D140F22C53C2F200030122DA705AE044F22D32C5F25022934200F0F2
S2240013009A8031DC42F22002C5F23912934268D044F22B32C5F25022934269D044F64152A5
S224001320C5F23612934240D140F22C53C2F2000303221A7139E044F22072C5F233129342F9
S2240013402DD044F62052C5F23312934265D042F22002C5F23312934227D140F22C53C2F255
S224001360000300221A7120E042F62032C5F24762934228D042F62052C5F24762934253D0FF
S22400138045F22042C5F2532293420ED10BF014FB40F2B043C2F2000300221A6705E040F22F
S2240013A02C53C2F2000302221A7140F24433C2F2000340F2AC415869C2F200010422BDE883
S2240013C038400EF059BE40F22C53C2F2000301221A70EAE740F22C53C2F200030022DA70C1
S2240013E0E3E740F22C53C2F2000305221A71DCE740F22C53C2F2000301229A70D5E740F2BE
S2240014002C53C2F2000300225A70CEE740F22C53C2F2000304221A71C7E740F22C53C2F2C4
S224001420000301221A71C0E740F22C53C2F2000300221A70B9E740F22C53C2F20003002211
S2240014409A70B2E740F22C53C2F2000301225A70ABE700BF08B5F7EE007AB4EEE70AF1EEB0
S22400146010FA2DED028BB0EE408A04DB9FED3B0ABDEC028B08BDBFEE007AB4EEC70AF1EE2A
S22400148010FA61D9E0EE407AB1EEE70AB4EE400AF1EE10FA5DD188EE008AF7EE007AB5EEE6
S2240014A0C08AF1EE10FA48BFB1EE488AB4EEE78A4CBF01220022F1EE10FAC6BF87EE888A24
S2240014C001230023DFED267AB4EEE78AF1EE10FA29DD9FED247AF7EE007AE8EE077A38EE4C
S2240014E0478ADFED216A88EE278ADFED207A28EE087A9FED1F0AE7EE267A37EE007A28EEBB
S224001500270AF3EE0E6A80EE070A30EE260A1BB1DFED127A37EEC00A002AA9D0BDEC028B83
S224001520B1EE400A08BD28EE087ADFED0F6ADFED0F7AE7EE267A9FED0E0A28EE278A37EEC1
S224001540007A88EE070AE2E7BDEC028B9FED090A08BDB0EE670A0EF0EBFF9CE70000B442B2
S224001560A330893E3ACD133F0EB2C841EE49C142DCE7D73F0000B4C208B5F7EE007AB4EE63
S224001580E70AF1EE10FA2DED028BB0EE408A04DB9FED720ABDEC028B08BDBFEE007AB4EEB2
S2240015A0C70AF1EE10FA5ED9B5EE400AF1EE10FA54D0E0EE407AB5EEC00AB1EEE70AF1EED7
S2240015C010FAB4EE400A51DDF1EE10FA40F0C18080EE088AF7EE007AB5EEC08AF1EE10FA53
S2240015E048BFB1EE488AB4EEE78A4CBF01220022F1EE10FAC6BF87EE888A01230023DFED03
S224001600587AB4EEE78AF1EE10FA7BDD9FED557AF7EE007AE8EE077A38EE478ADFED526A0F
S22400162088EE278ADFED517A28EE087A9FED500AE7EE267A37EE007A28EE270AF3EE0E6AB5
S22400164080EE070A30EE260A1BB1DFED4A7A37EEC00A002A9ED0B1EE400A9BE7BDEC028B34
S2240016609FED440A08BD9FED440A93E7F1EE10FA6AD180EE088AF7EE007AB5EEC08AF1EE23
S22400168010FA48BFB1EE488AB4EEE78A4CBF01220022F1EE10FAC6BF87EE888A0123002324
S2240016A0DFED2F7AB4EEE78AF1EE10FA3BDD9FED2D7AF7EE007AE8EE077A38EE477A9FED40
S2240016C02A6A87EE277ADFED297A67EE076A9FED288AE6EE867A76EE886A27EE278AB3EE57
S2240016E00E6A88EE268A38EE068A1BB1DFED217A37EEC88A0AB1B1EE488A9FED1F0A38EEE0
S224001700000A47E728EE087ADFED176ADFED177AE7EE267A9FED160A28EE278A37EE007AC3
S22400172088EE070A90E728EE087ADFED0F6ADFED0F7AE7EE267ADFED0E6A28EE278A37EECF
S224001740267A88EE078AD0E7B0EE670A0EF0F0FE8FE7B0EE670A0EF0EBFE39E7000000009F
S224001760A330893E3ACD133F0EB2C841EE49C142DCE7D73F0000B44200003443B5EEC00ABB
S224001780F1EE10FA48BFB1EE400AF7EE007AB4EEE70A4CBF01230023F1EE10FAC6BF87EE44
S2240017A0800A01220022DFED207AB4EEE70AF1EE10FA27DD9FED1D7AF7EE006AE0EE076ABE
S2240017C030EE477A9FED1A6A87EE267ADFED197A67EE076A9FED180AE6EE867A76EE806A0B
S2240017E027EE270AB3EE0E6A80EE260A30EE060A1AB1DFED127A37EEC00A13B1B1EE400AFA
S2240018007047704720EE007ADFED096ADFED097AE7EE267ADFED086A20EE270A37EE267A88
S22400182080EE070AE4E700BFA330893E3ACD133F0EB2C841EE49C142DCE7D73F0000B442D5
S224001840F5EE400AF1EE10FA08D1B5EEC00AF1EE10FA40F398809FED900A7047F5EEC00A69
S224001860F1EE10FA45DDC0EE200AF7EE007AF5EEC00AF1EE10FA48BFF1EE600AF4EEE70A68
S2240018804CBF01220022F1EE10FAC6BFC7EEA00A01230023DFED817AF4EEE70AF1EE10FA5C
S2240018A075DD9FED7F7AF7EE007AE0EE877A70EEC70ADFED7C6AC0EEA70ADFED7B7A20EE0F
S2240018C0A07A9FED7A0AE7EE267A37EE007A20EEA70AF3EE0E6A80EE070A30EE260A1BB114
S2240018E0DFED6D7A37EEC00A002A61D0B1EE400A70476FD4C0EE200AF7EE007AF5EEC00A1F
S224001900F1EE10FA48BFF1EE600AF4EEE70A4CBF01220022F1EE10FAC6BFC7EEA00A012375
S2240019200023DFED5E7AF4EEE70AF1EE10FA40DD9FED5B7AF7EE007AE0EE877A30EEC77A14
S2240019409FED586A87EE277ADFED577A67EE076ADFED560AE6EE867A76EEA06A67EE270AC7
S224001960B3EE0E6AC0EEA60A70EE860A1BB1DFED4A7A77EEE00A0AB1F1EE600A9FED4C0A6C
S22400198030EEC00A704773D49FED4A0A704720EEA07ADFED446ADFED447AE7EE267A9FED98
S2240019A0430A60EEA70A37EE007A80EE870A96E7704720EEA07ADFED3B6ADFED3B7AE7EE15
S2240019C0267A9FED3A0A60EEA70A37EE007AC0EE870ACBE7B5EEC00AF1EE10FA8ADDC0EE98
S2240019E0200AF7EE007AF5EEC00AF1EE10FA48BFF1EE600AF4EEE70A4CBF01220022F1EE71
S224001A0010FAC6BFC7EEA00A01230023DFED237AF4EEE70AF1EE10FA2DDD9FED217AF7EE51
S224001A20007AE0EE877A30EEC77ADFED1E5A87EE277ADFED1D7A67EE076A9FED1C6AE6EE90
S224001A40A57A76EE866A67EE277AB3EE0E6AC7EEA67A77EE867A1BB19FED0F7A77EE677A9E
S224001A600AB1F1EE677A9FED120A37EE800A70479FED110A704720EEA07ADFED0A6ADFED46
S224001A800A7AE7EE267ADFED096A60EEA77A37EE267AC7EE877ADEE70000B442A330893ECA
S224001AA03ACD133F0EB2C841EE49C142DCE7D73F00003443000000000000B4C22DE9F041B8
S224001AC040F2B045C2F2000584B00E4660220021044640F29C370DF0A5FF95F87480C2F2D1
S224001AE0000708F0FE084FF0260C4FF0000E394620460222012385F8748087F800C087F8C2
S224001B0001E00DF0C5FE03E095F87430DA070CD4204602A90DF0BEFFBDF80830002BF3D0A4
S224001B20002040B204B0BDE8F081204669460DF0BFFF9DF80030012BF7D195F8748040F288
S224001B409C3108F0FE084FF0260C4FF0B90EC2F200012046022285F8748087F800C087F8D0
S224001B6001E00DF095FE95F87430DB07FBD5204669460DF09DFF9DF800000128F7D14FF099
S224001B805E524FF06E5340B23261736104B0BDE8F08100BF2DE9F04340F2B044C2F2000487
S224001BA083B08846174600211E22054640F29C360DF038FF94F87490C2F2000609F0FE0994
S224001BC04FF02A0C4FF0000E314628460222012384F8749086F800C086F801E00DF058FEA1
S224001BE094F87430D807FBD528460DF107010DF05FFF9DF80730012BF6D194F8749040F2B1
S224001C009C3109F0FE094FF05B0C4FF01F0EC2F200012846022284F8749086F800C086F85D
S224001C2001E00DF035FE94F87430D907FBD528460DF107010DF03CFF9DF80730012BF6D143
S224001C4094F8749040F29C3109F0FE094FF05C0C4FF0200EC2F200012846022284F8749015
S224001C6086F800C086F801E00DF012FE94F87430DA07FBD528460DF107010DF019FF9DF8B6
S224001C800730012BF6D194F874C0737040F29C310CF0FE0C4FF00E0EC2F2000128460222CB
S224001CA084F874C086F800E00DF0F2FD94F87430DB07FBD528460DF107010DF0F9FE9DF846
S224001CC00730012BF6D194F874904FF0020E40F29C3109F0FE094FF02B0C7246C2F2000114
S224001CE0284684F8749086F801E086F800C00DF0CFFD94F87430D807FBD528460DF1070138
S224001D000DF0D6FE9DF80730012BF6D194F8749040F29C3109F0FE094FF02A0C4FF00D0ED0
S224001D20C2F200012846022284F8749086F800C086F801E00DF0ACFD94F87430D907FBD5B4
S224001D4028460DF107010DF0B3FE9DF80730012BF6D14CF6CD4200234FF06451C3F6CC525E
S224001D60C4F22013C8F82410FA633B6403B0BDE8F08300BF2DE9F04140F2B044C2F20004D6
S224001D80202282B00E460021054640F29C370DF049FE94F87480C2F2000708F0FE084FF049
S224001DA0130C4FF0000E394628460222012384F8748087F800C087F801E00DF069FD94F87F
S224001DC07430DA07FBD528460DF107010DF070FE9DF80730012BF6D194F8748040F29C318C
S224001DE008F0FE084FF00D0C4FF0000EC2F200012846022284F8748087F800C087F801E0E5
S224001E000DF046FD94F87430DB07FBD528460DF107010DF04DFE9DF80730012BF6D194F894
S224001E2074804FF0020E40F29C3108F0FE084FF0130C7246C2F20001284684F8748087F835
S224001E4001E087F800C00DF023FD94F87430DF07FBD528460DF107010DF02AFE9DF80730F5
S224001E60012BF6D14CF6CD43C3F64C53B36102B0BDE8F0812DE9F04140F2B045C2F20005BD
S224001E80602282B088460021064640F29C370DF0C9FD95F874E0C2F2000701240EF0FE0EBB
S224001EA0394622463046002385F874E03C700DF0EFFC95F8743040F2B044DB07C2F2000447
S224001EC0F7D594F874E040F29C310EF0FD0EC2F2000130460522012384F874E00DF040FDC9
S224001EE095F874309C07FBD5304669460DF0E0FD9DF80030012BF7D13B787978BA781B068A
S224001F0043EA014343EA0223C8F80030FA783B7943EA0223A8F81A3002B0BDE8F08100BF20
S224001F202DE9F04F40F2B048C2F2000885B00E46154600211E22814640F29C340DF072FDE7
S224001F4098F874E0C2F2000401270EF0FE0E21463A464846002388F874E027700DF098FC1A
S224001F6098F8743040F2B047D907C2F20007F7D597F874E040F29C310EF0FD0EC2F20001F8
S224001F8048460C22012387F874E00DF0E9FC98F874309A07FBD5484602A90DF089FD9DF8B1
S224001FA00830012BF7D1637AA079E17994F800B094F801A00093A37A94F80290227A94F841
S224001FC00380019341EA0021009894F804C06779E47A4AEA0B2A40EA022348EA0928019ABD
S224001FE0A6F82A800FFA8AF919F5004F44EA022447EA0C2708BF48F201020FFA88F8B7852A
S224002000A6F828A0A5F84410A5F84630A5F8484008BF328518F5004F08BF48F201023FB25D
S22400202008BF728517F5004F08BF48F2010209B208BFB28511F5004F1BB204BF48F20102A3
S224002040A5F8442013F5004F08BF03F1011324B208BFA5F8463014F5004F04BF48F201034B
S224002060A5F8483005B0BDE8F08F00BF2DE9F04740F2B045C2F2000582B089469046002189
S2240020802022064640F29C370DF0CCFC95F874E0C2F2000701240EF0FE0E394622463046BB
S2240020A0002385F874E03C700DF0F2FB95F8743040F2B044DB07C2F20004F7D594F874E0F4
S2240020C040F29C310EF0FD0EC2F2000130460622012384F874E00DF043FC95F874309807A0
S2240020E0FBD5304669460DF0E3FC9DF80030012BF7D13C78797897F802A0FE7897F804C0B2
S2240021007D794FEA480303EB080241EA042109EB42020CB202F1180014F5004F46EA0A263F
S22400212045EA0C259183D683158404BF48F20102828003EB080209EB42029844B2F91E104D
S2240021401A3211F5004F09EB480904BF01F101119180B9F9203009F11C0913F5004F04BF81
S22400216003F10113A9F8043002B0BDE8F08700BF41F67423C0F2010310B5044693E80700DB
S22400218040F2AC33C2F2000303C323F8022B1946120C01F80A2920460A220DF087FF204640
S2240021A00DF0AEFF0A28FAD140F24433C2F2000340F2AC415869C2F200010422BDE8104063
S2240021C00DF05ABF4FF0E0232DE9F00FD3F8102D40F22C5422F00402C2F20004C3F8102D0B
S2240021E0217A40F2AC33C2F200037E258EB00122A94201901D705A7000F070817D2901BF59
S2240022005D229970DA7004201CBF9970032040F2B042C2F20002013192F8705021727E2D28
S22400222000F037827D2D07BF99491D5498491D5405BF5D250D540130023092F871507E2DDB
S22400224000F021827D2D03BF5D261D540E541D540CBF851C451C92F872007E2800F00D82C5
S2240022607D2803BF5D2658554E5558550CBFA81C681C92F873507E2D00F036817D2D05BF52
S2240022805D271D541D54861C0CBF0F54461C40F25450C2F2000090F82E507E2D00F03281C3
S2240022A07D2D05BF5D279D559D55B51C14BF751C8F5590F82F607E2E00F02E817D2E03BF5B
S2240022C05D275E554F555E550CBFAE1C6E1C90F830507E2D00F02A817D2D05BF5D279D551A
S2240022E09D55B51C14BF751C8F5590F831607E2E00F026817D2E03BF5D275E554F555E5577
S2240023000CBFAE1C6E1C90F832507E2D00F022817D2D90F8330005BF9D555D279D55B51CEF
S22400232014BF751C8F557E2800F01F817D280CBF5855585542F22440C2F2000003BF5D27BE
S224002340AE1C4F556E1C90F850507E2D00F01B817D2D05BF5D279D559D55B51C14BF751C16
S2240023608F5590F851607E2E00F017817D2E03BF5D275E554F555E550CBFAE1C6E1C90F865
S22400238052507E2D00F013817D2D05BF5D279D559D55B51C14BF751C8F5590F853607E2E91
S2240023A000F00F817D2E03BF5D275E554F555E550CBFAE1C6E1C90F854507E2D00F00B812B
S2240023C07D2D90F8550005BF9D555D279D55B51C14BF751C8F557E2800F008817D280CBF9D
S2240023E05855585541F20870C2F2000003BF5D27AE1C4F556E1C90F84C507E2D00F004819D
S2240024007D2D05BF5D279D559D55B51C14BF751C8F5590F84D607E2E00F000817D2E03BF09
S2240024205D275E554F555E550CBFAE1C6E1C90F84E507E2D00F0FC807D2D05BF5D279D55C9
S2240024409D55B51C14BF751C8F5590F84F607E2E00F0F8807D2E03BF5D275E554F555E5526
S2240024600CBFAE1C6E1C90F850507E2D00F0F4807D2D90F8510005BF9D555D279D55B51C81
S22400248014BF751C8F557E2800F0F18002E000BFAD0300207D2803BF5D2658554E55585590
S2240024A00CBFA81C681C26790025ADF83450ADF83250ADF83050ADF82050ADF81850ADF804
S2240024C01050ADF82850052E01F28986DFE816F0D804C1054006BF064607EE007D205E2273
S2240024E09870DA70042092E67D265E251E540D54861C40F25450C2F2000090F82E507E2D13
S2240025007FF4CEAE5E257D279F558D55B51C90F82F607E2E7FF4D2AE7D265E275E554F55C4
S224002520AE1C90F830507E2D7FF4D6AE5E257D279F558D55B51C90F831607E2E7FF4DAAE94
S2240025407D265E275E554F55AE1C90F832507E2D7FF4DEAE90F833005E257D277E289F55FD
S2240025608D5506F102057FF4E1AE7D265E205E55485542F22440C2F20000AE1C90F85050C5
S2240025807E2D7FF4E5AE5E257D279F558D55B51C90F851607E2E7FF4E9AE7D265E275E55ED
S2240025A04F55AE1C90F852507E2D7FF4EDAE5E257D279F558D55B51C90F853607E2E7FF49D
S2240025C0F1AE7D265E275E554F55AE1C90F854507E2D7FF4F5AE90F855005E257D277E2877
S2240025E09F558D5506F102057FF4F8AE7D265E205E55485541F20870C2F20000AE1C90F8C7
S2240026004C507E2D7FF4FCAE5E257D279F558D55B51C90F84D607E2E7FF400AF7D265E2758
S2240026205E554F55AE1C90F84E507E2D7FF404AF5E257D279F558D55B51C90F84F607E2ECC
S2240026407FF408AF7D265E275E554F55AE1C90F850507E2D7FF40CAF90F851005E257D2701
S2240026607E289F558D5506F102057FF413AF7D205E265855A81C4E5515E75E207D265E55A1
S2240026804855A81CF5E55E257D261E540D54851CE1E503497D265E251E540D540230CCE572
S2240026A0AD0300200060EA4633CB4C4541F25C75C2F2000595ED154AF3EE046AD5ED164A17
S2240026C0D5ED171A95ED005A24EE264AF2EE047A1FED0C7AD5ED0E2A95ED0F3AD5ED103AE3
S2240026E095ED111AD5ED015A95ED036A95ED2E2A64EEA64A25EE275A61EEA66ABDEEC44A54
S224002700D5F8608046F2676A62EE872A23EE073A63EE873A65EEA75A26EE276A14EE109AF4
S22400272021EE077A62EE277AC6F2666AFDEEE44AFDEEE66ABDEEC55A8AFB08BA4FEAE8788D
S224002740C8EBEA0814EE90BA16EE90AAFDEEE22ABDEEC33AFDEEE33ABDEEC77AADF830904D
S224002760FDEEE55A15EE109ABDEEC66AFDEEE77A12EE90CA13EE107A13EE906A17EE105A07
S224002780ADF832B0ADF834A015EE90BA16EE10AAADF8109017EE909AADF828801FFA8CFCC7
S2240027A0BFB2B6B2ADB2ADF818B0ADF820A01FFA89F94FF018085FFA8CFABAF17E0FADF854
S2240027C008C000F0E283BAF17D0F02BF4FF05D0C03F800A001F800C09DF809C016BF03F8B5
S2240027E000A002300130BCF17E0F00F0DE83BCF17D0F0ABF03F800C003F800C04FF05D0A28
S2240028005FFA87FC0ABF01F800A001300230BCF17E0FADF8087000F0DA83BCF17D0F05BF71
S2240028205D2703F800C003F800C000F1020C14BF00F1010C0F549DF809007E2800F0D483DB
S2240028407D2806BF03F80C004FF05D0A03F80C00F0B206BF0CF1020701F80CA00CF101073E
S2240028607E28ADF8086000F0CD837D2802BF5D26D855CE559DF8096016BFD855B81C781CBF
S2240028807E2E00F0CA837D2E05BF5D271E541E540F540CBF861C461CE8B27E28ADF8085004
S2240028A000F0C6837D2802BF5D2598558D559DF8095016BF9855B01C701C7E2D00F0C3833A
S2240028C07D2D05BF5D271D541D540F540CBF861C461C981994F801A003F806804FF07E0CC5
S2240028E04FF0050840F2AC3540F22C5701F80680C2F2000580F802C0C2F20007F01CBAF1DB
S224002900000F40F0BF87267840F22C55C2F20005002E40F0C786A67840F22C55C2F20005EE
S224002920002E40F0CF85E67840F22C55C2F2000526B195F90960002E41F02082267A7E2702
S224002940062540F2AC32BE421F54C2F200020D5400F1020500F0A8857D2E01BFD71C4FF0FB
S2240029605D0CAE5400F807C016BFAE54051DC51C40F22C62C2F20002013692F8560B26721E
S2240029807E2800F08A857D2803BF5D2658554E5558550CBFA81C681C92F8575B7E2D00F0BC
S2240029A075857D2D03BF5D261D540E541D540CBF851C451C41F2F020C2F20000D0ED0E7ADC
S2240029C01FEDC77AF4EEC77AF1EE10FA00F34585B2EE047A67EE877AFDEEE77A17EE906A1D
S2240029E0B6B2F7B27E2FADF8086000F03E857D2F07BF4FF05D0C5F555F556E1C04BFAE1CBB
S224002A0001F805C09DF809507E2D00F038857D2D05BF4FF05D0C9D559D5501F806C00CBF29
S224002A20B71C771CE5881FFA85FAAAF10A0C1FFA8CFC4AF6AB260FFA8CF8C2F6AA2686FB2D
S224002A4008B64FEAE878C8EB6606B6B2A6EB86080FFA85FB0CEB8808BBF1090F1FFA88F807
S224002A600FDD0FFA88FC0CEB4C0C4FEACC0C0CFA86FC0CF5D87C52F82CC0BCF1FF3F01F089
S224002A8088825FFA85FCBCF17E0FADF8085000F07D87BCF17D0F03BF5D2503F807C0CD55C1
S224002AA003F807C00CBF07F1020C07F1010C9DF809507E2D00F060877D2D03BF5D2703F81E
S224002AC00C5001F80C7003F80C500CBF0CF102050CF10105B4F90670092F01F26380DFE8FF
S224002AE017F082012F01DE006C000A000A000A000A000A000A000022ADF808209DF80920E4
S224002B0000207E2A585505F1010501F0A5827D2A05BF5D275A555A554F550CBFAE1C6E1C17
S224002B207E2A985506F1010501F02E837D2A05BF5D275A555A554F550CBFAE1C6E1C7E2AA4
S224002B40985506F1010000F0A4807D2A05BF5D261A541A540E540CBF851C451CE088277976
S224002B60013080B206B240F22C52B6F5957FC2F20002A7F10408A8BF00205FFA88F8D080BC
S224002B804FF07E0C40F2AC3040F22C56B8F1010FC2F2000003F805C0C2F2000605F10102C5
S224002BA040F2FE8640F2AC31019892B2C2F200010EB0BDE8F00F0DF079BA90ED047ADFED60
S224002BC0AE7A67EE277AFDEEE77A17EE906AF2B27E2AADF8086001F0D0827D2A05BF5D27FC
S224002BE05A555A554F5514BF6E1CAE1C9DF809207E2A01F0BB827D2A05BF5D279A559A5546
S224002C008F550CBFB51C751C90ED057ADFED9A7A67EE277AFDEEE77A17EE906AF2B27E2A35
S224002C20ADF8086001F09B827D2A05BF5D275A555A554F5514BF6E1CAE1C9DF809207E2AF6
S224002C4001F086827D2A05BF5D279A559A558F550CBFB51C751C90ED087ADFED877A67EE77
S224002C60277AFDEEE77A17EE900AC2B27E2AADF8080000F0FB807D2A05BF5D265A555A5543
S224002C804E5514BF681CA81C9DF809207E2A7FF45CAF7D255E221D54851C0A545EE790ED39
S224002CA0037ADFED757A67EE277AFDEEE77A17EE906AF2B27E2AADF8086001F042827D2AE1
S224002CC005BF5D275A555A554F5514BF6E1CAE1C9DF809207E2A01F02D827D2A05BF5D2789
S224002CE09A559A558F550CBFB51C751C90ED077ADFED617A67EE277AFDEEE77A17EE906AFA
S224002D00F2B27E2AADF8086001F00D827D2A05BF5D275A555A554F5514BF6E1CAE1C9DF828
S224002D2009207E2A01F0F8817D2A05BF5D279A559A558F550CBFB51C751C90ED0B7A8CE700
S224002D4090ED007AF2EE047A67EE277AFDEEE77A17EE906AF2B27E2AADF8086001F0D58138
S224002D607D2A05BF5D275A555A554F5514BF6E1CAE1C9DF809207E2A01F0C0817D2A05BF33
S224002D805D279A559A558F550CBFB51C751C90ED017AF2EE047A67EE277AFDEEE77A17EE1E
S224002DA0906AF2B27E2AADF8086001F0A0817D2A05BF5D275A555A554F5514BF6E1CAE1C91
S224002DC09DF809207E2A01F08B817D2A05BF5D279A559A558F550CBFB51C751C90ED027AB4
S224002DE0F2EE047A3BE70022ADF808209DF8092000267E2A5E5505F1010501F06A817D2AA1
S224002E0005BF5D275A555A554F550CBFAE1C6E1C90ED0C7AF2EE047A67EE277AFDEEE77AA1
S224002E2017EE900AC2B27E2AADF8080001F04A817D2A05BF5D259A559A558D5514BF701C5D
S224002E40B01C9DF809207E2A01F035817D2A05BF5D261A541A540E540CBF851C451C5FFA42
S224002E6089F27E2AADF808907FF405AF7D205E2258554A55A81C07E700007A440060EA465D
S224002E8041F28415C2F20005D5ED154AF3EE046A95ED165A95ED172A64EEA64A5FED097A72
S224002EA095ED0E3AD5ED005A95ED016A25EE265AFDEEE44A62EE266AB2EE047AD5F86090D3
S224002EC023EE273A46F26768D5ED0F3A95ED104AD5ED111AD5ED032A65EE875A26EE076AF8
S224002EE014EE90AAC6F26668BDEEC55AFDEEE66A88FB09B8BDEEC33A4FEAE979C9EBE808DB
S224002F0063EEA73A24EE274A15EE109A61EEA77A22EE877AADF830A0FDEEE55A16EE90AAEC
S224002F20BDEEC66A13EE10CAFDEEE33ABDEEC44AFDEEE77AADF83290ADF834A015EE909ABC
S224002F4016EE10AABDEEC77A1FFA8CFC13EE907A14EE106A17EE905AADF81090ADF818A009
S224002F6017EE109A5FFA8CFABAF17E0FADF82090ADF82880BFB2B6B2ADB24FF011084FF015
S224002F800009ADF808C07FF41EAC4FF05E0C4FF07D0A03F800A001F800C09DF809C0BCF1AB
S224002FA07E0F00F102007FF422AC4FF05E0C4FF07D0A03F800A001F800C05FFA87FCBCF1FF
S224002FC07E0F00F10200ADF808707FF426AC4FF07D0C5E2703F800C00F5400F1020C9DF80B
S224002FE009007E287FF42CAC7D275E2003F80C7001F80C00F0B27E280CF10207ADF80860D9
S2240030007FF433AC7D26DE559DF809605E207E2EC85507F102007FF436AC7D265E271E5455
S2240030200F54861CE8B27E28ADF808507FF43AAC7D259D559DF809505E207E2D885506F171
S22400304002007FF43DAC7D265E251E54861C0D543FE440F28855C2F20005D5ED154A95EDE4
S224003060165AF3EE046A95ED172AD5ED005A64EEA64A25EE265AB2EE047AD5F8609046F2C5
S22400308067685FED827A95ED0E3AD5ED0F3A95ED104AD5ED111A95ED016AD5ED032A65EE47
S2240030A0875A62EE266AC6F26668FDEEE44ABDEEC55A88FB09B84FEAE979C9EBE80823EE4D
S2240030C0273A63EEA73A24EE274A26EE076A14EE90AA15EE109A61EEA77A22EE877AFDEEFB
S2240030E0E66AFDEEE55ABDEEC33AFDEEE33ABDEEC44AFDEEE77AADF830A0ADF8329016EEBC
S22400310090AA15EE909ABDEEC66ABDEEC77A13EE10CA13EE907A14EE106A17EE905AADF886
S22400312034A0ADF8109016EE10AA17EE109AADF82880ADF820901FFA8CFCBFB2B6B2ADB289
S224003140ADF818A04FF016084FF00009FFF733BB42F27C45C2F20005D5ED154A95ED165AC3
S224003160F3EE046A95ED172AD5ED005A64EEA64A25EE265AB2EE047AD5F8609046F2676865
S2240031805FEDC27A95ED0E3AD5ED0F3A95ED104AD5ED111A95ED016AD5ED032A65EE875AF4
S2240031A062EE266AC6F26668FDEEE44ABDEEC55A88FB09B84FEAE979C9EBE80823EE273ACC
S2240031C063EEA73A24EE274A26EE076A14EE90AA15EE109A61EEA77A22EE877AFDEEE66A0B
S2240031E0FDEEE55ABDEEC33AFDEEE33ABDEEC44AFDEEE77AADF830A0ADF8329016EE90AAD1
S22400320015EE909ABDEEC66ABDEEC77A13EE10CA13EE907A14EE106A17EE905AADF834A0EB
S224003220ADF8109016EE10AA17EE109AADF82880ADF820901FFA8CFCBFB2B6B2ADB2ADF8B7
S22400324018A04FF013084FF00009FFF7B4BA41F24425C2F2000595ED154AF3EE046AD5ED64
S224003260164AD5ED171A95ED005A24EE264AF2EE047A9FED937AD5ED0E2A95ED0F3AD5ED1A
S224003280103A95ED111AD5ED015A95ED036A95ED272A64EEA64A25EE275A61EEA66ABDEE73
S2240032A0C44AD5F8608046F2676A62EE872A23EE073A63EE873A65EEA75A26EE276A14EEE5
S2240032C0109A21EE077A62EE277AC6F2666AFDEEE44AFDEEE66ABDEEC55A8AFB08BA4FEA98
S2240032E0E878C8EBEA0814EE90BA16EE90AAFDEEE22ABDEEC33AFDEEE33ABDEEC77AADF802
S2240033003090FDEEE55A15EE109ABDEEC66AFDEEE77A12EE90CA13EE107A13EE906A17EE05
S224003320105AADF832B0ADF834A015EE90BA16EE10AAADF8109017EE909AADF828801FFA39
S2240033408CFCBFB2B6B2ADB2ADF818B0ADF820A01FFA89F94FF01208FFF72DBA41F69475C5
S224003360C2F20005D5ED154A95ED165AF3EE046A95ED172AD5ED005A64EEA64A25EE265A79
S224003380B2EE047AD5F8609046F26768DFED4C7A95ED0E3AD5ED0F3A95ED104AD5ED111A16
S2240033A095ED016AD5ED032A65EE875A62EE266AC6F26668FDEEE44ABDEEC55A88FB09B86B
S2240033C04FEAE979C9EBE80823EE273A63EEA73A24EE274A26EE076A14EE90AA15EE109A14
S2240033E061EEA77A22EE877AFDEEE66AFDEEE55ABDEEC33AFDEEE33ABDEEC44AFDEEE77A2D
S224003400ADF830A0ADF8329016EE90AA15EE909ABDEEC66ABDEEC77A13EE10CA13EE907AB3
S22400342014EE106A17EE905AADF834A0ADF8109016EE10AA17EE109AADF82880ADF820904F
S2240034401FFA8CFCBFB2B6B2ADB2ADF818A04FF014084FF00009FFF7AEB947F6FF76F7B2D6
S2240034607E2FADF808607FF4C2AA5E267D275F554E55AE1C9DF809507E2D7FF4C8AA7D2743
S2240034805E259F55B71C8D55FFF7CCBA7D255E261D54851C0E54FFF78DBA5E207D265E55D4
S2240034A04855A81CFFF778BAD71C4FF07D084FF05E0C05F80280051D00F807C0FFF758BAB6
S2240034C00060EA462E7A4FF07E0C042740F2AC35664503F800C0C2F200050F5400F102072C
S2240034E000F0A0807D2E01BF05F1030C4FF05D087E5500F80C8016BF7E55051DC51C92F817
S224003500700001367E28267200F09E807D2805BF5D2658555855A81C14BF681C4E5592F825
S22400352071507E2D00F09A807D2D05BF5D261D541D54851C14BF451C0E5492F872007E2864
S22400354000F096807D2805BF5D2658555855A81C14BF681C4E5592F873507E2D00F0928062
S2240035607D2D03BF5D261D540E541D540CBF851C451C9DF810007E2800F08E807D2805BF94
S2240035805D26585558554E5514BF6F1CAF1C9DF811007E2800F059857D2805BF5D25D8554B
S2240035A0D855CD550CBFBE1C7E1C9DF818007E2800F044857D2805BF5D27985598558F55C1
S2240035C014BF751CB51C9DF819007E2800F02F857D2805BF5D27585558554F550CBFAE1C39
S2240035E06E1C9DF820007E2800F005857D2805BF5D27985598558F5514BF751CB51C9DF8F2
S22400360021007E2800F0F0847D2803BF5D2658554E5558550CBFA81C681C7E251D5401303B
S224003620FFF781B905F1030C4FF07D0A4FF05E0807F805A000F80C80051D92F8700001366A
S2240036407E2826727FF462AF5E207D265E554855A81C92F871507E2D7FF466AF5E257D26CA
S2240036601E540D54851C92F872007E287FF46AAF5E207D265E554855A81C92F873507E2D76
S2240036807FF46EAF7D255E261D540E54851C9DF810007E287FF472AF7D265E205E55AF1C7D
S2240036A0485574E72E7A4FF07E0C032740F2AC35664503F800C0C2F200050F5400F10207E3
S2240036C000F0A0807D2E01BF05F1030C4FF05D087E5500F80C8016BF7E55051DC51C92F835
S2240036E0700001367E28267200F09E807D2805BF5D2658555855A81C14BF681C4E5592F844
S22400370071507E2D00F09A807D2D05BF5D261D541D54851C14BF451C0E5492F872007E2882
S22400372000F096807D2805BF5D2658555855A81C14BF681C4E5592F873507E2D00F0928080
S2240037407D2D03BF5D261D540E541D540CBF851C451C9DF830007E2800F08E807D2805BF92
S2240037605D26585558554E5514BF6F1CAF1C9DF831007E2800F054847D2805BF5D25D8554F
S224003780D855CD550CBFBE1C7E1C9DF832007E2800F03F847D2805BF5D27985598558F55CB
S2240037A014BF751CB51C9DF833007E2800F02A847D2805BF5D27585558554F550CBFAE1C43
S2240037C06E1C9DF834007E2800F007847D2805BF5D27985598558F5514BF751CB51C9DF8FB
S2240037E035007E2800F0F3837D2803BF5D2658554E5558550CBFA81C681C7E251D54013044
S224003800FFF789B805F1030C4FF07D0A4FF05E0807F805A000F80C80051D92F87000013681
S2240038207E2826727FF462AF5E207D265E554855A81C92F871507E2D7FF466AF5E257D26E8
S2240038401E540D54851C92F872007E287FF46AAF5E207D265E554855A81C92F873507E2D94
S2240038607FF46EAF7D255E261D540E54851C9DF830007E287FF472AF7D265E205E55AF1C7B
S224003880485574E73F7A05F800C0281D4FF0020C7E2F06F800C006EB08004CD07D2F01BF37
S2240038A005F1060C4FF05D08475506F80C8016BF4755F51DB51D4FF4D27606F0A40001377F
S2240038C07E282772ADF8086050D07D2803BF5D2658554E5558550CBFA81C681C9DF809508F
S2240038E07E2D34D07D2D03BF5D261D540E541D540CBF851C451C9DF828007E2830D07D280C
S22400390005BF5D27585558554F5514BF6E1CAE1C9DF829007E2800F054837D2803BF5D2521
S22400392098558D5598550CBFB01C701C7E251D540130FEF7E8BF05F1060C4FF07D0A4FF0B5
S2240039405E0800F805A0F51D06F80C80B3E77D255E261D540E54851C9DF828007E28CED18D
S2240039607D265E205E554855AE1CD1E75E207D265E554855A81CB1E77D255E2703F80C5004
S2240039800CF1020501F80C70FFF7A4B84FF07D0C5E2503F807C0CD5507F1020CFFF787B8ED
S2240039A0367A00F802C0821C4FF0070C7E2E05F802C005F1030268D07D2E01BF00F1040C9E
S2240039C04FF05D08165405F80C8016BF16546A1D2A1D013641F25C7541F69470042F2672FD
S2240039E094F804C0DFEDD47ADFEDD46A9FEDD57AC2F20005C2F200004FF0000647F6FF7A0B
S224003A004FF07D094FF05E084FF05D0B24D0052F18BF002700F0A081ADF808709DF808702F
S224003A207E2F00F093817D2F9F540ABF01F802B0571C971C9DF809207E2A00F077817D2AA2
S224003A40DA550ABF01F807B07A1CBA1C04360C2E27D06746042FDAD1371897ED1C6A26EEEA
S224003A60076AB4EEE76AF1EE10FAC8BFADF808A0D4DCB4EEE66AF1EE10FA00F18082BDEEF7
S224003A80C66A16EE107ABFB2C6E700F1040C4FF07D094FF05E0802F800906A1D05F80C8040
S224003AA097E741F25C7C41F6947726799FEDA27A9FEDA26ADFEDA36AC2F2000CC2F2000703
S224003AC0002047F6FF7A4FF07D094FF05E084FF05D0B042E00F02481052E18BF002500F014
S224003AE00481ADF808509DF808507E2D00F0F7807D2D9D540ABF01F802B0551C951C9DF87A
S224003B0009207E2A00F0E5807D2A5A550ABF01F805B06A1CAA1C04300C28DAD141F25C7748
S224003B2041F6947625799FED847A9FED846ADFED846AC2F20007C2F2000600204FF4004BC0
S224003B4047F6FF794FF07D084FF05E0C4FF05D0A042D00F0B880052D18BF002400F096800C
S224003B60ADF808409DF808407E2C00F001817D2C9C540ABF01F802A0541C941C9DF809207F
S224003B807E2A00F0EF807D2A1A550ABF01F804A0621CA21C04300C28DAD17E21995401328F
S224003BA0FFF700B80FFA88F84FEA480036B200EB080706EBC70702EB470C12F817707E2F29
S224003BC000F071827D2F03BF4FF05D095F5501F805905F550CBFAF1C6F1C9CF801507E2D43
S224003BE000F058827D2D05BF4FF05D09DD55DD5501F807900CBF07F1020C07F1010C00EB2E
S224003C00080506EBC50505F5907502EB450912F815507E2D00F035827D2D05BF4FF05D0AC8
S224003C2003F80C5003F80C5001F80CA014BF0CF101070CF1020799F801507E2D00F0198236
S224003C407D2D03BF4FF05D0CDD5501F807C0DD550CBFBD1C7D1C404406EBC00000F5107040
S224003C6002EB400612F810207E2A00F0FC817D2A05BF5D275A555A554F5514BF681CA81CB1
S224003C8072787E2A7EF461AFFFF703B8C419D4ED1F7A67EEA67AF4EEC77AF1EE10FAC8BF1B
S224003CA0ADF808903FF75EAFF4EEC67AF1EE10FA48BFADF808B03FF555AFFDEEE77A17EE87
S224003CC0904AA4B24CE78419D4ED1F7A67EEA67AE1E703F80590AA1C01F805801BE703F877
S224003CE00290951C01F8028009E700EB0C05D5ED197A67EEA67AF4EEC77AF1EE10FAC8BFB8
S224003D00ADF808A03FF7EFAEF4EEC67AF1EE10FA00F13A81FDEEE77A17EE905AADB2E0E667
S224003D20C519D5ED197A67EEA67AE4E703F80790BA1C01F8078089E600FEFF46000000C7AA
S224003D4000401C4600007A440000C84203F80290971C01F802806DE6771997ED1C6A26EE38
S224003D60076A7EE603F80480A21C01F804C011E703F80280941C01F802C0FFE62E7A4FF0C3
S224003D807E0C052740F2AC35664503F800C0C2F200050F5400F1020700F0BA807D2E01BF44
S224003DA005F1030C4FF05D087E5500F80C8016BF7E55051DC51C92F8700001367E282672E4
S224003DC000F0B8807D2805BF5D2658555855A81C14BF681C4E5592F871507E2D00F0B48098
S224003DE07D2D05BF5D261D541D54851C14BF451C0E5492F872007E2800F0B0807D2892F8C3
S224003E00732005BF58555D265855A81C14BF681C4E557E2A00F0AD807D2A05BF5D251A548B
S224003E201A540D540CBF861C461C40F23C52C2F2000292ED007A5FED3D7A67EE277AFDEE8C
S224003E40E77A17EE900AC5B27E2DCDED0B7A00F0B4817D2D03BF5D209D5588559D550CBF62
S224003E60B51C751C9DF82D007E2800F094817D2805BF5D27585558554F5514BF6E1CAE1C5C
S224003E809DF82E007E2800F092817D2805BF5D27985598558F5514BF751CB51C9DF82F000D
S224003EA07E2800F07E817D2805BF5D27585558554F550CBFAE1C6E1C92ED017A5FED5E7A40
S224003EC067EE277AFDEEE77A17EE900AC2B27E2AADF8080000F07D817D2A05BF5D209A556E
S224003EE09A55885514BF751CB51C9DF809207E2A00F069817D2A05BF5D265A555A554E558D
S224003F000CBFA81C681C7E221A540130FEF716BD05F1030C4FF07D0A4FF05E0807F805A06E
S224003F2000F80C80051D92F8700001367E2826727FF448AF5E207D265E554855A81C92F83E
S224003F4071507E2D7FF44CAF5E257D261E540D54851C92F872007E287FF450AF92F87320B7
S224003F605E207D267E2A5E55485505F102007FF453AF7D255E221D54861C0A5455E748F2AD
S224003F800007ADF8087049E548F20005ADF80850A9E5CAF1000A5FFA8AF57E2DADF808A06B
S224003FA03FF4F4AC7D2D07BF4FF05D0ADD55DD5507F1010C04BF07F1020C01F807A0FEF74C
S224003FC076BD7D205E259855B01C8D55AEE47D205E265855A81C4E550FE47D255E209D5522
S224003FE08855B51CFFF7FBBB7D205E265855A81C4E55FFF712BB7D255E209D558855B51CAA
S224004000FFF7FDBA7D265E205E55AE1C4855FFF7D8BB7D255E209D558855B51CFFF7C3BBF6
S2240040207D255E20DD55BE1CC855FFF7AEBB7D265E205E55AE1C4855FFF7D3BA7D255E20F5
S2240040409D558855B51CFFF7BEBA7D255E20DD55BE1CC855FFF7A9BA7D265E275E55AE1C06
S2240040604F55FEF75DBD7D205E2258554A55A81C06E67D254FF05E0CDD55BD1C01F807C059
S224004080E9E57D275E2503F80C7001F80C500CF10207D0E54FF07D0C5E2503F807C007F19A
S2240040A0020CCD55ABE55E274FF07D0903F805904F55AF1C91E57D255E221D54851C0A54EA
S2240040C0FEF7CDBE7D205E2298558A55B01CFEF7B8BE7D265E225E55AE1C4A55FEF798BEB1
S2240040E07D255E229D55B51C8A55FEF777BE7D265E225E554A55AE1CFEF762BE7D255E2257
S2240041009D55B51C8A55FEF742BE7D265E225E554A55AE1CFEF72DBE7D255E229D55B51CFF
S2240041208A55FEF70ABE7D265E225E554A55AE1CFEF7F5BD7D255E229D55B51C8A55FEF73F
S224004140D5BD7D265E225E554A55AE1CFEF7C0BD7D255E229D55B51C8A55FEF77CBD7D2682
S2240041605E225E554A55AE1CFEF767BD7D255E229D55B51C8A55FEF747BD7D265E225E55F2
S2240041804A55AE1CFEF732BD7D265E275E55AE1C4F55FEF7D4BC7D265E205E554855AE1CC4
S2240041A06EE67D265E205E55AE1C485584E67D255E209D558855B51C70E67D255E209D55D9
S2240041C08855B51C4EE67D205E225855A81C4A5599E67D205E229855B51C8A5585E6002502
S2240041E02E462F46A9464FF0100847F2305CFEF7E2BA00BF06EE101AF8EEC66AF7EE007AE3
S224004200C7EEA66A2DE9F84F0446002600F2844700F27C4B00F5906A00F58F6900F59168C7
S22400422000F20C4C06EE102AB8EEC67A2DED028B26EE877ADFEDD28A27EE076AB5EE008A84
S22400424000F5826E04F5836100F2144004F21C4304F584620025A4F88C64CBED006A8AEDD3
S224004260007A87ED006A04F5856A89ED008AC8ED008A04F22C4904F58668CCF80050CEF88E
S224004280005004F2344C056004F5876E0D6004F23C401D6004F58861156004F2444304F5D7
S2240042A08962CAF80050C9F8005004F58A6AC8F8005004F2544904F58B68CCF8005004F265
S2240042C0644BCEF8005004F25C4C056004F58C6E0D601D6004F58D61156004F26C4304F53A
S2240042E08E62CAF80050C9F8005004F2744AC8F8005004F24C4904F22448CCF8005004F1EC
S2240043001400CEF80050CBF800500D601D601560CAED007AC9ED007AC8ED007A06F03CF941
S22400432004F1380008F00EFB84F8646084F8656084F8666084F8676084F8686084F86960BB
S22400434084F86A6084F86B6084F86C6084F86D6084F86E6084F86F6084F8E46084F8E56024
S22400436084F8E66084F8E76084F8E86084F8E96084F8EA6084F8EB6084F8EC6084F8ED600C
S22400438084F8EE6084F8EF6084F87C6084F87D6084F87E6084F87F6084F8806084F8816064
S2240043A084F8826084F8836084F8846084F8856084F8866084F8876084F8706084F871601C
S2240043C084F8726084F8736084F8746084F8756084F8766084F8776084F8786084F879604C
S2240043E084F87A6084F87B60D7ED006A9FED657ADFED657A26EE877A40F22C53E7EE287A8A
S224004400C2F20003C4F8CC52C4F8D052C4F8D852C4F8DC52C4F8E052C4F8E452C4F8E85282
S224004420C4F8EC52C4F8F452C4F8F852C4F80053C4F80453C4F80853C4F80C53C4F8105302
S224004440C4F81453C4F81C53C4ED457AC4F82053C4F82853C4F82C53C4F83053C4F8385372
S224004460C4F83C53C4F84453C4F84853C4F84C53C4F85053C4F85453C4F85853C4F860534F
S224004480C4F86453C4F86C53C4F87053C4F87453C4F87853C4F87C53C4F88053C4F88853EF
S2240044A0C4F88C53C4F89453C4F89853C4F89C53C4F8A053C4F8A453C4F8A853C4F8AC5393
S2240044C0C4F8B053C4F8B453C4F8BC53C4F8C053C4F8C453C4F8C8535879C4F8CC534DF226
S2240044E00A714BF2177204F5806C04F2044704F58166C3F6D102C3F6A3410328C4F8D0533D
S224004500C4F8D453C4F8D853C4F8DC53C4F8E453C4F8E853C4F8EC53C4F8F053C4F8F453FA
S224004520C4F8F853C4F8FC53CCF800503D6084EDD08A84EDDA8A84EDE48AC4F8B823C4F8E1
S224004540E023C4F83453C4F8D452C4F85C53C4F8FC52C4F88453C4F82453C4F8C812C4F8A1
S224004560F012C4F8181332609EBF04225A711A71002384F88E34BDEC028BBDE8F88F00BF60
S2240045809A99993E0FB59F39D5E8D53806EE102AF8EEC66AF7EE007AC7EEA66A2DE9F04FE9
S2240045A083B0834600F62400019000250BF61C090BF50268ABF8345806EE103AB8EEC67A47
S2240045C0019B26EE877AC3ED006A27EE076A4FF07A530BF6280A0BF62C068AED007A0BF522
S2240045E0036C86ED006A0BF5D76EC9F800300BF2BC60C8F800300BF5D8620BF2C46A0BF2C9
S224004600CC630F4649F69A1100240193C3F69961CCF800100BF5D969CEF800400BF2D46867
S22400462004600BF5DB6C14600BF2DC63CAF80040DDF804A0C9F800400BF5DC6ECAF8004052
S2240046400BF2E461C8F800400BF5DD62CCF800401C600BF5E0630193CEF800400BF2EC602E
S2240046600C600BF5DE6914600BF2F46A019A04600BF5DF680BF2FC6C0BF5E163C9F80040C3
S2240046800BF20C71CAF800400BF5E26EC8F800400BF21470CCF800400BF5E36914600BF207
S2240046A01C7A0BF5E4680BF2247C0BF5E5621C600BF22C7301930C60CEF800400460C9F8EC
S2240046C00040CAF80040C8F80040CCF800401460019A0BF5E66114600BF2347E0BF23C706D
S2240046E00BF5E8690BF2447A0BF5E9680BF24C730BF2547201920C600BF5EA6CCEF800407E
S2240047000460C9F80040CAF80040C8F800401C60019BCCF800400BF5EB611C600BF25C7E72
S2240047200BF5EC600BF264790BF5ED6A0BF5EE620BF27C7301930C600BF27478CEF80040CC
S2240047400BF5EF6C0460C9F80040CAF800401460019AC8F800400BF5F0610BF2847E0BF533
S224004760F1600BF28C790BF5F263CCF8004014600BF2A4720BF2947A0BF5F3680BF29C7C86
S22400478001920C60CEF800400460C9F800401C60019BCAF800400BF5F561C8F800400BF23D
S2240047A0AC7ECCF800400BF5F6601C600BF5F96301930BF2B4720BF5F7690BF2BC7A0BF54E
S2240047C0F8680BF2C47C0C60CEF800400BF2CC7104600BF5FA6E01981460BFEE007AC9F8CA
S2240047E000400BF5E763CAF800400BF20472C8F800400BF5DA69CCF800400BF2D47A0BF523
S224004800F46C0BF26C7804600C600BF11400CEF80040C3ED007AC2ED007AC9ED007A8AED72
S224004820007A8CED007A88ED007A05F0B5FE0BF1380008F087F800238BF864508BF8655032
S2240048408BF866508BF867508BF868508BF869508BF86A508BF86B508BF86C508BF86D506F
S2240048608BF86E508BF86F508BF894508BF895508BF896508BF897508BF898508BF8995037
S2240048808BF89A508BF89B508BF89C508BF89D508BF89E508BF89F508BF8A0508BF8A1508F
S2240048A08BF8A2508BF8A3508BF8A4508BF8A5508BF8A6508BF8A7508BF8A850C4F248238A
S2240048C08BF8A9508BF8AA508BF8AB508BF87C508BF87D508BF87E508BF87F508BF88050C7
S2240048E08BF881508BF882508BF883508BF884508BF885508BF886508BF887508BF870500F
S2240049008BF871508BF872508BF873508BF874508BF875508BF876508BF877508BF8785056
S2240049208BF879508BF87A508BF87B50CBF8B840002F40F03F82CBF80841CBF80C41CBF8D1
S224004940043196ED006A9FEDDD7ADFEDDD7A26EE076ADFEDDC6A66EE275A9FEDDB7A65EE8A
S224004960A75ADFEDDA7AA6EE267AB0EE676AA5EEA66A0BF27C490BF590680BF591600BF223
S2240049808C4C0BF592670023F0EE466A0BF294468BED447ACBED456A0BF59365C9F8003033
S2240049A00BF29C44C8F800300BF5946A03600BF2A449CCF800300BF595683B600BF5966058
S2240049C00BF2B44C0BF2BC4733600BF598662B6023600BF2C445CAF800300BF59964C9F880
S2240049E000300BF2CC4AC8F800300BF59A6903600BF2D448CCF800300BF59B603B600BF279
S224004A00DC4C0BF2E44733600BF59D662B6023600BF59E65CAF800300BF2F444C9F8003082
S224004A200BF59F6AC8F800300BF2FC4903600BF5A068CCF800300BF204503B600BF20C5C86
S224004A400BF5A26733600BF5A3662B6023600BF21C55CAF800300BF5A464C9F800300BF248
S224004A60245AC8F800300BF5A56903600BF22C58CCF800300BF5A6603B600BF2345C0BF5AF
S224004A80A76733600BF5A8662B6023600BF24455CAF800300BF24C54C9F800300BF5AA6A2A
S224004AA0C8F800300BF2545903600BF5AB68CCF800300BF25C503B600BF5AC6C0BF26457D9
S224004AC033600BF5AD662B6023600BF26C55CAF800300BF27454C9F800300BF5AF6AC8F8DE
S224004AE000300BF5B06903600BF28458CCF800300BF5B1603B600BF28C5C0BF5B2673360FB
S224004B000BF294562B6023600BF5B365CAF800300BF29C54C9F800300BF5B46AC8F80030A5
S224004B200BF2A45903600BF5B568CCF800300BF2AC503B600BF2B45C0BF5B76733600BF2B3
S224004B40BC562B6023600BF5B865CAF800300BF2C454C9F800300BF5B96AC8F800300BF20B
S224004B60CC5903600BF5BA68CCF800300BF2D4503B600BF5BB6C0BF2DC5733600BF5BC66CA
S224004B802B6023600BF5BD65CAF800300BF2EC54C9F800300BF5BE6AC8F800300BF2F4595E
S224004BA003600BF5BF68CCF800300BF2FC503B600BF5C06C0BF2046733600BF5C1662B60B5
S224004BC023600BF20C65CAF800300BF5C264C9F800300BF2146AC8F800300BF21C69036086
S224004BE00BF5C468CCF800300BF224603B600BF5C56C0BF22C6733600BF5C6662B602360E6
S224004C000BF23465CAF800300BF5C764C9F800300BF23C6AC8F800300BF5C86903600BF2C7
S224004C204468CCF800300BF5C9603B600BF5CA6C0BF2546733600BF5CB662B6023600BF24E
S224004C405C65CAF800300BF5CC64C9F800300BF2646AC8F800300BF5CD6903600BF26C6856
S224004C60CCF800300BF5CE603B600BF2746C0BF5CF6733600BF27C662B6023600BF28465F9
S224004C80CAF800300BF5D164C9F800300BF28C6AC8F800300BF5D26903600BF29468CCF8B9
S224004CA000300BF5D3603B600BF29C6C0BF5D46733600BF2A4662B600CE000BF0FB59F3945
S224004CC0000048429A99993ED5E8D5389A99193F0AD7A33C1FED026A23600BF5D565CAF82F
S224004CE000300BF2AC64C9F800300BF5D66AC8F8003040F22C5203600BF21458CCF80030E1
S224004D003B600BF5A16C0BF284473360C2F200024FF07A500BF58F690BF5B6664BF21771F3
S224004D202B60C3F6D10123600BF24C65CAF800300BF2AC4489ED006AC8F80000CCF80030B4
S224004D403B600BF5A96C0BF23C573160C5ED007A84ED006A5479CCF800000BF597663B604D
S224004D600BF2E4550BF27C580BF5AE6C0BF2EC47042C0BF5D06A0BF59C69336029600BF552
S224004D80C366CAED007A89ED006AC8F80000CCF800303B6098BF05230BF2B4659CBF5371D1
S224004DA0137100233160C5ED007A8BF8363803B0BDE8F08FCBF80441CBF80C41CBF80831AE
S224004DC0BFE500BF70B590F9143004460D46164663B14DF20A7147F20D420023C3F62351DA
S224004DE0C3F6DA4203758160C26070BD01F1080094ED030A214607F0ABFC05F10C0032462A
S224004E00211D94ED030ABDE8704007F0A1BC00BF2DE9F041044690F9A00082B015460028EA
S224004E203AD104F164061831304604F18807002B44D0012B6ED006F0D1F904F138083046AC
S224004E40394607F071F904F114062B4604F1540294ED270AD4ED260A3846414607F006FB02
S224004E604146304607F052FA404604F1480107F09DFA04F10C0204F110038DE80C00304699
S224004E802146221D04F1080306F0D6FF0023E360A36002B0BDE8F0814DF20A714CF6CC4261
S224004EA0C3F62351C3F64C620023C4F89810C4F89C2084F8A03002B0BDE8F08106F076F8E2
S224004EC004F138083046394607F02EF904F114062B4604F1540294ED270AD4ED260A384699
S224004EE0414607F0C3FA4146304607F00FFA404604F1480107F05AFA04F10C0204F110035B
S224004F008DE80C0030462146221D04F1080306F08BFEBBE706F0D6F804F1380830463946E0
S224004F2007F002F904F114062B4604F1540294ED270AD4ED260A3846414607F097FA4146F8
S224004F40304607F0E3F9404604F1480107F02EFA04F10C0204F110038DE80C0030462146B7
S224004F60221D04F1080306F0E3FE8FE72DE9F041044690F9A00082B01546D0B140F22C5327
S224004F80C2F200034DF20A7048F688015A79C3F62350C3F68851C4F89800C4F89C1012B9BD
S224004FA001225A711A71002384F8A03002B0BDE8F08104F164073031384604F188087BB34A
S224004FC0012B5BD006F02CFA04F138063846414607F0AAF804F114072B4694ED270AD4ED94
S224004FE0260A04F154024046314607F03FFA3146384607F08BF9304604F1480107F0D6F91A
S22400500004F10C0204F110038DE80C0021463846221D04F1080306F00FFF02B0BDE8F0810F
S22400502006F07AF904F138063846414607F07CF804F114072B4694ED270AD4ED260A04F146
S22400504054024046314607F011FA3146384607F05DF9304604F1480107F0A8F904F10C0265
S22400506004F110038DE80C0021463846221D04F1080306F0D9FD02B0BDE8F08106F08EF96D
S22400508004F138063846414607F04EF804F114072B4604F1540294ED270AD4ED260A4046A1
S2240050A0314607F0E3F93146384607F02FF9304604F1480107F07AF904F10C0204F1100364
S2240050C08DE80C0021463846221D04F1080306F02FFE6BE72DE9F04786B090F97C40BDF933
S2240050E0388082460D469946002C6FD12A69C9686B698265B8F1000F4165C365C2BF22469F
S22400510000F1640600F1380740F3978002EB420205EB420295ED067AB2F91C3006EE103A19
S224005120B2F91E30B2F9202006EE903A05EE902AB8EEC66AF8EEE55AF8EEE66ADAED1D7A8C
S22400514026EE076A66EE876A27EE257A26EE276A66EEA76A67EE877A304603A9B7EE000A9B
S22400516001348DED036ACDED046ACDED057AE4B206F02AFF3846314607F042FB62B2424534
S224005180C4DB38460AF1140407F074FB2046394607F0BCF838460AF1480107F007F9B9F181
S2240051A0000F34D00AF10C020AF11003B9F1010F8DE80C00514620460AF104020AF1080381
S2240051C036D006F039FE06B0BDE8F0874DF20A724DF20A73C3F6A332C3F6235342678367FE
S2240051E0143005F0D9F90AF1380007F0ABFB40F22C53C2F200035A79012A9EBF02225A711D
S2240052001A7100238AF87C3006B0BDE8F0870AF10C020AF110038DE80C00514620460AF14B
S22400522004020AF1080306F0FFFC06B0BDE8F08706F07EFD06B0BDE8F08700F13807A0E7A0
S2240052402DE9F043044683B090F9A800BDF9286017461D46E0B140F22C53C2F200034DF21C
S2240052600A705A79022A98BF032248F68801C3F62350C3F688519CBF5A711A710023C4F81F
S224005280A000C4F8A41084F8A83003B0BDE8F08304F16408002E41D0012E04F1980601F186
S2240052A0300207F118034046314604F188096BD006F076FB04F138074046494606F034FF0D
S2240052C004F1140804F154022B4694ED290AD4ED280A4846394607F0C9F83946404607F094
S2240052E015F8384604F1480107F060F804F10C0204F110038DE80C0040462146221D04F1E4
S224005300080306F099FD94ED290A30462A4604F19C0103B0BDE8F04307F01ABA04F19806DC
S22400532001F1300207F118034046314604F1880906F0B8F804F138074046494606F0F4FED7
S22400534004F1140804F154022B4694ED290AD4ED280A4846394607F089F83946404606F054
S224005360D5FF384604F1480107F020F804F10C0204F110038DE80C0040462146221D04F1DC
S224005380080306F051FCBEE706F0CAF904F138074046494606F0C8FE04F1140804F15402FB
S2240053A02B4694ED290AD4ED280A4846394607F05DF83946404606F0A9FF384604F1480118
S2240053C006F0F4FF04F10C0204F110038DE80C0040462146221D04F1080306F0A9FC92E713
S2240053E02DE9F04F2DED068B0C46ADB090F98E14BDF9F0A0059381469346002940F09A85D8
S224005400B0F98C34002B00F0D88100F1140500F13807049503973D4695E80F009BED035A49
S224005420DBED045A9BED057AD9ED196A99ED1A6AD9ED1B7A35EE665A75EEC65A37EE677A20
S22400544009F1B806BAF1000F89ED155AC9ED165A89ED177A86E80F0040F38A854FF00008BD
S22400546009F1C80509F27C47434605E0D9ED196A99ED1A6AD9ED1B7A03EB43030BEB430316
S2240054809BED067AB3F91C00B3F91E20B3F9203005EE903A05EE102AF8EEE55A04EE900AB6
S2240054A0D7EE257AF8EEE44AB8EEC55AD4EE876A95EE076AB0EE677AD7ED007A66EEA76AE1
S2240054C026EE276A67EE877A28460BA9B7EE000A08F10108CDED0B6A8DED0C6ACDED0D7A99
S2240054E05FFA88F806F070FD3046294607F088F94FFA88F35345B9DB09F19400314606F023
S22400550005FF059F99ED365AD7F1010899ED376A99ED387AF6EE007A4FF6FD7338BF4FF04F
S224005520000825EE275A26EE276A3B40D4ED033A94ED044A67EE277AD4ED054AB8F1000F1F
S22400554040F0DB84D9ED275AD9ED2A6A99ED2D7A002B00F0118575EE633A36EE444A77EE21
S224005560E44AF1EE655AF1EE666AB1EE477AC9ED406A89ED425AC9ED3F5AC9ED447A89EDA0
S224005580417A73EEE53A34EE664A74EEC74AB0EE655A09F59067D9ED405AF0EE476ADFED79
S2240055A0947A9FED947A89ED436A97ED006A66EEA76A25EE877A65EE277AB1EE466A26EE5D
S2240055C0865A67EE065A27EE866A09F2144009F58761B1EE662A09F5866209F2544309F552
S2240055E0826AF1EE472AC9ED3C3A89ED3D4AC9ED3E4A09F58B6ECAED006AF1EE453A80ED20
S224005600007AB1EE654AC1ED007AB1EE673A82ED002A09F21C4CC3ED002A09F58C62F1EEB4
S224005620464A09F5846409F2444009F23C4109F264438EED003A06978CED005A09F53B7781
S224005640C4ED005A9FED6C5A80ED006AC1ED003A82ED004AC3ED004A07973A460DF1500EFC
S2240056600DF1BC0BF7EE006AFFEE005A5446AEF10C00A2F12407A0EC015A3B46214609E00F
S22400568010ED017A77EE277A40ED017A9A4201F1040128D0F3EC017AF5EE407AF1EE10FA34
S2240056A0F4D011ED017AB5EE407AF1EE10FAEDD0B4EE667AF1EE10FAE2D0B4EE657AF1EE28
S2240056C010FA15BF10ED016A10ED017AA7EE876A77EE677A14BF00ED016A40ED017A9A428C
S2240056E001F10401D6D1864504F12404C3D10EF10C0EDE4502F12402B8D109F20C4709F561
S2240057008C7A9FED3D5ABE46D3464FF0000CF7EE006AFFEE005A584664464FFA8CF20EF14F
S224005720240111AB03EB8202A0EC015A0C32734609E050ED017A37EE877A00ED017A8B4237
S22400574002F10C0228D0F3EC017AF5EE407AF1EE10FAF4D012ED037AB5EE407AF1EE10FAE5
S224005760EDD0F4EE667AF1EE10FAE2D0F4EE657AF1EE10FA15BF10ED016A50ED017AA7EED7
S224005780876A37EEC77A14BF00ED016A00ED017A8B4202F10C02D6D10134E4B262B2022A9A
S2240057A0BFDD0CF1010C5FFA8CFC4FFA8CF2032A0BF1280B22D09E46ADE7059D002D00F011
S2240057C0C583012D00F0CB8300F11405284604F10C01049505F002FD09F1380739460498B5
S2240057E0039706F0A1FC0123A9F88C34039D13E635FA8E3C35FA8EBC00000000D9ED457A62
S22400580099ED5A6AD9ED466A99ED507AD9F81C01D9F82011D9F84431009276EEA76A37EE11
S224005820277A76EE277A09F59E7EC9F83C01C9F86011C9F8643109F5B0740EA808A909AAE1
S2240058400AABC9ED466A89ED507AC9ED5A7ACDF83CE01094CDF838A009F5177405F09AF92B
S2240058601FED1B6A11AA234609F5197009F5187109F5327ED2ED006A83ED006AF5EE406A22
S224005880F1EE10FA1EBFD9ED467AF0EE465AE6EEA75A92ED017A18BFC3ED005AB5EE407A2C
S2240058A008BF5FED2B5AF1EE10FA1CBFD9ED4F7AE7EE275AD2ED027A18BFC3ED005AF5EEA3
S2240058C0407AF1EE10FA1CBF99ED585AE7EE855AF5EE406A18BFC3ED005A81ED006AF1EE34
S2240058E010FA1EBFD9ED475AB0EE464AA5EEA64AB5EE407A1ABFF0EE445AC1ED005A5FED9E
S224005900425AF1EE10FA1CBF99ED505AE7EE055AF5EE407A18BFC1ED005AF1EE10FA1CBF7E
S22400592099ED595AE7EE855AF5EE406A18BFC1ED005A80ED006AF1EE10FA1EBFD9ED485A04
S224005940B0EE465AA5EEA65AB5EE407A1ABFF0EE456AC0ED006A5FED586AF1EE10FA1CBFC5
S224005960D9ED515AE7EE256AF5EE407A18BFC0ED006AF1EE10FA1CBF99ED5A7AE7EE876ADE
S22400598003F10C0318BFC0ED006A734502F10C0200F10C0001F10C017FF46CAF5FED6A6AAE
S2240059A099ED3C6AD9EDA03AD9ED974A99EDA94A99EDA35A99ED9A7AB0EE662AB0EE663A6D
S2240059C0D9EDAC5AD9ED9D7AA3EE862AA4EE863AF0EE662AF0EE663AF0EE664AE4EE062A0A
S2240059E0E5EE063AE7EE064AB0EE664AB0EE665AA5EE864AA7EE865A99ED3D7AD9ED9B5AEE
S224005A0099EDA18A99EDAA0AD9ED980A99EDA41AD9EDAD1AD9ED9E7AE5EE874AD9EDA65A15
S224005A20A8EE072AE0EE072AA0EE873AE1EE073AA1EE874AA7EE875AD9EDAF9AB0EE66AAA9
S224005A40A5EE86AAD9ED3E7AD9EDAE0A99ED9C1A99EDA50AD9ED9F1A99EDA29AD9EDAB8AD5
S224005A6099ED998AE9EE866AE0EE273AA1EEA75AA9EE272AE8EEA72AA8EE273AA0EEA74AED
S224005A80E1EE274AD9EDA71A99EDB06AF0EE4A5AE1EE875AE6EE076A89ED1F2AC9ED392A4B
S224005AA089ED1C3AC9ED203A89ED3A4AC9ED1D4A99EDA86A99EDB17AE6EE275AE7EE276AEA
S224005AC089ED1E5AC9ED215AC9ED3B6ABFEE000A284609F1700106F077FA2A4631460398CE
S224005AE006F048FE039806F0C5FE0498039906F00DFC039809F1480106F058FC99ED192AE9
S224005B0099ED1A3A99ED1B4A99ED1F5AD9ED422AD9ED395A99ED206AD9ED433AD9ED3A6A74
S224005B2099ED217AD9ED444AD9ED3B7A32EE455A72EEE55A33EE466A73EEE66A34EE477AAD
S224005B4074EEE77A89ED195AC9ED365A89ED1A6AC9ED376A89ED1B7AC9ED387AB8F1000FD2
S224005B6040F0D981059D049809F10C0209F11003012D8DE80C00494609F1040209F1080300
S224005B8000F0E18106F058F9DDF81CB009F58F654FF00008F7EE006AFFEE005A5E46A7F5B7
S224005BA0347CA7F53D7007F1240140F8048B3B46324609E050ED017A37EE877A00ED017ADB
S224005BC08B4202F1240228D0F3EC017AF5EE407AF1EE10FAF4D012ED097AB5EE407AF1EE80
S224005BE010FAEDD0F4EE667AF1EE10FAE2D0F4EE657AF1EE10FA15BF10ED016A50ED017ADE
S224005C00A7EE876A37EEC77A14BF00ED016A00ED017A8B4202F12402D6D1604506F10406CD
S224005C20C3D1AB4201D01F46B8E709F53376B44600276346384679B20AEB8102D2ED007A3E
S224005C40F5EE407AF1EE10FA1EBF13ED017AD4ED006AA7EEE67A00F1010018BF03ED017A0D
S224005C60D2ED097AF5EE407AF1EE10FA1EBF13ED017AD4ED016AA7EEE67AC0B218BF03EDA5
S224005C80017AD2ED127AF5EE407AF1EE10FA1EBF13ED017AD4ED026AA7EEE67A41B218BF6F
S224005CA003ED017A082903F10403C5DD0137FFB2092F0CF1280C04F10C04BAD10027B246A5
S224005CC0BC4609F58E780CF1010C5FFA8CFC5AF8042C4FFA8CF3092B48F8042C40465446C0
S224005CE016D0624603EBC3030132DE19D2B254F8041B09EB860653B2092BC6F8181140F86C
S224005D00041BEFD1013708F128080AF1280ADAE7002309F59162C9F8CC32C9F8D032C9F8F9
S224005D20D832C9F8DC32C9F8E032C9F8E432C9F8E832C9F8EC32C9F8F432C9F8F832C9F88E
S224005D400033C9F80433C9F80833C9F80C33C9F81033C9F81433C9F81C33C9F82033C9F826
S224005D602833C9F82C33C9F83033C9F83833C9F83C33C9F84433C9F84833C9F84C33C9F8AE
S224005D805033C9F85433C9F85833C9F86033C9F86433C9F86C33C9F87033C9F87433D2ED50
S224005DA0007AD9ED643A09F28442D2ED004A73EEA76A99ED467AA6EEA47AC9F87833C9F89F
S224005DC07C33C9F88033C9F88833C9F88C33C9F89433C9F89833C9F89C33C9F8A033C9F8A6
S224005DE0A433C9F8A833C9F8AC33C9F8B033C9F8B433C9F8BC33C9F8C033C9F8C433C9F862
S224005E00C833C9F8CC33C9F8D033C9F8D433C9F8D833C9F8DC33C9F8E433C9F8E833C9F825
S224005E20EC33C9F8F033C9F8F433C9F8F83309F58061C9F8FC3309F2044299ED6E3A99EDC2
S224005E40784A069FD5ED005AD7ED006A73EE270A0B6034EE271A1360D9ED5A7A89EDB27A7D
S224005E609FED4C5A99ED507A9FED4B6AD9ED822A73EE853AA0EEA47AE1EE247A73EE054AFF
S224005E8034EE055AB0EE464AD9ED8C1A99ED962AA2EEA54AB0EE463AA1EEA53AA2EE256A72
S224005EA0F1EE666A64EEA65AF0EE442A23EEA64A65EE266A09F5816389EDBC7AC9EDC67A28
S224005EC0C9EDD03A89EDCD4A89EDB54AC9EDDA4AC9EDD75AC9EDBF5AC9EDE16AC9EDC96A81
S224005EE089EDE45AC9EDEE2A89EDF83A83ED006A2DB0BDEC068BBDE8F08F75EE233AD9EDD8
S224005F00275A36EE044A77EEA44AD9ED2A6A99ED2D7AFFF72CBB09F10C0209F110038DE848
S224005F200C000498494609F1040209F1080305F07BFE29E6C8210822FEF75CF92DB0BDECC0
S224005F40068BBDE8F08F05F0F3FE1DE600F11407384604F10C01049705F028F83CE400F151
S224005F601407384604F10C01049705F0ABF833E409F1C805FFF7C0BA75EE233A36EE044ACE
S224005F8077EEA44AF1EE655AF1EE666AB1EE477AFFF7EDBA5F70893017B7D1382DE9F04FAB
S224005FA02DED0E8BE5B00E46BDF9F881BDF9F44190F93618CDF8148082460394154698465E
S224005FC0002942F02A86DDF8F09199F91634EBB1B0F93438D3B9039C002C02F09586012C3D
S224005FE002F0B686022C02F0A48600F11409CDF8089048460AF138042146049406F094F873
S2240060000123AAF83438DDF8109007E00AF138040AF1140CCDF808C00494A14699E80F00FF
S22400602098ED035AD8ED045AD8ED057A9AED197ADAED1A6A9AED1B6A059C35EE475A75EED9
S224006040E65A77EEC67A0AF60C0B002C8AED155ACAED165ACAED177A8BE80F0040F3B280D7
S2240060600AF624074FF0000906964B463E460AF2FC742F46059D05E09AED197ADAED1A6A2A
S2240060809AED1B6A03EB430308EB4303D8ED067AB3F91CC0B3F91E00B3F9203004EE90CAA3
S2240060A005EE903A05EE100AF8EEE44AB8EEC55AF8EEE55A94EEA77A97EEA56AD5EE276A88
S2240060C0D6ED007A67EE275A26EEA77A67EE867A204613A9B7EE000A09F10109CDED135A22
S2240060E08DED147ACDED157A5FFA89F905F06CFF5846214606F084FB4FFA89F3AB42BBDB4D
S2240061000AF5FB6948465946069E06F0FFF803980894D0F10100039C38BF00204FF6FD73F5
S2240061203D4605902340002863D10AF5FC610AF2EC72002B02F020860AF5FF63DAED437A25
S22400614091ED005AD2ED005A93ED006A0AF2DC710AF5FD620AF2F4739AED424A67EE856AFE
S22400616091ED002A27EEA57AD2ED002A93ED003A9AED301ADAED311A67EE867ADAED2F3A33
S224006180F6EE004AE4EE026AA4EE227AE4EE037A63EEA43A21EE244A96ED032A61EEA44A78
S2240061A0D6ED042A96ED053AD5ED090A95ED0A1AD5ED0B1A33EEC22A74EE622A34EEC33AAB
S2240061C002F01EBE0AF5FB694846594606F09EF8039CD4F1010438BF00240594039C4FF6CF
S2240061E0FD732340059C0AF2FC78CDF82080002C9BD00AF2EC720AF5FF630AF5FC61D2EDE4
S224006200005A93ED006A91ED005ADAED437A0AF2E4720AF5FE6399ED001AD2ED001AD3EDEE
S224006220002ADAED414A67EE856A27EEA57A9AED312A9AED2F3ADAED303A66EE277AB6EEC9
S224006240004AD6ED030AE4EE816AA4EEA17A63EE843AD6ED041AE2EEA47A23EE043AD6EDC5
S224006260052A22EE044A95ED091A95ED0A2A73EEA11A74EE222A73EE200AD5ED0B4A70EE67
S224006280C50A31EE661A71EEE51A32EE472A72EEC62A74EEE74A8AED2B3ACAED350ACAED30
S2240062A03E6A8AED381ACAED3C5ACAED361A8AED3F7A8AED392A8AED3D6ACAED407ACAEDC4
S2240062C0372A8AED3B5ACAED2C3A8AED2D4ACAED3A4AB0EE655AF0EE464AF0EE473AB0EE3E
S2240062E0664ADAED3B5A9FEDA97A0AF62804DFEDA86AD4ED007A9AED406A65EE875A64EEE2
S224006300874A25EE265AF1EE677A63EEA66A26EE076A24EE077A25EEA73A24EEA72A65EEB1
S224006320272A0AF5D8600AF5DE610AF5DD620AF5E363F1EE65AA0B940AF2BC6E0AF21C74D0
S224006340F1EE64BAB1EE45BACEED004A26EEA74A80ED005A66EE273AC1ED005A67EE277A19
S224006360C2ED00BAF1EE669A83ED00BA0AF24C75C4ED00AA0AF5EA600AF5F0610AF5EF62A5
S2240063800AF5F5630AF2AC74B1EE46AAB1EE479A85ED006A0AF59568C0ED006A0AF5D9654A
S2240063A081ED007A0AF2CC6082ED00AA0AF2FC61C3ED009A0AF2F46284ED009A0AF224731C
S2240063C00AF5E564F1EE428AB1EE628AB1EE430A85ED002ACDF82480C0ED002A0AF5EB6523
S2240063E081ED003AF1EE630AC2ED008A0AF28C7183ED008AB1EE441A84ED000AF1EE671AA0
S2240064000AF25C700AF284720AF2B4730AF5F764C5ED003A80ED004AC1ED007AC2ED000ABC
S224006420099983ED001AC4ED001A4FF0000822AD0DF5D47CF7EE006AFFEE005A7446A5F112
S2240064401800A1F1300740F8048B3B46224609E010ED017A77EE277A40ED017A8B4202F1D7
S224006460040228D0F3EC017AF5EE407AF1EE10FAF4D012ED017AB5EE407AF1EE10FAEDD0F8
S224006480B4EE667AF1EE10FAE2D0B4EE657AF1EE10FA15BF10ED016A10ED017AA7EE876A36
S2240064A077EE677A14BF00ED016A40ED017A8B4202F10402D6D1854204F13004C3D1183580
S2240064C0654503F13001B9D10AF5D76C0AF58C74CDF828C067464FF00008A4464FF0000E45
S2240064E0F7EE006AFFEE005A604675464FFA8EF207F130011CAB03EB820240F8048B183264
S2240065003B4609E050ED017A37EE877A00ED017A8B4202F1180228D0F3EC017AF5EE407AFD
S224006520F1EE10FAF4D012ED067AB5EE407AF1EE10FAEDD0F4EE667AF1EE10FAE2D0F4EEE8
S224006540657AF1EE10FA15BF10ED016A50ED017AA7EE876A37EEC77A14BF00ED016A00ED76
S224006560017A8B4202F11802D6D10135EDB26AB2052ABFDD0EF1010E5FFA8EFEBEF1060FA7
S2240065800CF1340C08D01F46AEE700BF35FA8E3C35FA8EBC000000009AED447ADAED457AEB
S2240065A09AED465ADAED535A9AED604A9AED6D6ADAED7A6ADAED874A35EE075A75EE875AA1
S2240065C036EE276A76EEA76A34EE077A74EEA77A8AED465ACAED535A8AED607A8AED6D6A4C
S2240065E0CAED7A6ACAED877A012043B20AEB830103EB4302D1F818510AEB0212012BC2F860
S224006600185101F09281D1F84851022BC2F81C5101F08B81D1F87851032BC2F8205101F079
S2240066208481D1F8A811052BC2F8241141F07D81DAF8EC311694CAF8183203220AF5A473A0
S2240066400AF5BC7000920AF5D4710AF5EC7217930AF502731890199116A81A921B930DA999
S22400666011AB0FAA04F096FA5FED367A0C200023079659B201EB4101C9001CAA0A4492ED9F
S224006680006A92ED055AB5EE406A01F55671F1EE10FA514492ED017AD2ED026AD2ED034AF4
S2240066A0D2ED045AB5EE405A40F00A83F1EE10FAF5EE405A40F0FA83F1EE10FAF5EE404A55
S2240066C040F0F586F1EE10FAC1ED007AB5EE407A41F01382F1EE10FA1EBF94ED0C6AF0EE3B
S2240066E0673AE6EE073AF5EE406A1ABFB0EE636A81ED006A1FED596AF1EE10FA1CBFD4EDE2
S224006700185AA5EEA66AC1ED017A18BF81ED006AB5EE407AF1EE10FA1EBF94ED0D6AB0EECE
S224006720674AA6EE074AF5EE406A1ABFB0EE446A81ED016A1FED696AF1EE10FA1CBFD4EDCF
S224006740195AA5EEA66AC1ED027A18BF81ED016AB5EE407AF1EE10FA1EBF94ED0E6AF0EE4A
S224006760674AE6EE074AF5EE406A1ABFB0EE646A81ED026A1FED796AF1EE10FA1CBFD4ED1E
S2240067801A5AA5EEA66AC1ED037A18BF81ED026AB5EE407AF1EE10FA1EBF94ED0F6AB0EE46
S2240067A0675AA6EE075AF5EE406A1ABFB0EE456A81ED036A1FED896AF1EE10FA1CBFD4ED0C
